:020000040800F2
:1000000028070020A54500081D4500081F450008D9
:100010002145000823450008254500080000000090
:10002000000000000000000000000000274500085C
:1000300029450008000000002B4500082D45000858
:10004000C7450008CB450008CF450008D345000848
:10005000D7450008DB450008DF450008E3450008F8
:10006000E7450008EB450008EF450008F3450008A8
:10007000F7450008FB450008FF4500080346000857
:10008000074600080B460008314500080F460008E7
:1000900013460008174600081B4600081F460008C4
:1000A00023460008274600082B4600082F46000874
:1000B00033460008374600083B4600083F46000824
:1000C00043460008474600084B4600084F460008D4
:1000D00053460008574600085B4600085F46000884
:1000E00063460008674600086B4600086F46000834
:1000F00073460008774600087B4600087F460008E4
:1001000083460008874600088B4600088F46000893
:1001100093460008974600089B4600089F46000843
:10012000A3460008A7460008AB460008AF460008F3
:10013000B3460008B7460008BB460008BF460008A3
:10014000C3460008C7460008CB460008CF46000853
:10015000D3460008D7460008DB460008DF46000803
:10016000E3460008E7460008EB460008EF460008B3
:10017000F3460008F7460008FB46000800000000B0
:10018000FF460008034700082DE9F84F0FF2B019A9
:10019000A2B0D9E90045CDE900452C9EDFF80C9CC2
:1001A00004918DF8436000210FF29C140D9112947C
:1001B0004FF0FF36824615461F460FE0AB464446D9
:1001C0001BF8011B0498D0470028049000F0A6807B
:1001D0000D98401C641E0D90F2D1454428782528C6
:1001E00007D100210791089109910A910B910C9177
:1001F0000FE06A463146284600F0DAFF5FEA000861
:1002000001D10D98A4E0D9D54FF00108E5E741F000
:10021000010115F8010F2028F9D023280CD02B2834
:1002200004D02D2805D0302809D079E041F0020112
:10023000EFE741F00401ECE741F00801E9E741F0A4
:100240001001E6E700200F9009E00F98484505DA15
:1002500000EB800302EB4302303A0F926D1C2A78C8
:10026000A2F130000A28F0D32A782E2A18BF0E9661
:1002700023D115F8010F2A2807D1386838606D1C82
:1002800050F8042B38600E9217E02D280CBF15F89B
:10029000010B002000220E920AE040B90E9A4A4556
:1002A00005DA02EB820403EB4403303B0E936D1C32
:1002B0002B78A3F130020A2AEFD3ADF84010129840
:1002C000297800F081FF08B115F8010B8DF8420084
:1002D0009DF84200682804BF2978682903D162206C
:1002E0008DF8420007E06C2804BF28786C2803D101
:1002F00071218DF842106D1C13A806903A4615F82E
:10030000013B02A9504600F063F838B913AA02A9CC
:10031000504600F0C5F900287FF560AF304617E081
:100320002A288FD13A683A6052F8040B3A600028C4
:100330000F9003D540420F9041F004016D1C93E7EC
:100340000000000000000000686A6C747A4C000035
:1003500023B0BDE8F08F622820D0682811D06A2829
:1003600003D06C2827D0712825D10868C01D20F043
:1003700007000860D0E900230830086019461046DD
:100380007047002A0A680A60106803D0121D0A60CC
:1003900000B217E0121D0A6080B217E0002A0A6856
:1003A0000A60106803D0121D0A6040B20AE0121DF4
:1003B0000A60C0B20AE0002A0A680A60106803D026
:1003C000121D0A60C1177047121D0A600021704794
:1003D0007CB50D4611461C462E69B4F1250200F08D
:1003E0004D811C3A00F08680121F022A40F2828062
:1003F0000E3A00F00781521F5AD0093A7AD0921E65
:1004000016D0521E35D0521E022A73D9121F30D078
:10041000521F00F09A80521E4AD0521E00F0E48013
:10042000D21E00F0FD80921E42D0D21E40D02BE1A1
:1004300095F83A206C2A09D06869421C6A610A68FA
:100440000A6052F8043B0A60335427E10A680A60E4
:1004500052F8043B0A600021009301914FF0FF32F3
:100460002A6329466A4600F096F9002840F1168171
:1004700001E195F83A000122FFF76DFFC5E900019F
:100480000023994204DA6869411C69612D210DE05D
:10049000288F810704D56869411C69612B2105E01B
:1004A000C00722D56869411C6961202131541CE0D4
:1004B00095F83A000022FFF74EFFC5E9000195F8D4
:1004C0003800010711D5D5E900230020834208BF79
:1004D00082420AD044F02000782806D16869302191
:1004E0003154401C411C69613454214668693044D0
:1004F000E86083E00868C01D20F007000860D0E9CC
:10050000002308300860C5E90023D5E90001C80FC1
:1005100004D06869411C69612D210DE0288F810795
:1005200004D56869411C69612B2105E0C00704D529
:100530006869411C69612021315468693044E86070
:100540002146284600F032FAA8E005F13A02507838
:1005500020B14FF0FF340FF6FC2070E010786228D5
:1005600008D0682824D06A2812D06C282ED0712890
:100570000ED02BE00A680A6052F8040B0A6020B91A
:100580004FF0FF340FF6E42059E0E96A017085E08E
:100590000A680A6052F8040B0A6020B94FF0FF3471
:1005A0000FF6C8204BE0EA6AD317C0E9002375E0D4
:1005B0000A680A6052F8040B0A6020B94FF0FF3451
:1005C0000FF6A8203BE0E96A018067E00A680A604C
:1005D00052F8040B0A6020B94FF0FF340FF68C205C
:1005E0002DE0E96A016059E00A680A6052F8040BDC
:1005F0000A600021C5E90001EE607821284600F07C
:1006000029F94BE06C2285F83A200B680B6053F80F
:10061000042B0B6052BB4FF0FF340FF684200EE02A
:1006200095F83A206C2AF0D00868086050F8044B1E
:100630000860EC603CB94FF0FF340FF6482000F042
:10064000DDFD201A76BD2E6B002E04D5204600F06D
:10065000F7FD044608E032460021204600F00CFE7B
:10066000002814BF041B3446AC6117E0294600F093
:1006700092F8002812D54FF0FF3076BD6869411C12
:1006800069612521315409E06969481C68612522A6
:100690007254210002D0411C69613454002076BD9F
:1006A0002DE9F0410E460546716B7069B46A091A6E
:1006B000306A091AB069091A706A091AF069091AC8
:1006C00096F838000C1B410790460DD4002C0BDD2A
:1006D0002746B0682021A8470028B06057D0F06AAC
:1006E000401C7F1EF062F4D17369424631462846B1
:1006F00000F099FC00284AD1376A002F0ADDB06863
:100700003021A8470028B06041D0F06A401C7F1E0D
:10071000F062F4D1B369F2683146284600F083FCF8
:10072000A8BB776A002F09DDB0683021A847B06008
:1007300068B3F06A401C7F1EF062F5D1F068B169C1
:10074000F36942183146284600F06DFCF8B9B76AE3
:10075000002F09DDB0683021A847B060B8B1F06A59
:10076000401C7F1EF062F5D196F8380041070BD58A
:10077000002C09DDB0682021A847B06038B1F06ACC
:10078000401C641EF062F5D10020BDE8F0814FF0FE
:10079000FF30BDE8F0812DE9F8470D46A3B02F6B7F
:1007A000002F8146904648BF6FF0004700F090FD53
:1007B000696B40180FF604118128D1E90023CDE9B7
:1007C000012328BF4FF0FF303ED20024002F2FDD41
:1007D000D8F8001001AA684600F0ECFC0646002E8E
:1007E00035D4D8F8000008B9761E30D4B7421FDBE4
:1007F0006869301881280AD30020686303AA294653
:100800004846FFF74DFF040012D40020686103A89A
:10081000D5F814A032466946504400F05FFDB2445A
:10082000C5F814A058F8040B002818BFBF1BCDD181
:100830002CB903AA29464846FFF732FF044614B9EB
:10084000002068616863204624B0BDE8F0874FF05F
:10085000FF34F8E72DE9FC4704468A462569BAF1DA
:100860006F0F08BF082605D04AF02001782914BF71
:100870000A2610263C27D4E90023BAF1640F18BFDA
:10088000BAF1690F9046994606D100218B4203DAEE
:10089000D8F1000869EB49090020814508BF80456F
:1008A0001FD1206BE8B9082E4CD194F8380001070D
:1008B00048D530203B2785F83B0043E000280ED583
:1008C00094F8380000F01400102808D1626B6069B9
:1008D000121A206A121A511A0029C8BF2162BDE8F3
:1008E000F3878DF800A0404649463246F31700F0E2
:1008F00049FD3032D2B27F1E3A2A019704DB9DF8BF
:100900000000A0F151018A18EA5540464946324696
:10091000F31700F037FD804689460020814508BF67
:10092000804503D0E068E9198842DCD3082E09D15C
:1009300094F83800010705D5E95D302902D07F1E03
:100940003020E855C7F13C01A161E819E060206B57
:100950008142B3DA411A21624FF6EF70218F0140D4
:100960002187BDE8F3872DE9D04306460F4614469C
:100970004FF00008DFF8389412E0E00707D5424650
:100980004B463046394600F015FE06460F464046B7
:10099000494642464B4600F00DFE641080468946AB
:1009A000002CEAD130463946BDE8D0832DE9F34F1B
:1009B000054641F020048DB0D5E90089612C02AED6
:1009C00009D0286B002848BF062003D408BF672C35
:1009D00001D101202863D5E9002358004015401CAF
:1009E0000ED119030CD00320A8619DF8380061389E
:1009F0001A2802D20FF2CC6111E00FF2CC610EE0A6
:100A000058004015401C0FD119030DD10320A861D7
:100A10009DF8380061381A2814D30FF2B461E868E1
:100A2000032200F05BFCD3E1194621F00043B3F54B
:100A3000801F10460DD20027BB4208BFBA42019763
:100A400003D111E00FF28461E9E701AA00F084FE0E
:100A50000AE0DFF8607307EB1352DFF85C330192B2
:100A60001940DFF858331943C5E90001612C0ED154
:100A7000E86830210170811CE9609DF83810612917
:100A80000CBF7821582141706869801C6861D5E9E4
:100A900000AB2BF0004300202AF00002834204BF89
:100AA0008242002300F05A81612C40F0A980286B1B
:100AB00000284CBF2120401C00904046009F7F1C16
:100AC00049460022002300F07FFED94601988DF8A8
:100AD000082038BF89F00049001F0190002FD04640
:100AE0000DF1090040F3498140F2FF71DFF8D0B207
:100AF0000C910646404649460022002300F07CFE49
:100B000080F03A814800400D00F11C0210D0002A0C
:100B10000EDD0C98824205DB09F0004040EA0B0133
:100B2000002013E0A448084040EA025140460DE08E
:100B300029F00043002028F00002834208BF8242CF
:100B40000FBF40461C22404600F06EFE804689469C
:100B500000F008FFFF1F002F044609DD00F020FF12
:100B600002460B464046494600F02CFF8046894627
:100B7000F01D072104E004F00F0200F8012D2411FC
:100B8000002C01DD491EF6D5491E5CBF002200F88D
:100B9000012DF9D5ECE00020194602AA0A4400E034
:100BA0005B1E12F80149491E8442F9D00F2804D176
:100BB0000DF10900425C521C4254002904D50198F1
:100BC000001D02AE5B1C0190591E12D49DF8380026
:100BD0007218A0F13A04177830375FFA87F8B8F145
:100BE000390FC8BFA044491E02F80189F3D58DF81A
:100BF0003800286B002840F1B080591E2963ACE012
:100C0000404649460022002300F0DEFD019938BF2E
:100C100089F0004947F2975041436A4A91FBF2F24A
:100C20000192D2F1070204DD40464946FFF79BFEE0
:100C30000AE0524200206449FFF795FE02460B4647
:100C40004046494600F030FF8046662C286BDFF8AE
:100C50007CB106BF019F0A3706273F18142FC8BF73
:100C6000142730208DF8080089460DF1090000E0B6
:100C70003046002F34DD06464046494601F038F83C
:100C800001460A4606F1080304200A26B2FBF6F6DE
:100C900006EB860EA2EB4E02303203F8012C0A223C
:100CA000B6FBF2F202EB820EA6EB4E063036401E89
:100CB00003F8026DE9D1083F002F03F10806D7DDE4
:100CC000084601F029F802460B464046494600F026
:100CD00079FE00225B4600F06DFC80468946CBE73A
:100CE0000DF10901401A0DF1090604E00199491EB0
:100CF000401E0191761C31783029F7D0662C02D144
:100D00000199491C03E0652C0CBF012100212B6BCC
:100D1000CB189842B8BF431E002B1ED4834204DA7E
:100D2000F05C3528A8BF392000DA30201946721E41
:100D300002EB010800E05B1E18F80199491E81458D
:100D4000F9D0392802D1705C401C7054002904D5B8
:100D50000198401C16465B1C0190019800B200905F
:100D60001BB29DF838103246284600F034F82FE0C8
:100D7000C61D002F3FF7BEAE30460DF10901401AE7
:100D8000009903468842C8BF0B46002B0DF10906A7
:100D90003FF52FAF8342BFF6FEAE0DF10900C05CF8
:100DA00007287FF7F8AE0F20F6E60000CBCCCC0C7E
:100DB0000000244002FCFFFFFFFF0F800000E03F27
:100DC0000000F07FA08601000000F03F84D797412B
:100DD0000FB0BDE8F08F2DE9F84E83B006468B4684
:100DE00092461C4600F0E8F9002C406A376B90F8F8
:100DF000009002DC01240FF2DC2ABDF930504BF0E8
:100E00002000662808BF6D1C12D0672877D115F125
:100E1000040F7ADBBD4278DA96F838006D1C0107C2
:100E200002D4BC42B8BF27462DB27F1B48BF002763
:100E30002DB2F068B169002D22DC4A1C30234354E6
:100E4000002F03DC96F83800010703D5F06800F89E
:100E50000290521CEF42B8BF7D422DB2EF1968429A
:100E6000A742B8BF3C46B261706224B2F461F06838
:100E7000B36922465146184400F030FA3F1B18E08F
:100E80002A469442084416DA2246514600F026FAD1
:100E9000B0692018B0612C1B002F746203DC96F837
:100EA00038100A0705D5F16801F80090F069401C78
:100EB000F061B762A0E0514600F010FAB06928185E
:100EC000641B002F03DC96F838100A0703D5F1687D
:100ED00001F80090401CB06124B2A742B8BF3C4664
:100EE000F068B36924B222460AEB0501184400F009
:100EF000F5F9B0692018B0613C1B74627CE0BBF16D
:100F0000610F14D14FF0700B16E0BC4204DA96F872
:100F100038100A0758BF27467F1E48BF0027BBF17D
:100F2000670F14BF4FF0450B4FF0650B04E0BBF1AA
:100F3000410F08BF4FF0500BB169F368481CB06116
:100F4000002F1AF8012B5A5403DC96F838100A07C0
:100F500017D5F168431CB36101F80090002F10DD34
:100F6000641E24B2A742B8BF3C46F06824B22246B1
:100F70005146184400F0B2F9B0692018B0613F1B27
:100F80007762F068B1690844002D80F800B003D49E
:100F90002B214170811C03E02D2141706D42811C89
:100FA00000206A460AE02B460A2493FBF4F505EB81
:100FB0008504A3EB440302F8013B401C2DB2002D35
:100FC000F1DC012806DC4BF02002652A04BF302248
:100FD00001F8012B48B9302001F8010B07E0401E51
:100FE0001DF80020303201F8012B0028F7DCF068F2
:100FF000B2691044091AF16196F8380000F0140043
:1010000010280DD17169B0694118706A4118F069F2
:101010004118B06A4118706B8142BCBF411A3162FD
:1010200004B0BDE8F08EF8B505460E4617461C46DE
:10103000002074B117F8011BB068A847B06030B148
:10104000F06A401CF0620020641EF3D1F2BD4FF044
:10105000FF30F2BD7072696E74665F733A20256E60
:1010600020646973616C6C6F776564007072696E7F
:1010700074663A2062616420256E20617267756D26
:10108000656E74007072696E74665F733A20626197
:101090006420257320617267756D656E74000000B1
:1010A0007072696E74665F733A2062616420256CA9
:1010B0007320617267756D656E740000000000003A
:1010C000000000006E616E004E414E00696E6600C9
:1010D000494E46003000F0B4024610689568131877
:1010E000506803EB5004C00721D54D441FE0F0BC0D
:1010F00002F10C00704713F8017B05F8017B491ED3
:10110000F9D1A0B1B60813F8011B06F00306032EAF
:1011100008BF13F8016B01EB06214942801C2944EA
:1011200005D011F8016B05F8016B401EF9D1A342FF
:10113000DDD013F8016B16F0030104BF13F8011B97
:10114000C91C30090F28DAD113F8010B0F30D6E78C
:101150001B48704730B45368D418042B09DA41B1E6
:10116000057804F8015B10F8015B15B15B1C491EA2
:10117000F3E7536030BC704738B514461D4661B183
:10118000FFF7E8FF61686A6B204690476FF0010245
:10119000811A02D0491E03D005E06FF0010032BD74
:1011A0004FF0FF3032BD0021616032BDDA6B104775
:1011B000034BE1E7024BF9E70248704700000000EB
:1011C00048000020100000200278C9B28A421AB1FB
:1011D0001CBF10F8012FF9E718BF00207047B1F5C8
:1011E000807F02D34FF0FF307047017001207047BD
:1011F0000078401E8041C043C00F704780B508B9D9
:101200000FF21C0005490B681BB1222200219847F0
:1012100001E000F08EFD222002BD00001C03002032
:10122000636F6E73747261696E742068616E646C52
:1012300065723A20626164206D6573736167650051
:1012400000F10103810704D010F8011B89B1810767
:10125000FAD10268B2F10131914311F0803F04BF2D
:1012600050F8042FF6E710F8011B11B110F8011B1C
:10127000FBE7C01A70470000C9B2830706D0521EB0
:1012800022D310F8013B9942F7D11FE0083A13D35B
:1012900002F1040241EA012141EA014150F8043B14
:1012A000121F21BF4B40A3F1013C2CEA030C1CF0A0
:1012B000803FF3D0C9B2001F083210F8013B521E24
:1012C00028BF91EA030FF8D818BF0120401E7047CD
:1012D00080B5FFF73DFF006C02BD000062B38B07D5
:1012E00008D0521E11F8013B00F8013B00F02480A9
:1012F0008B07F6D1830740F0208000BF103A07D358
:1013000030B4B1E83810103AA0E83810F9D230BC47
:10131000530724BFB1E80810A0E8081044BF51F8F3
:10132000043B40F8043BD20724BF31F8022B20F8DD
:10133000022B44BF0B7803707047121F17D35B005A
:1013400009D151F8043B20F8023B1B0C121F20F876
:10135000023BF6D20BE051F8043B00F8013B1B0ABC
:1013600020F8023B1B0C121F00F8013BF3D238BFE0
:10137000121D521E24BF11F8013B00F8013BF8D8A2
:1013800070470000B3BBD9B1B2F5803F7DD2022ACD
:101390001ED98C46B1FBF2F102FB11C31B0443EAD8
:1013A0001043B3FBF2FC02FB1C3380B240EA034360
:1013B000B3FBF2F002FB103240EA0C40002370470E
:1013C000022A05D98446B0FBF2F002FB10C2704736
:1013D0004AB105D100F0010249085FEA30007047C8
:1013E00000220023704700F0A7BC0B000200002180
:1013F00000207047904271EB030CF6D3B3F5803FA9
:101400002FD2F0B5B3FA83F7B1FA81F4A7F10F0E3A
:101410003D1B5340CEF1200602FA0EF2F341534039
:10142000B5F10F0746D80F3C2C444140C4F12006CB
:10143000A040F1414140B1FBF3F603FB1611A2FBC2
:101440000645001BA94102D2761E8018594180EA48
:10145000010221FA0EF362FA0EF200215A403046E0
:10146000F0BD30B4B1FBF3FC03FB1C11A2FB0C4537
:10147000001BA94103D2ACF1010C8018594130BCCA
:1014800002460B46604600217047B2F1807F65D36B
:10149000F0B5B2FA82F7B1FA81F4C7F10F063D1B3D
:1014A00022FA06F307F1110EF24120355A40B5F148
:1014B0000F07B8D94140C4F12006A040F141414096
:1014C000B1FBF3FC03FB1C11A2FB0C45001BA94163
:1014D00003D2BCF1010C801859410F2F12D30F3FDA
:1014E000C90341EA5041B1FBF3F603FB1611A2FB1D
:1014F0000645D4EBC030A94102D2761E801859416E
:1015000046EACC3C07B34140C7F12006B840F14160
:101510004140B1FBF3F603FB1611A2FB0645001B8D
:10152000A94102D2761E8018594180EA010221FAAF
:101530000EF3C7F1200462FA0EF20CFA07F05A40DB
:101540002CFA04F13043F0BD80EA010221FA0EF3D7
:10155000002162FA0EF260465A40F0BD8C46B1FBA3
:10156000F2F102FB11C31B0243EA1063B3FBF2FC6E
:1015700002FB1C331B024CEA002043EA1063B3FB5E
:10158000F2FC02FB1C331B024CEA002043EA10630E
:10159000B3FBF2FC02FB1C331B024CEA002043EAC3
:1015A0001063B3FBF2FC02FB1C324CEA0020002368
:1015B00070470000B0B581EA030C0CF0004C40F21B
:1015C000FF7515EA11541DBF15EA1357AC42AF421F
:1015D00039E0E41923EA455343F48013C90241F08A
:1015E000004141EA505EC7021100A7FB0202002839
:1015F0004FF00000EEFB01204FF00001E3FB07215C
:1016000018BF42F00102401800214941E3FB0E01DE
:10161000A4F580640F0302D252004041494154F1C5
:1016200001046CDD470872F1004250F1000051EBFB
:101630000451A1F580115CBF41EA0C01B0BD4CEA38
:1016400005510020B0BD05EA1357AC4214BFAF42AC
:1016500041E050EA410E1CBF52EA430E02E06146EF
:101660000020B0BD24423C441BD15FEA070EF6D0F7
:10167000090302BF01460020AEF1140EB1FA81F752
:10168000AEEB070401FA07FE0C37C7F1200100FAA0
:1016900007F7C8404EEA000E23EA455343F480138F
:1016A000A2E733F00043B3FA83F704BFB2FA82FE35
:1016B00077440B3FE41BB7F1200E2FBF02FA0EF365
:1016C000BB40C7F1200E22FA0EFE38BF43EA0E03DC
:1016D000BA40641C82E750EA410E14BF52EA430E3E
:1016E0006FF000014FF4001717EB430F8ABF194644
:1016F00017EB410FB5E74CEA05510020B0BDD4F11E
:101700000104B4F120070FDAC4F12007520828BF02
:1017100042F0010210FA07F501FA07F7E1BF2A4388
:10172000E0403843E1400FE0352C98DCC7F120045D
:1017300052EA400220FA07F218BF42F0010231FAE1
:1017400007F0A1400A43002172F1004250F100006D
:1017500051EB0C01B0BD000010B5144600F002F8CA
:10176000226010BDC1F30A5343B14A0012F5001FB5
:1017700028D2A3F2FE32A1EB0251704750EA410C8D
:1017800020D001F0004C31EA0C01B1FA81F204BF23
:10179000B0FA80F3D2180B3AB2F120032CBF00FA52
:1017A00003F1914041EA0C013EBFC2F1200C20FA46
:1017B0000CF319439040524240F2FD33D21A01EB30
:1017C00003517047002270474FF4001C1CEB410F7F
:1017D00094BF1CEB430F09E041EA030C50EA4C0CA8
:1017E00052EA0C0C03D2994208BF9042704714BFD2
:1017F0008B428242704700004FF4001C1CEB410FEB
:1018000094BF1CEB430F09E041EA030C50EA4C0C77
:1018100052EA0C0C03D28B4208BF8242704714BFBD
:101820009942904270470000124254D440F2FF7C2B
:101830001CEA11530FD0634531D09B1863453CBF60
:1018400001EB0251704701F0004141EA0C510020C8
:10185000AFF30080704750EA410320D001F0004C04
:1018600091EA0C011CD0B1FA81F30B3B9A420DD9DD
:10187000D21A994051EA0C01C3F1200C20FA0CFC59
:1018800061449840531C40F2FF7CD7E7914041EA05
:101890000C01C2F1200C20FA0CF319439040704760
:1018A000B0FA80F31533202BE0D3202AEED3203A70
:1018B000203B9A4209D9D21A00FA03F141EA0C01FD
:1018C0000020531C40F2FF7CB8E700FA02F141EA25
:1018D0000C0100207047524240F2FF7C1CEA115379
:1018E0000DD06345DBD0B2EB030C3CBFA1EB025142
:1018F00070470CF1010221EA035141F4801150EAD2
:10190000410CCCD001F0004C352A27DC30B481EA00
:101910000C01B2F1200309DAC2F12003044601FAF6
:1019200003F5D0402843D1409C400CE0C3F1200295
:10193000450020FA03F418BF44F0010421FA03F033
:1019400091400C43002174F1004550F1000051EB2F
:101950000C01244230BC7FF47BAF7047614600200D
:1019600076E70000C1F30A5340F2FE329B1A14DD01
:10197000D3F120034FEAE17208DDC90241EA505178
:1019800041F00040D84080185040704703F2E130E9
:1019900010B1D24382F00040704700207047000031
:1019A000C11768B14840401AB0FA80F29040D21C8A
:1019B000C907C2F5846241EA025202EBD021400518
:1019C0007047000070B44FF0004591EA030F40F1FA
:1019D000B5816B40841A71EB030603D2001BB14141
:1019E000121973414FF4001C1CEB410F34BF7CEB08
:1019F000430442E00C0DA4EB1356352E4FDC45EAB0
:101A0000C323DB0A45EAC121C912B6F120050DDD69
:101A100063FA05F6EB4086EA0305124218BF45F06B
:101A20000105C01851F100010CD213E062FA06F56D
:101A3000F2405540F3415A40B340F3405A408018B9
:101A4000594107D349085FEA30005FEA350528BFEE
:101A500045F0010501F58011420875F1004250F191
:101A6000000041EB04514E0016F5001F70BC38BF5A
:101A700070470020090D090570471CEB410F10D27B
:101A800052EA43060BD0BCEB410F05D80C0DAB431B
:101A9000661E342EB6DD02E0AB438018594170BC9F
:101AA000704770BC70470000F0B540F2FF7581EAE6
:101AB000030C0CF0004C15EA11541DBF15EA135726
:101AC000AC42AF42E5E0BC41C1F31301C3F31303E1
:101AD000801A994143F4801304D2641E40004941A6
:101AE00080185941C90241EA5051B1FBF3F603FB9A
:101AF0001611A2FB0675D7EBC020A94102D2761EB3
:101B000080185941C90241EA5051B1FBF3FE03FB71
:101B10001E11A2FB0E75D7EBC020A94103D2AEF176
:101B2000010E80185941890241EA9051760546EA32
:101B30008E2EB1FBF3F603FB1611A2FB0675D7EB55
:101B40008020A94102D2761E80185941C90241EA7B
:101B500050514EEA060EB1FBF3F603FB1611A2FB41
:101B60000675D7EBC020A94102D2761E80185941D4
:101B7000C90241EA5051B1FBF3F703FB1711A2FB75
:101B80000735D3EBC020A94167F100070CBF004225
:101B900047F0010766F3D5274FEA1E31B80814F560
:101BA000806412DDBD0775F1004250EB0E5051EB21
:101BB000045111F5801F5CBF41EA0C01F0BD4CF0EF
:101BC0007F6141F0E0410020F0BDBD076D0840EAB3
:101BD0000E5041F48011D4F10104B4F120060ADA68
:101BE000C4F120060200E04001FA06F3E140184388
:101BF000B24015430EE0342C13DCC6F1200445EA54
:101C000040056D0820FA06F2154321FA06F0A140BE
:101C10000D43002175F1004250F1000051EB0C0121
:101C2000F0BD00205FEA0C01F0BDCFB992185B4116
:101C3000B3FA83F704BFB2FA82F6BF190B3FB7F1CC
:101C400020062FBF02FA06F3BB40C7F1200622FA96
:101C500006F638BF3343BA401CB1E419641E33E7BB
:101C60007F4231F00041B1FA81F404BFB0FA80F64E
:101C7000A4190B3CB4F120062FBF00FA06F1A140D5
:101C8000C4F1200620FA06F638BF3143A0403C1BC1
:101C90001AE7AC421ABF05EA1357AF4212E050EA06
:101CA00041061CBF52EA4306BFE750EA41073046EF
:101CB00061461CBF41EA0551F0BD52EA430C08BF22
:101CC000C143F0BD00204FF4001616EB410F98BF42
:101CD00016EB430F08BF16EB410F24BFC14305E0CD
:101CE00016EB430F0CBF61464CEA0551F0BD0000F6
:101CF000400D491840EA81200CD2490DA1F58061C0
:101D0000491C40F0004005DBD1F11F0154BFC84021
:101D1000C017704700207047014648B1B0FA80F103
:101D20008840C91CC1F58461090501EBD02140053B
:101D30007047012000F0B6B870470000841A71EBBC
:101D4000030604D26E40001BB141121973414FF4D7
:101D5000001C1CEB410F34BF7CEB430682E00C0DF2
:101D6000A4EB1356362E7BDC012E45EAC32341DC5F
:101D700043EA525312BFD20292025B08240545EA9D
:101D8000C12141EA5051D2EBC020994125D407D15D
:101D9000B0FA80F610FA06F162D00020203608E092
:101DA000B1FA81F6B140C6F1200220FA02F21143E5
:101DB000B0404FEAF474B4EB465434F001064FEAF5
:101DC00074040AD8D6F50016760D04F00044F040ED
:101DD00061FA06F25040F1404840C00A40EA4150E2
:101DE00021F0004128BF5FEA500550F1000044EBAC
:101DF000D12135E0DB0A45EAC121C90AB6F1200547
:101E00000EDD42EA0242120CC5F1200603FA06F684
:101E1000EB4042EA06056D42984161F100010DE098
:101E200062FA06F5F240554063FA06FC82EA0C02BB
:101E3000F3405A406D42904161EB030111F4801F61
:101E400005D1641E620502D06D004041494121F474
:101E50008011430875F1004350F1000041EB04513B
:101E600070BC70471CEB410F15D223F0004352EABF
:101E700043060BD04FEA4C0CBCEB410F04D80C0DC1
:101E8000661E342EB7DDEBE7801A994150EA410611
:101E900008BF0021E4E708BF1CEB430F28BF6FF029
:101EA0000001DDE780B500F007F8024A11001820B4
:101EB000ABBEFBE72600020010B500F052F80200AE
:101EC0000023DB4300241068984203D01100022055
:101ED000ABBE14605068984203D0111D0220ABBE07
:101EE000546010BDF0B583B0040000F03AF8A100D2
:101EF00047183D680026F643B54216D100F01AF89F
:101F00003D68B5420FD100BF09A00090002C01D15F
:101F1000002000E004200190032002906946012087
:101F2000ABBE05003D6000F014F8280003B0F0BD22
:101F30003A7474000C480121BFF35F8FD0E84F3F23
:101F4000C0E8421F002AF9D1BFF35F8F002BF3D105
:101F500070470548BFF35F8F00210170BFF35F8FAB
:101F600070470248704700002603002088010020C7
:101F7000603000EB8100006800F0F840704760308E
:101F800000EB8100016821F000410A4302607047C4
:101F9000C06800F44060401E8041C00F7047CB0D08
:101FA00010B5143003F004031818090D01F01F01D7
:101FB000036807248C40A34302FA01F1194301602E
:101FC00010BDF8B50025044600950CB90120F2BDFE
:101FD00004F15006706820B9204600F073FDB5602A
:101FE000357021688868800004D58A68DFF8340578
:101FF00002408A6021688868C00015D48A68DFF8CA
:102000002805024042F080528A60DFF82015DFF890
:1020100020250868B0FBF2F2009202E00098401E12
:10202000009000980028F9D120688168C90008D480
:10203000716841F0100171600125B16841F0010142
:10204000B16081687268D3067CD449077AD471681C
:1020500021F4807141F0020171608068C00710D4E2
:1020600000F077F8DFF8CC24126808431043C0076B
:1020700007D4DFF8C4140A68606822F47C120243B3
:102080000A6004F13002607E536894F8201043EA3D
:102090004033E0680343A0680343012943EA014356
:1020A00003D1606A401E43EA4043A06A20B1E16A5E
:1020B00000F47070084303432168DFF88004CF68A0
:1020C00007403B43CB6021688B6888685B0724D45A
:1020D000000722D4CB68DFF8680417780340207E1D
:1020E00043EA803343EA4703CB60107A01280FD1DB
:1020F00021680B69D0686FF38A03034310690343B7
:10210000506903439069034343F001030B6104E00A
:102110002068016949084900016120690128206897
:10212000016B05D1E2690909521E42EA011101E081
:10213000090909010163706820F0020040F0010004
:10214000706004E0706840F010007060012528465F
:10215000F2BDDFF86C07DFF86C170068096870479C
:10216000012121702846032100F0C6BBF8B500F01C
:10217000B5F804F01F0462D405F150063078012848
:102180005DD001213170284600F00AFC010053D1D6
:10219000726800F056F872602968DFF82C279142C7
:1021A00000D11CB9736823F4801373607368DF0473
:1021B00004D5B36823F00603B36001E00027B760DD
:1021C0001C230B600021317029684B6823F01C032D
:1021D0004B606969082929684B680CBF43F0080304
:1021E00043F004034B60696B21B929684B6843F0E5
:1021F00010034B602968914204D1002C1CBF052CB0
:10220000092C09D1CA68930101D500F020F82A6889
:10221000DFF81413936836E07368914243F4801337
:102220000CBFDFF8D02601F10C0273601268930135
:1022300006D500F00CF8F2BD00213170F2BD02208D
:10224000F2BDDFF818180A4042F4807270477268D5
:1022500022F4005242F4805272606A69082A08D15E
:102260004B6823F020034B6029684A6842F0400223
:1022700007E04A6822F040024A6029684A6842F052
:1022800020024A6070470B4043F004039360F2BDA4
:1022900038B500F014F801D1022032BDFFF760FF1D
:1022A000010009D12868416821F01C0141602846DD
:1022B00000F0AAFB00F009F80021217032BD0546AC
:1022C00005F15004207801287047010005D16168AC
:1022D00021F4885141F00101616070470546DFF843
:1022E0008007046829688868400770470068006CA8
:1022F00070472DE9F84F0646DFF83C9230680768D2
:102300004568D9F80040B80704F01F040ED5A807A7
:102310000CD5706DC10603D4706D40F4006070651B
:10232000304600F0EFFB3168022008607807DFF8E4
:102330009CA5DFF894B501D5680703D438073CD5D0
:1023400028073AD5706DC10603D4706D40F4007053
:1023500070653068FFF71CFE48B33068584504D1FB
:10236000002C1CBF052C092C01D1C16805E0584583
:102370000CBF514600F10C010968890417D40168AB
:102380000A0714D5816849070FD4416821F00C0170
:102390004160706D20F480707065706DC10406D46A
:1023A000706D40F00100706501E000F0CBF8304640
:1023B00000F069FC31680C200860B80601D5A80659
:1023C00003D478064CD568064AD5706DC10603D48F
:1023D000706D40F4005070653068C16C01F0C00150
:1023E000B1F1010868EB0808FFF7D2FD31685945E3
:1023F0004FEAD87804D1002C1CBF062C072C01D141
:10240000CA6805E0594518BF01F10C0ADAF8002046
:10241000B8F1000F04D193011CD4D8B1900419D4A1
:102420000868400616D5900214D4886800070FD4B7
:10243000486820F060004860706D20F4805070653E
:10244000706DC10506D4706D40F00100706501E04B
:1024500000F078F8304600F00BFD3168602008602D
:1024600038060BD5280609D5706D40F480307065AC
:10247000304600F0FEFC316880200860F8050CD57D
:10248000E8050AD5706D40F400307065304600F004
:10249000F1FC31684FF480700860B8050CD5A805D0
:1024A0000AD5706D40F480207065304600F0E3FC82
:1024B00031684FF400700860F8061CD5E8061AD59C
:1024C000706B50B12CB1D9F8000010F4604F04D1FA
:1024D0000EE03068C168C8070AD5706D40F48060AE
:1024E0007065B06D40F00200B065304600F0C4FC8D
:1024F000316810200860780512D5680510D5706D18
:1025000040F4804070654FF48061B06D40F0080089
:10251000B065306801603046BDE8F24F00F0ADBCF8
:10252000BDE8F18FC0FFFF5FC0FFFF7F0C00002000
:10253000400D0300080204500803045007C0F0FFD8
:10254000FDBFFFFF706D40F010007065B06D40F092
:102550000100B06570470000F8B50646002406F19A
:1025600050050F4600942978012901D10220F2BDBF
:102570000120287030688068400700F198817868F1
:10258000062811D2801E03280CD8DFE800F00204D0
:1025900006080C2007E0122005E0182003E04FF4A5
:1025A000807000E0062078607968326838688B09AE
:1025B000303203F00C039A1801F01F01D2F800C06A
:1025C0001F238B40C0F384602CEA030300FA01F15F
:1025D00019431160306882688168520721D4090765
:1025E0001FD4BA683968FFF7DAFC3068C1683A6905
:1025F000042A17D060303B6800EB820CC908DCF875
:102600000020DFF8600449000240786903F0F843D5
:1026100001F0060113438840034343F00043CCF824
:10262000003076E00021FFF7A3FC4003306821462C
:1026300004D1FFF79DFCC0F3846003E0FFF798FC32
:1026400000F046F939684A030EBFC1F3846191FA7C
:10265000A1F1B1FA81F1884204D130680022002151
:10266000FFF78DFC00F041F9400304D100F03DF983
:10267000C0F3846003E000F038F900F029F939680C
:102680004A030EBFC1F3846191FAA1F1B1FA81F15D
:10269000884204D1306800220121FFF770FC00F06D
:1026A00020F9400304D100F01CF9C0F3846003E07A
:1026B00000F017F900F00CF939684A030EBFC1F3B6
:1026C000846191FAA1F1B1FA81F1884204D13068B4
:1026D00000220221FFF753FC00F0FFF8400304D171
:1026E00000F0FBF8C0F3846003E000F0F6F800F0BF
:1026F000EFF839684A030EBFC1F3846191FAA1F182
:10270000B1FA81F1884204D1306800220321FFF739
:1027100036FC31688868C00774D4FA683B68D1F821
:10272000B0C0C3F312002CEA000CDFF83C0302F047
:102730001802D040034043EA0C03C1F8B030F868F7
:10274000DFF8281388425DD13A6850030EBFC2F308
:10275000846192FAA2F0B0FA80F1491C012001F0E4
:102760001F010A2924D2510304D1C2F384610B460C
:102770000A460BE092FAA2F1B1FA81F392FAA2F1C1
:1027800092FAA2F2B1FA81F1B2FA82F25B1C491C10
:102790009B0601F01F01521C03F0F84300FA01F1FF
:1027A00002F01F02194302EB420241EA025125E006
:1027B000510304D1C2F384610B460A460BE092FA3E
:1027C000A2F192FAA2F392FAA2F2B1FA81F1B3FA6B
:1027D00083F3B2FA82F2491C5B1C521C890603F097
:1027E0001F0302F01F0201F0F84198400A3A01432A
:1027F00002EB420241EA025141F00071BA683068CE
:10280000FFF7CDFB3B68DFF86802034254D0DFF8E6
:102810005002DFF860C20168DFF85C72DFF85C220A
:10282000634501F0E0711FD10B0245D43368934238
:1028300018BFBB4240D10268DFF8443222F0E07298
:10284000114341F4000101600C21DFF838020268F5
:10285000B2FBF3F34B430093009800281EBF00998E
:10286000491E0091F8D127E0DFF81CC263450DD165
:10287000CB0121D43368934218BFBB421CD10268FC
:1028800022F0E072114341F080710EE0DFF8FC713C
:10289000BB4211D14B020FD4336893420CD1026872
:1028A00022F0E072114341F48001016004E06868A5
:1028B00040F0200068600124002028702046F2BD0E
:1028C0000800045008010450000104500C0004509A
:1028D00090FAA0F0B0FA80F0704730680321FFF75B
:1028E00047BB30680221FFF743BB30680121FFF787
:1028F0003FBB00000C00045070B5044623689A6882
:102900009868520701D4000748D5D868604A850105
:102910000FD5607E012804BF257E012D09D101213C
:102920005C4800E0401E1D686E0634D40028F9D1D2
:1029300030E002290DD0206883685B0707D58368E3
:102940009B0704D48368134043F01003836001297C
:1029500013D0206883681B0707D583689B0704D4BE
:1029600083681A4042F020028260022903D00329C2
:1029700003D10C2502E0082500E0042500F07EFAD2
:10298000064620688168294208D000F077FA801B4B
:102990000628F6D32BE040201860CCE7002070BD5D
:1029A00070B5044621688868C0071ED488686FF334
:1029B0009E10C8B98868364D284040F001008860F4
:1029C00000F05CFA064620680168CA070DD48168E9
:1029D000C90704D48168294041F00101816000F0F9
:1029E0004DFA801B0328EED301E0002070BD00F0FB
:1029F00001F870BD606D40F010006065A06D40F0A2
:102A00000100A0650120704738B504462168886838
:102A10008A68D2071ED580071CD4886800F00D0094
:102A2000012814D18A681A48024042F002028A60E2
:102A300003212068016000F021FA054620688168C2
:102A4000C80707D500F01AFA401B0228F6D9FFF78D
:102A5000D1FF32BD002032BD00000000FEF1FFFFBB
:102A60000803045000F0FF03FFFF070000007F4051
:102A700000000880000052C700020450000004500B
:102A8000400D03000C000020000084CB01000080FA
:102A9000C0FFFF7F000040A3174881B0816841F06C
:102AA00001018160816801F00101009100990168D4
:102AB00041F080510160006800F080500090009863
:102AC00001B0704700680D49884200D0704780B55A
:102AD0000B48016841F4005101600022006800F4D5
:102AE0000050009000210098122000F0E9F9BDE8A4
:102AF0000240122000F001BA5810024000000450B9
:102B00004C1002407047000080B500F021FA00F040
:102B100011F800F068F86748FFF728FB08B100F0EB
:102B2000D1F80FF2A81000F029FA4FF47A7000F0F3
:102B300039FAF6E780B5B8B005A8442100F046FAA6
:102B40006846142100F042FA16A8882100F03EFAE7
:102B500001210B911020059060210D9100200C9017
:102B600001211091119102200F902821129107202C
:102B7000139002211491159105A800F02BFA08B1C9
:102B800000F0A0F80F200090032100200191029096
:102B9000039004900421684600F059FC08B100F04D
:102BA00091F84FF4804016904FF08051012017901B
:102BB0001890349110201990072102201B901C902E
:102BC0001A914FF080701D9016A800F067FD08B1B3
:102BD00000F078F84FF4007001F002F808B100F04E
:102BE00071F839B000BD30B589B006AA00230024C1
:102BF000002582E838006846182100F0E7F9002037
:102C00002C4C6060A060E0602061002104206061C5
:102C1000002020830120E061002084F82000A062D1
:102C2000E06204F13000244D0170416001722560C2
:102C30002046FFF7C6F908B100F044F800200690DE
:102C400006A9204600F0A6F808B100F03BF81B48A2
:102C500000900621019100207F2102900391042021
:102C600000210490059120466946FFF775FC08B1E4
:102C700000F028F87F21204600F044F808B100F069
:102C800021F809B030BD10B504460FF2540000F031
:102C900075F92046FFF72AFB0949064C08802046B3
:102CA000FFF7F6FA2046FFF761FA10B1BDE81040D1
:102CB00008E010BD1002002000000450000052C7C0
:102CC000240300200FF22C0000F058B952756E6EEC
:102CD000696E6720696E206D61696E210A000000CF
:102CE000436F6E7643706C7443616C6C6261636BAE
:102CF0000A0000004572726F725F48616E646C6515
:102D0000720A00007CB50546002005F150040E460D
:102D100000902178012901D1022076BD0120207088
:102D200000F035F80100606824D120F4885040F0AC
:102D30000200606006F080462A68DFF80C019368A4
:102D400003401E4346F0004696602A689068C00F14
:102D500017D00098401C00900098B0F5912FF5D343
:102D6000616821F0020141F01001616000202070D3
:102D7000012076BD40F010006060002222700846FD
:102D800076BD606820F0020040F00100F4E72846BC
:102D9000FFF73ABE2DE9F84100F1500400222378F4
:102DA000012B08BF02204CD00125257003682B4D54
:102DB000AB422AD12A4FDFF8ACE03B68DEF8005086
:102DC0006D0738D45B0736D40B68274DDFF89CC0FD
:102DD000214EFBB1336890F8300023F460484B6813
:102DE00043EA080343EA40303060DEF800003B6805
:102DF000DCF8007018433843C0071FD43068054022
:102E0000086805438868054313E000F01FF8227046
:102E1000012016E0306820F460403060DEF80000E9
:102E20003968DCF8003008431843C00706D430681E
:102E30000540356002E000F009F801220020207012
:102E40001046BDE8F2810000C0FFFF3F606840F01F
:102E50002000606070470000080304500000045028
:102E60000801045008000450E0F0FFFF080204507D
:102E70007047704770477047704770470148006857
:102E8000704700BF000000200901020081B002D499
:102E90002948815405E0294802F00F02104400F847
:102EA000041C01B07047264A13684FF6FF01000268
:102EB0000B4000F4E060184322490843106070475B
:102EC00038B51F4B1C68C4F30223C3F10704052C5B
:102ED00028BF04241D1D072D34BF0023DB1E012540
:102EE00005FA04F4641E2140994005FA03F35B1EC1
:102EF0001A401143BDE83440C6E7002807D4012238
:102F000000F01F01104B8A40400943F82020704711
:102F100010B5401EB0F1807F01D3012010BD0B4CD5
:102F200060600F214FF0FF30FFF7AEFF0022A2607C
:102F300007202060002010BD00E400E018ED00E054
:102F40000CED00E00000FA0500E100E010E000E018
:102F5000094810B5016841F4807101600320FFF752
:102F6000A2FF002000F076FE0024002814BF0124F8
:102F7000FFF792FD204610BD002002400EB4C0B500
:102F8000024603A800210190009101AB01210448F1
:102F900078440C30FDF7F8F806BC5DF810FB00BF74
:102FA000E315000038B50446FFF768FF14F1010F80
:102FB000054602D0044988680419FFF75FFF401BEB
:102FC000A042FAD331BD00BF00000020002200F073
:102FD00063BE00002DE9FC4704001AD0DFF88476B8
:102FE000DFF89056B86800F00C08F86800F00309A4
:102FF0002078C1065BD5B8F1000F05D0B8F10C0FF1
:1030000008BFB9F1010F2ED13868810703D5A06937
:10301000002800F04481396808074EBF39686968A4
:103020000909206A01F0F001814206D200F0DEFABF
:10303000002808D100F0F9F907E000F0F6F9206A5D
:1030400000F0D4FA002840F02A8100F086FABA682D
:1030500000F079FADFF81406006800F0FBFD0100CB
:1030600000F02181DFE1A069C0B1396841F00101C0
:103070003960FFF703FF06463868810700F11181C8
:10308000FFF7FCFE801B0328F6D30320CBE1FFF7FC
:10309000F5FE801B0328C0F04181F6E73868400840
:1030A00040003860FFF7EAFE06463968880740F1BD
:1030B000FA80FFF7E3FE801B0328F6D3E5E760689C
:1030C000B0F5803F06D0B0F5A02F396807D141F4A4
:1030D00080213960386840F48030386006E021F49F
:1030E000803139603A6822F480223A60606860B1C9
:1030F000FFF7C4FE06463968880300F1E780FFF752
:10310000BDFE801B6528F6D3BFE7FFF7B7FE064676
:103110003868810340F1DA80FFF7B0FE801B652834
:10312000F6D3B2E7E06880B1396841F48071396064
:10313000FFF7A4FE06463868410500F11E81FFF73F
:103140009DFE801B0328F6D39FE7386820F480702B
:103150003860FFF793FE06463968480540F1D08095
:10316000FFF78CFE801B0328F6D38EE768684008C3
:1031700040006860FFF782FE06466868810740F1FC
:10318000D180FFF77BFE801B0328F6D37DE705285F
:10319000286806D140F004002860296841F0010148
:1031A00005E0400840002860296821F004012960FA
:1031B000A06841F2893968B1FFF760FE824629684C
:1031C000880700F1EB80FFF759FEA0EB0A004845A5
:1031D000F5D35AE7FFF752FE82462868810740F18F
:1031E000DD80FFF74BFEA0EB0A004845F5D34CE726
:1031F000FFF744FE801B0328C0F0E58045E7FFF79A
:103200003DFE801B0328C0F009813EE7396811F0BC
:10321000205F03D1F86880088000F860F968DFF863
:1032200058040140F960FFF729FE0646386881011D
:1032300040F1F880FFF722FE801B0328F6D324E735
:1032400001282CD0F868E26A00F00301914201BF26
:1032500000F07001226B521EB1EB021F1FD1626B96
:1032600000F4FE41B1EB022F19D1A16B07290CBF6D
:103270000021012100F400328A4210D1E26B520891
:1032800000F4C001521EB1EB425F08D1216C490825
:1032900000F0C060491EB0EB416F00F0C380012018
:1032A000C1E000F0C2F82078C1070FD5B8F1080FCF
:1032B00006D0B8F10C0F08BFB9F1030F7FF4FFAED1
:1032C0003868810302D560680028E8D02178880733
:1032D00016D5B8F1040F06D0B8F10C0F08BFB9F13C
:1032E000020F7FF41FAF3868410502D5E06800285F
:1032F000D5D07968206921F0F85141EA0061796000
:10330000217808070ED5606900283FF42FAF69685F
:1033100041F001016960FFF7B1FD06466868810769
:103320007FF5B5AE217848073DD5B86D0026C100C0
:1033300009D4B86D40F08050B8650126B86D00F032
:10334000805000900098DFF83493D9F80010C80539
:103350001BD4D9F8000040F48070C9F80000FFF7D2
:103360008DFD8246D9F80010C8050ED4FFF786FD02
:10337000A0EB0A000328F5D387E67868216920F0DE
:10338000F85040EA01607860BAE7A06801287FF44D
:10339000FEAE286840F00100286009E71EB1B86D54
:1033A00020F08050B865A06AE0B3B8F10C0F3FF48C
:1033B00047AF0228386820F0807038607FF426AF6D
:1033C000FFF75CFD0646396888013FF511AFF968E3
:1033D000DFF8AC02E26B0140E06A0143206B401E63
:1033E00041EA0011606B520841EA0021206C521E34
:1033F000400841EA4251401E41EA4061A06B000989
:1034000041EA4041F960386840F080703860F968FE
:1034100041F08071F960FFF731FD0646386881019F
:103420007FF5EDAE0020BDE8F687386840F0080073
:1034300038603968206A21F0F0010143396078680A
:10344000E16920F47F4040EA0120786070472DE96F
:10345000F843040088466AD0DFF82862306800F03C
:103460000700404502D200F064F860D12178DFF80F
:10347000F451C8074AD56068032802D129688A0137
:1034800007E0022802D129688A0302E018B92968F6
:103490008A0703D44BE02A68510548D5A9688908F2
:1034A00040EA8100A86041F28939FFF7E7FC07464E
:1034B000A868616800F00C00B0EB810F26D0FFF720
:1034C000DDFCC01B4845F3D303201DE020784107F5
:1034D00005D5A968E06821F4E0610143A96020787E
:1034E000010706D5A868216920F4605040EAC100B0
:1034F000A86000F032F8AA6800F025F8BDE8F243B1
:103500005A48006800F0A6BBBDE8F283217888071E
:1035100005D5A968A06821F0F0010143A9603068D1
:1035200000F007008045D1D200F003F8CED0012092
:10353000EAE73168C90848EAC1013160306800F043
:103540000700404570475049C2F30312895C464A60
:1035500001F01F01C8401060704770B5414A4B4BE5
:103560009068D6680025002110F00C0006F00306D4
:10357000474C03D00C2812D1012E1AD115682E0702
:1035800004D43B4D2E68C6F3032502E01568C5F34D
:103590000315404E56F8255048B9294624E0042822
:1035A00008BF214620D008281ED119461CE00C284F
:1035B0001AD1D06800F00300022803D0032808BF06
:1035C0001D4600E02546D168D068D268C0F30620C9
:1035D0004543C1F30210C2F34161401C491CB5FBD5
:1035E000F0F04900B0FBF1F1084670BD7CB52A4E01
:1035F000054630680024C10002D500F0EBFA0EE069
:10360000306840F080503060316801F080510091A6
:10361000009800F0DFFA316821F080513160B0F598
:10362000007F04D1802D0CD9A12D09D304E0802D79
:1036300088BF032405D801D1022402E0702D00D1F7
:10364000012410480168C90844EAC101016000680A
:1036500000F00700A04201D0012076BD002076BD19
:1036600000000000001002400C00002004000020B8
:103670009410024090100240FFFFEEFE00700040E8
:103680008C809DF9002002407442000800127A00EC
:103690000024F40084420008581002402DE9FC4741
:1036A000054600242868DFF810640105A14621D5ED
:1036B000686E70B1B0F5800F17D0B0F5000F03D071
:1036C000B0F5400F09D013E0326842F48032326026
:1036D00004E0002100F07EF9044654B9F16F686EF1
:1036E00021F440010143F16704E000F06DF9F3E7D4
:1036F0000124A1462868C10421D5A86EA8B1B0F163
:10370000807F17D0B0F1007F03D0B0F1407F04D0AC
:1037100013E0306840F4803030607CB9F16FA86EFF
:1037200021F040710143F16709E0002100F052F9F6
:103730000446F2E700F048F9FAE70124A1462868B8
:1037400081032BD5F06CC1004FF000080AD4F06C57
:1037500040F08050F0644FF00108F06C00F08050B1
:1037600000900098DFF80C74396841F4807139607A
:10377000FFF784FB82463868C10500F1EF80FFF750
:103780007DFBA0EB0A000328F5D30324A146B8F182
:10379000000F03D0F06C20F08050F0642978C80747
:1037A00005D5F16FA86B890840EA8101F167287897
:1037B000810705D5F16FE86B21F00C010143F1673A
:1037C0002878410705D5F16F286C21F030010143BD
:1037D000F1672878010705D5F16F686C21F0C00109
:1037E0000143F1672878C10605D5F16FA86C21F473
:1037F00040710143F1672878810605D5F16FE86CC7
:1038000021F440610143F1672868810505D5F16F16
:10381000E86D21F440210143F1672868410505D591
:10382000F16F286E21F440110143F16728784106B9
:1038300005D5F16F286D21F440510143F1672878D7
:10384000010605D5F16F686D21F440410143F16730
:103850002868C10505D5F16FA86D21F440310143F9
:10386000F167286881041BD5F16FE86E00F0A2F8BB
:10387000E86EB0F1006F0BD100F0A1F810E0FFF797
:10388000FDFA001B5045C0F089804FF003097EE728
:10389000B0F1806F04D100F09CF8010018BF8146A0
:1038A0002868010312D5F16F286F00F083F8286FA4
:1038B000B0F1006F02D100F082F807E0B0F1806F44
:1038C00004D100F086F8010018BF81462868410342
:1038D00012D5F16F686F00F06DF8686FB0F1006F8E
:1038E00002D100F06CF807E0B0F1806F04D100F075
:1038F00070F8010018BF81462868410418D5F16F9F
:10390000A86F21F040510143F167A86FB0F1805FCB
:1039100003D1022100F05EF807E0B0F1005F07D1AB
:10392000022105F1200000F0C9F8010018BF81460E
:103930002868010405D5F16FE86F21F0804101434B
:10394000F1672868C10306D5F16FD5F8800021F032
:1039500000410143F1674846BDE8F687002C7FF43B
:1039600015AFDFF85C72386810F440701CBFD5F8F2
:10397000841088420BD03868396841F4803139604E
:1039800020F440703A6822F480323A603860C00710
:1039900008D5FFF773FA044641F2893A386881077F
:1039A0007FF56DAF3968D5F8840021F4407101438B
:1039B0003960ECE621F040610143F16770473068FF
:1039C00040F4801030607047002105F1200000F0C5
:1039D00075B80121281DFFE72DE9F04100F0E4F85A
:1039E00009D0F16801F0030181422BD150B300F0FE
:1039F000C3F80CD026E0012804D023D303281BD021
:103A000016D31FE031688A071CD500F0C3F8306870
:103A100020F0806000F0D1F880463168080135D58B
:103A2000FFF72CFAA0EB08000328F6D3032538E0B3
:103A300031684A05E9D405E032689103E5D431687C
:103A40004A03E2D401252CE0012C326909D15E48F9
:103A500002403869400842EA0121401E41EA4051D3
:103A600004E05A480240786900F08DF8316130680E
:103A700040F0806000F0A1F80446316808010CD4E1
:103A8000FFF7FCF9001B0328F7D3CFE7B968002C38
:103A9000DAD1326900F006F8E8E73169B869014324
:103AA000316163E04A480240F86842EA01210009B6
:103AB00041EA4041704700000C1002402DE9F041FE
:103AC00000F072F809D0F16801F0030181422BD1B6
:103AD00050B300F051F80CD026E0012804D023D3D5
:103AE00003281BD016D31FE031688A071CD500F0CD
:103AF00051F8306820F0805000F05FF8804631685F
:103B0000880028D5FFF7BAF9A0EB08000328F6D300
:103B100003252BE031684A05E9D405E032689103BA
:103B2000E5D431684A03E2D401251FE0274802406A
:103B3000386900F028F87161306840F0805000F07A
:103B40003CF80446316888000CD4FFF797F9001B55
:103B50000328F7D3DCE7B9687269002CE6D1FFF7D8
:103B6000A1FFE8E771697869014371612846BDE802
:103B7000F081000000700040F0687968C0F3021026
:103B8000401C88427047400842EA0121401E41EA39
:103B900040617047F1687A6821F073010843521E52
:103BA00040EA0210F06070470746064E38680C463F
:103BB000F168002511F0030F70473060FFF75EB920
:103BC0009010024000100240FF809FFFFF80FFF92D
:103BD000FF80FDFFDFF87000006800F4C0607047F0
:103BE00010B5DFF86410B0F5007F086800F4C0601D
:103BF0001AD1B0F5007F20D00A68DFF85030DFF826
:103C0000504022F4C06242F400720A6032201A6806
:103C10004243B2FBF4F0401C4A6953050FD500281B
:103C200018BF401EF8D10AE0B0F5806F05D00A68D1
:103C300022F4C06242F480620A60002010BD48692C
:103C40004105FAD5032010BD007000400C00002093
:103C500040420F0070B50E4E0446B0680025A0B17A
:103C60004FF47A71B1FBF0F00A490A68B2FBF0F048
:103C7000FFF74EF948B9102C07D2002221464FF029
:103C8000FF30FFF71DF9746000E00125284670BD84
:103C9000000000200C00002000B500BF1300964675
:103CA0009446103928BFA0E80C50FAD85FEA417C4E
:103CB00028BF0CC048BF40F8042BC90728BF20F814
:103CC000022B48BF00F8012B00BD000010B50446D0
:103CD000AFF30080204600F005F80446AFF3008003
:103CE000204610BD7CB500F10F06F608F600B04284
:103CF00040D2082E04D2082602E0083000F047F82F
:103D0000DFF804512C68210005D1002007E002688B
:103D1000B24221D2011D08680028F8D12068291D6F
:103D20000A68824222D01368B34238BF111DF7D30C
:103D300012E093190B60801B54685C600B6818607C
:103D40001660096800291DBF48680028081D00206A
:103D5000286002F1080076BD61B10A681068A0F120
:103D60000803B342E5D250680860EAE700F04EF875
:103D70000028C2D1002076BD10B5040006D0AFF3F4
:103D80000080204600F003F8AFF3008010BD00284B
:103D900000D1704750B4A0F108021368072B2BD94B
:103DA00013F0070F28D1184C616809B18A4202D27A
:103DB0005160626013E0486800B3904238BF01462A
:103DC000F9D31BE0964203D11B180B600A4606E0AC
:103DD000486810B1134498420ED350604A6050684E
:103DE00050B11368D118814206D1002121600168C9
:103DF000CB1813604068506050BC704708680E18BC
:103E0000B242DFD250BC7047140300200749086853
:103E100008B1002070470648C008C0000860054986
:103E2000C908C900091A0160704700BF20030020BB
:103E30002F070020280900202DE9F0410746884679
:103E4000387810F0030F16461D4633D0384600F080
:103E500099F878BBB8F1000F1CBFD8E900018619AA
:103E6000012D2ED13888C10415D5396A07F14402D5
:103E7000384600F0A3F83A6B044602B93A69F9688B
:103E8000384600F09BF8361B341A7A69F9683846D0
:103E900000F094F8261A1EB94DB916F1010F09D099
:103EA00097F903002A46314600F08EF8064616F1CF
:103EB000010F09D12320AFF300804FF0FF30BDE8A0
:103EC000F081022DE8D1EBE7388810F4405F0ED086
:103ED0007868F86038617861B8617868F86107F1EE
:103EE0004400386207F13000786200203863B8F18E
:103EF000000F05D0D8E9020107F13402C2E9000140
:103F000039884CF6FF60014039800020BDE8F0811F
:103F100070B50546AFF300802888810415D56E681A
:103F20000024EA6895F903003146914212D2521AF0
:103F300000F06FF810F1010F1CBF00283618F0D107
:103F40000FE04DF6FF70014029802846AFF3008056
:103F5000002070BD0022002100F05BF810F1010F7D
:103F600000D101246868E860A861E861002C298814
:103F7000E7D041F4007129802846AFF300804FF06C
:103F8000FF3070BDF8B5A0B9AFF3008000250A4E30
:103F900008244FF0FF37306820B1FFF7B9FF002841
:103FA00048BF3D46361D641EF5D1AFF3008028465C
:103FB000F2BDBDE8F240ABE768010020914234BF9A
:103FC000511A0021084670473EB504000D00012A31
:103FD00002D100F06BF807E0022A07D1009400201C
:103FE000019069460C20ABBE2D1801E0002A0CD1CF
:103FF0000094019569460A20ABBE002805D1002235
:104000002100280000F02FF801E00020C04303B099
:1040100030BD80B5002802D400F06AF802BD00204F
:1040200002BD000010B4314A002113461C688442CE
:104030001EBF491C9C6884421EBF491C1C698442E7
:1040400009D09C69491C844205D0491C20331029A1
:10405000ECD310BC7047002342F8313002EBC101B1
:104060004B6010BC704778B4204C002325462E6866
:104070008E421EBF5B1CAE688E421EBF5B1C2E694B
:104080008E4209D0AE695B1C8E4205D05B1C203588
:10409000102BECD372BC7047054604EBC303012A16
:1040A00004BF59684D195D6072BC704710B40F4A67
:1040B000002113461C6884421EBF491C9C68844230
:1040C0001EBF491C1C6984420AD09C69491C844259
:1040D00006D0491C20331029ECD310BC00207047B7
:1040E00002EBC100406810BC704700009001002046
:1040F00080B5002901D1002002BD012801D002288D
:1041000002D100F004F802BD00F011F802BD30B594
:1041100083B00C0015000120FDF7E4FE009001942F
:10412000029569460520ABBE281A03B030BD18B50C
:1041300083B00300140000930191029469460520A6
:10414000ABBE01221900201AFFF78DFF04B010BD8D
:1041500010B50446E068A169884251D3218849F22C
:1041600002020A40022A08D008044CBF4FF4007033
:104170004FF48440014321803BE001F4C041B1F59C
:10418000C04F06D1A168884203D32046FFF7FAFE4C
:1041900078BB208810F4406F02BF606804F14401CE
:1041A000884217D14FF40070FFF790FD606030B97E
:1041B00004F144006060E060401CA0600AE02188D7
:1041C00041F040012180E060606100F500726068AC
:1041D000A260E06160682061A068A061207841076A
:1041E0000AD502220021204600F00CF810F1010F40
:1041F00002D14FF0FF3010BD208840F4C040208035
:10420000002010BD70B504460D461646AFF3008081
:1042100033462A4600212046FFF70EFE054620467B
:10422000AFF30080284670BD0E48016841F470016C
:10423000016000220C49086840F0010008608A60B3
:104240000A480A6802400A604FF48050C8600022A1
:10425000086820F4802008608A614FF000600449FB
:104260000860704788ED00E000100240FFFFF6EAAA
:1042700008ED00E00000000000000000010203045F
:1042800006070809A0860100400D0300801A0600F9
:1042900000350C0040420F0080841E0000093D00E4
:1042A00000127A000024F40000366E010048E80194
:1042B000006CDC0238B504000ED0207810F0030F3B
:1042C00003D094F90300002809D5AFF300802046FD
:1042D00000F030F8AFF300804FF0FF3032BD2046E1
:1042E000FFF750FE0546AFF300802078410644BF3B
:1042F000606800F05DF80020606094F90300022817
:1043000004D900F057F808B14FF0FF35E06B48B121
:1043100000F05CF808B14FF0FF35E06B00F048F8B2
:104320000020E063204600F005F8AFF30080284647
:1043300032BD000001780A0626D51C4A1368002108
:10434000834203D1002342F821301BE0536801214E
:1043500083421EBF022193688342F3D0D3680321B6
:1043600083421EBF042113698342EBD053690521A8
:1043700083421EBF0621936983421EBF0721D36972
:104380008342DFD000F014B8002101804FF0FF31EC
:10439000C17000F144014160C1600161416181610E
:1043A000C161016200F13001416270476801002083
:1043B000FFF7E2BC1CB50200009269460220ABBECA
:1043C00004001000FFF72EFE200016BDE0B500909F
:1043D000FCF736FF019069460E20ABBE03B000BD6E
:1043E00038B50C46C5B22046AFF30080E068A1693D
:1043F000884204D32046FFF7ABFE00280FD4E068C4
:10440000401CE06000F8015D2088010503D44005F0
:104410000BD50A2D09D12046FFF7B4FD28B120465F
:10442000AFF300804FF0FF3032BD2046AFF3008085
:10443000284632BD19E050F8042BD30744BFA9F138
:1044400001039A18091F0023042942F8043BF9D2FA
:104450005FEA817C134604D54FF0000CA2F800C03F
:104460009B1CC90744BF0021197050F8041B002988
:10447000E1D1704738B50D4D0824286800281CBFCD
:10448000017811F0030F05D090F90310002958BFEF
:10449000FFF710FF2D1D641EEFD1BDE8384000224C
:1044A00000214FF0FF30FFF7B4BD00BF68010020CE
:1044B00010B5074979441831064C7C44163404E0A1
:1044C0000A68081D114488470146A142F8D110BD71
:1044D0002C000000480000004EF68851CEF200018A
:1044E000086840F470000860BFF34F8FBFF36F8F10
:1044F0004FF00070E1EE100A7047000039FFFFFF37
:10450000980100009001002000000000CBCBFFFFCD
:10451000F80100001A010000000000207047FEE7CB
:10452000FEE7FEE7FEE770477047704700F006B809
:104530000148FDF7DEBE00001002002002490A68B3
:10454000886882180A6070470000002000F00DF8AB
:10455000002801D0FFF7ACFFAFF300800020AFF3DD
:104560000080FEF7D1FA00F002F80120704700F059
:1045700001B800000746FFF77DFF3846FDF792FCC3
:10458000FBE738B504460D46284600F005F8A8427A
:1045900018BF0024204632BD0149FFF721BF00BFEC
:1045A000D800002001488047014800472942000800
:1045B000B5450008AFF30080FFF78EFFFFF7C6FF99
:1045C00000002E004300FFF7FEBFFFF7FEBFFFF71E
:1045D000FEBFFFF7FEBFFFF7FEBFFFF7FEBFFFF70F
:1045E000FEBFFFF7FEBFFFF7FEBFFFF7FEBFFFF7FF
:1045F000FEBFFFF7FEBFFFF7FEBFFFF7FEBFFFF7EF
:10460000FEBFFFF7FEBFFFF7FEBFFFF7FEBFFFF7DE
:10461000FEBFFFF7FEBFFFF7FEBFFFF7FEBFFFF7CE
:10462000FEBFFFF7FEBFFFF7FEBFFFF7FEBFFFF7BE
:10463000FEBFFFF7FEBFFFF7FEBFFFF7FEBFFFF7AE
:10464000FEBFFFF7FEBFFFF7FEBFFFF7FEBFFFF79E
:10465000FEBFFFF7FEBFFFF7FEBFFFF7FEBFFFF78E
:10466000FEBFFFF7FEBFFFF7FEBFFFF7FEBFFFF77E
:10467000FEBFFFF7FEBFFFF7FEBFFFF7FEBFFFF76E
:10468000FEBFFFF7FEBFFFF7FEBFFFF7FEBFFFF75E
:10469000FEBFFFF7FEBFFFF7FEBFFFF7FEBFFFF74E
:1046A000FEBFFFF7FEBFFFF7FEBFFFF7FEBFFFF73E
:1046B000FEBFFFF7FEBFFFF7FEBFFFF7FEBFFFF72E
:1046C000FEBFFFF7FEBFFFF7FEBFFFF7FEBFFFF71E
:1046D000FEBFFFF7FEBFFFF7FEBFFFF7FEBFFFF70E
:1046E000FEBFFFF7FEBFFFF7FEBFFFF7FEBFFFF7FE
:1046F000FEBFFFF7FEBFFFF7FEBFFFF7FEBFFFF7EE
:10470000FEBFFFF7FEBF00001200011210052201DC
:1047100009F00507093D00C04500080452FF01F2F9
:1047200000C21410010000C40C2144114CF31620E7
:1047300000012002F11100082C43DF113C2101107F
:104740000301040000D44412D50452D404211BA157
:1047500008F212C064200A02040101C402002014FD
:1047600003002008210421346108F004121C010018
:104770002008014850020802027440527404213497
:104780006108126444F21250481290B412D804F234
:0547900006202C655C11
:04000005080045B5F5
:00000001FF
