:020000040800F2
:10000000F0110020D53700084137000843370008B9
:10001000453700084737000849370008000000004E
:100020000000000000000000000000008135000812
:100030004B37000800000000293500086D34000827
:10004000F9370008FD3700080138000805380008B6
:10005000093800080D380008113800081538000864
:10006000193800081D380008213800082538000814
:10007000293800082D3800083138000835380008C4
:10008000393800083D380008413800084538000874
:10009000493800084D380008513800085538000824
:1000A000593800085D3800086138000865380008D4
:1000B000693800086D380008713800087538000884
:1000C000793800087D380008813800088538000834
:1000D000893800088D3800084D370008913800082D
:1000E00095380008993800089D380008A1380008A4
:1000F000A5380008A9380008AD380008B138000854
:10010000B5380008B9380008BD380008C138000803
:10011000C5380008C938000853370008CD38000832
:10012000D1380008D5380008D9380008DD38000873
:10013000E1380008E5380008E9380008ED38000823
:10014000F1380008F5380008F9380008FD380008D3
:100150000139000805390008093900080D3900087F
:100160001139000815390008193900081D3900082F
:10017000213900082539000829390008000000004D
:100180002D3900083139000838B5040009D004F1D0
:100190007005686808B900F01EF800F021F8012821
:1001A00001D1012032BD606A08B100F02AF800F0E8
:1001B0000AF821F02A01FFE7816000F01BF8BDE892
:1001C000324000F030BB2068416821F4904141602A
:1001D00020688168704700212970204600F0FFBB2D
:1001E00024206860206801684908490001602046B1
:1001F00000F05CB92068016841F00101016020460F
:100200007047204600F0ACBA2DE9FC47054605F1E1
:1002100070048846606820281746994643D1B8F193
:10022000000F14BF002F01203ED0207801283AD0C3
:100230000121217005F150060021E160212060605C
:1002400000F00CFC378077808246A968B1F5805FAA
:1002500004BF286900281ABF404600274746804649
:100260000DE02868B8F1000F12BF18F8011B37F82D
:10027000021BC1F3080101857088411E718053463D
:100280007088CDF80090002810D0002280212846E8
:1002900000F0F6FA0028E4D0032005E0202060609A
:1002A0000020207000E00220BDE8F68700224021F7
:1002B000284600F0E5FA0028F0D0EDE730B500F16F
:1002C00058031C6A202C45D109B1140001D101202A
:1002D00030BD1C7E012C3DD001251D7641651A8064
:1002E0005A8000219960FF228168B1F5805F04D1B6
:1002F000016961B940F2FF1209E011B9016929B938
:1003000005E0B1F1805F06D1016911B97F229A80C1
:1003100003E03F2100E00021998000215962222161
:10032000196201688A6842F001028A608268B2F547
:10033000805F04BF0169002907BFDFF8E0239A60EE
:10034000DFF8DC139960002119760068016841F438
:10035000907101E0022030BD0160002030BD38B551
:1003600004462568E9692A68AB6811F00F000AD1D4
:1003700088066DD590066BD5216E002967D0204682
:10038000BDE834400847D80702D412F4907F5FD00C
:10039000C80707D5D00505D501202862E06F40F0D9
:1003A0000100E067880708D5D80706D52568022030
:1003B0002862E06F40F00400E067480708D5D807DE
:1003C00006D5256804202862E06F40F00200E0674F
:1003D00008070AD5900601D4D80706D52368082057
:1003E0001862E06F40F00800E067E06F002856D028
:1003F000890605D5900603D5216E09B120468847A8
:10040000E06F21688A68510601D400071AD520469A
:1004100000F069FA206881684A060ED500F040F8BD
:1004200058B10FF2E1418163E06E00F01DFBB0B303
:10043000E06E816BBDE8344008472046BDE832409D
:1004400000F037BB204600F034FB0020E06731BDF0
:10045000C80209D5580207D54FF4801028622046FB
:10046000BDE8324000F026BB080607D5100605D5CA
:10047000616EA1B12046BDE83440084748060ED55C
:1004800050060CD5286820F04000286020216167C4
:10049000002060662046BDE8324000F00CBB31BD54
:1004A000816821F040018160E06E70472DE9FC41D8
:1004B00004469C4821689C4F0A680240A068024399
:1004C0002069024360690243E06902430A60002632
:1004D0004A68E06822F4405202434A600025A3695A
:1004E000924A91421CBF206A0343886820F430601E
:1004F00003438B60B9428E488E4B21D11B6803F0B9
:100500000303032B29D8DFE803F0025F50710127B2
:10051000E169B1F5004F4FF6F07840F0D08067B157
:10052000012F00F0A680022F00F0A680042F00F01B
:10053000A880082F00F0AE80B4E000F0C9FDA2E072
:100540007D4FB94223D11B6813F00C035FD0042BFD
:100550003AD0082B29D00C2B48D010279142D7D164
:10056000390006D0022F09D0042F52D0082F53D0C3
:10057000CDE000F0ADFD002800F0CA80626802EB1B
:100580004201884202D31103814248D2BFE06B4F3F
:10059000B9420CD11B6813F0300338D0102B13D0A4
:1005A000202B02D0302B21D0D7E70227D6E7644F8B
:1005B000B9420BD11B6813F0C00328D0402B03D0E5
:1005C000802BF2D0C02BEEE70427C7E75D4FB9427E
:1005D0000ED11B6813F4407319D0B3F5807FF3D0AC
:1005E000B3F5007FE1D0B3F5407FB6D10827B5E77A
:1005F0009142B2D11F6817F4406708D0B7F5806FF9
:10060000E2D0B7F5006FD0D0B7F5406FCBE7002749
:10061000A4E700F014FDAEE74FF40040AEE737B1B9
:10062000022F0AD0042F0ED0082F16D01BE000F0A6
:100630004FFD00F08FF879410AE00021424E16EBA1
:100640005200494104E000F0FAFC00F083F86941EF
:10065000002300F0C7FD064606E0500800F5000044
:10066000B0FBF2F600E00125A6F540713748814263
:1006700049E000F035FD06E06068354901EB5001C6
:100680000CE000F0DCFC61684A0802EB4002B2FBBF
:10069000F1F605E06068410801F58031B1FBF0F644
:1006A000B6B200E00125A6F1100040452FD208EABD
:1006B0000601C6F3420001432068C16028E047B14B
:1006C000012F09D0022F0CD0042F08D0082F0ED0F4
:1006D00015E000F0FDFC04E000F002FD01E000F098
:1006E000AEFC616800EB5100B0FBF1F605E060681C
:1006F000410801F50041B1FBF0F6B6B200E001257A
:10070000A6F11000404502D22068C66000E0012535
:100710000021216661662846BDE8F6813909000896
:1007200015090008F369FFEF003801400080004020
:100730000024F400881002400044004000480040BB
:10074000004C004000500040000024F400FD0F0069
:100750000048E8016268010E560816EB0020704759
:1007600090F82410CA0706D502685368816A23F4FA
:1007700000330B43536090F824108A0706D50268B3
:100780005368C16A23F480330B43536090F82410FC
:100790004A0706D502685368016B23F480230B4394
:1007A000536090F824100A0706D502685368416B1D
:1007B00023F400430B43536090F82410CA0606D577
:1007C00002689368816B23F480530B43936090F825
:1007D00024108A0606D502689368C16B23F400537F
:1007E0000B43936090F824104A0610D502685368B2
:1007F000016C23F480130B435360016CB1F5801F2F
:1008000005D15368416C23F4C0030B43536090F847
:1008100024100A0606D501684A68806C22F400227A
:1008200002434A607047F8B5044604F170050020A1
:10083000E8606FF07E4700F011F906462068016815
:100840000A0708D50097334600224FF400112046CE
:1008500000F016F860B9206801684A070AD50097C9
:10086000334600224FF48001204600F009F808B119
:100870000320F2BD20206860A86000202870F2BD2F
:100880002DE9F041069C05460E4690461F46286815
:10089000C1693140B1420CBF01200020404519D14F
:1008A00014F1010FF3D000F0D9F8C01B844201D33A
:1008B000002CECD12868016821F4D071016000F0AF
:1008C0000CF805F170002021416081600021017069
:1008D000032000E00020BDE8F08128688168490815
:1008E00049008160704701680A6822F490720A60CA
:1008F00001688A68520852008A60202181670021BD
:1009000001667047806A00F1520100220A810A8064
:1009100000F0CFB810B500F027F808D100F02AF8A1
:100920000B70416D4B1C00F019F821B929E0088BC0
:1009300040F00800088310BD10B500F015F808D18C
:1009400000F018F80B80416D8B1C00F007F821B9FE
:1009500017E0088B40F00800088310BD436523882A
:10096000591E21802188704700F160020168936957
:10097000222B70478B8C00F15A0461880B40416D2B
:10098000704701680B6823F490730B6001688B68F3
:100990005B085B008B602021916100211160BDE844
:1009A000104000F036BD0000284882B0816841F058
:1009B000010181600022816801F00101009100992C
:1009C000016841F0805101600F21006800F0805003
:1009D000009000986FF0010002B000F037BD10B534
:1009E00086B0044601A8142100F062FD2168184A6F
:1009F000914228D11748C16841F40031C1600222F8
:100A0000C16801F4003100910099016841F00801CA
:100A100001606021006800F00800009000980191DA
:100A2000002003900321072004910590029201A960
:100A3000094800F041FD00220521262000F006FDB6
:100A4000262000F020FD06B010BD00005810024026
:100A5000004400404C100240000C0048014800686F
:100A6000704700BF0C00002038B500F124010024BD
:100A70004A78022A03D004208861012417E0026822
:100A8000136823F00E031360026815686D086D008B
:100A90001560012291F82030CD6903F01C039A40C3
:100AA0006A6001224A700C70496901B1884720468A
:100AB00032BD7047704770472DE9FC4704001AD0DB
:100AC000DFF8E076DFF8EC56B86800F00C08F8685C
:100AD00000F003092078C1065BD5B8F1000F05D0FE
:100AE000B8F10C0F08BFB9F1010F2ED1386881079A
:100AF00003D5A069002800F04481396808074EBF7B
:100B0000396869680909206A01F0F001814206D25A
:100B100000F00DFB002808D100F0F9F907E000F023
:100B2000F6F9206A00F003FB002840F02A8100F06B
:100B300086FABA6800F079FADFF87006006800F00B
:100B4000ABFD010000F02181DFE1A069C0B139688F
:100B500041F001013960FFF781FF064638688107DF
:100B600000F11181FFF77AFF801B0328F6D30320E1
:100B7000CBE1FFF773FF801B0328C0F04181F6E74C
:100B80003868400840003860FFF768FF064639685B
:100B9000880740F1FA80FFF761FF801B0328F6D336
:100BA000E5E76068B0F5803F06D0B0F5A02F396862
:100BB00007D141F480213960386840F480303860D2
:100BC00006E021F4803139603A6822F480223A60EC
:100BD000606860B1FFF742FF06463968880300F19C
:100BE000E780FFF73BFF801B6528F6D3BFE7FFF7E1
:100BF00035FF06463868810340F1DA80FFF72EFFA3
:100C0000801B6528F6D3B2E7E06880B1396841F40B
:100C100080713960FFF722FF06463868410500F110
:100C20001E81FFF71BFF801B0328F6D39FE7386860
:100C300020F480703860FFF711FF064639684805D8
:100C400040F1D080FFF70AFF801B0328F6D38EE720
:100C50006868400840006860FFF700FF0646686863
:100C6000810740F1D180FFF7F9FE801B0328F6D3FE
:100C70007DE70528286806D140F00400286029682F
:100C800041F0010105E0400840002860296821F09A
:100C900004012960A06841F2893968B1FFF7DEFEDE
:100CA00082462968880700F1EB80FFF7D7FEA0EBAA
:100CB0000A004845F5D35AE7FFF7D0FE8246286878
:100CC000810740F1DD80FFF7C9FEA0EB0A0048452F
:100CD000F5D34CE7FFF7C2FE801B0328C0F0E58088
:100CE00045E7FFF7BBFE801B0328C0F009813EE704
:100CF000396811F0205F03D1F86880088000F8603F
:100D0000F968DFF8B4040140F960FFF7A7FE064672
:100D10003868810140F1F880FFF7A0FE801B0328AE
:100D2000F6D324E701282CD0F868E26A00F003012A
:100D3000914201BF00F07001226B521EB1EB021F05
:100D40001FD1626B00F4FE41B1EB022F19D1A16BF0
:100D500007290CBF0021012100F400328A4210D182
:100D6000E26B520800F4C001521EB1EB425F08D1A1
:100D7000216C490800F0C060491EB0EB416F00F0E3
:100D8000C3800120C1E000F0C2F82078C1070FD570
:100D9000B8F1080F06D0B8F10C0F08BFB9F1030F76
:100DA0007FF4FFAE3868810302D560680028E8D080
:100DB0002178880716D5B8F1040F06D0B8F10C0FCA
:100DC00008BFB9F1020F7FF41FAF3868410502D5A3
:100DD000E0680028D5D07968206921F0F85141EA0F
:100DE00000617960217808070ED5606900283FF41A
:100DF0002FAF696841F001016960FFF72FFE0646D9
:100E0000686881077FF5B5AE217848073DD5B86D94
:100E10000026C10009D4B86D40F08050B8650126A5
:100E2000B86D00F0805000900098DFF89093D9F8EA
:100E30000010C8051BD4D9F8000040F48070C9F830
:100E40000000FFF70BFE8246D9F80010C8050ED44B
:100E5000FFF704FEA0EB0A000328F5D387E67868C5
:100E6000216920F0F85040EA01607860BAE7A06894
:100E700001287FF4FEAE286840F00100286009E7F1
:100E80001EB1B86D20F08050B865A06AE0B3B8F12B
:100E90000C0F3FF447AF0228386820F080703860AC
:100EA0007FF426AFFFF7DAFD0646396888013FF583
:100EB00011AFF968DFF80803E26B0140E06A014313
:100EC000206B401E41EA0011606B520841EA00218C
:100ED000206C521E400841EA4251401E41EA4061E6
:100EE000A06B000941EA4041F960386840F0807029
:100EF0003860F96841F08071F960FFF7AFFD064690
:100F0000386881017FF5EDAE0020BDE8F6873868CE
:100F100040F0080038603968206A21F0F001014390
:100F200039607868E16920F47F4040EA0120786008
:100F300070472DE9F843040088466AD0DFF88462E0
:100F4000306800F00700404502D200F064F860D13C
:100F50002178DFF85052C8074AD56068032802D1CB
:100F600029688A0107E0022802D129688A0302E081
:100F700018B929688A0703D44BE02A68510548D577
:100F8000A968890840EA8100A86041F28939FFF721
:100F900065FD0746A868616800F00C00B0EB810FA2
:100FA00026D0FFF75BFDC01B4845F3D303201DE0AF
:100FB0002078410705D5A968E06821F4E061014384
:100FC000A9602078010706D5A868216920F460503F
:100FD00040EAC100A86000F032F8AA6800F025F8E5
:100FE000BDE8F2437148006800F056BBBDE8F283EB
:100FF0002178880705D5A968A06821F0F001014390
:10100000A960306800F007008045D1D200F003F8F5
:10101000CED00120EAE73168C90848EAC101316051
:10102000306800F00700404570476749C2F303127B
:10103000895C5D4A01F01F01C8401060704770B5BF
:10104000584A634B9068D6680025002110F00C00C8
:1010500006F003065F4C03D00C2812D1012E1AD1E2
:1010600015682E0704D4524D2E68C6F3032502E0FE
:101070001568C5F30315584E56F8255048B929464A
:1010800024E0042808BF214620D008281ED1194694
:101090001CE00C281AD1D06800F00300022803D00D
:1010A000032808BF1D4600E02546D168D068D268F5
:1010B000C0F306204543C1F30210C2F34161401C56
:1010C000491CB5FBF0F04900B0FBF1F1084670BDDA
:1010D00035483E4A006813684049C3F3022206E0DF
:1010E00031483A4A006813683C49C3F3C222895C1C
:1010F00001F01F01C840704710B50F220260334A4B
:10110000136803F003034360146804F0F004846080
:10111000136803F4E063C3601268D20802F4E0626B
:1011200002612848026802F007020A6010BD7CB51F
:101130002B4E054630680024C10002D500F0E8FAC5
:101140000EE0306840F080503060316801F080512E
:101150000091009800F0DCFA316821F08051316094
:10116000B0F5007F04D1802D0CD9A12D09D304E066
:10117000802D88BF032405D801D1022402E0702D00
:1011800000D101240F480168C90844EAC101016087
:10119000006800F00700A04201D0012076BD0020C9
:1011A00076BD000000100240180000201000002052
:1011B0009410024090100240FFFFEEFE00700040CD
:1011C0008C809DF90020024024360008081002405F
:1011D00000127A000024F40034360008F0370008CA
:1011E00058100240B3BBD9B1B2F5803F7DD2022A7C
:1011F0001ED98C46B1FBF2F102FB11C31B0443EA7A
:101200001043B3FBF2FC02FB1C3380B240EA034301
:10121000B3FBF2F002FB103240EA0C4000237047AF
:10122000022A05D98446B0FBF2F002FB10C27047D7
:101230004AB105D100F0010249085FEA3000704769
:1012400000220023704700F0A3BA0B000200002127
:1012500000207047904271EB030CF6D3B3F5803F4A
:101260002FD2F0B5B3FA83F7B1FA81F4A7F10F0EDC
:101270003D1B5340CEF1200602FA0EF2F3415340DB
:10128000B5F10F0746D80F3C2C444140C4F120066D
:10129000A040F1414140B1FBF3F603FB1611A2FB64
:1012A0000645001BA94102D2761E8018594180EAEA
:1012B000010221FA0EF362FA0EF200215A40304682
:1012C000F0BD30B4B1FBF3FC03FB1C11A2FB0C45D9
:1012D000001BA94103D2ACF1010C8018594130BC6C
:1012E00002460B46604600217047B2F1807F65D30D
:1012F000F0B5B2FA82F7B1FA81F4C7F10F063D1BDF
:1013000022FA06F307F1110EF24120355A40B5F1E9
:101310000F07B8D94140C4F12006A040F141414037
:10132000B1FBF3FC03FB1C11A2FB0C45001BA94104
:1013300003D2BCF1010C801859410F2F12D30F3F7B
:10134000C90341EA5041B1FBF3F603FB1611A2FBBE
:101350000645D4EBC030A94102D2761E801859410F
:1013600046EACC3C07B34140C7F12006B840F14102
:101370004140B1FBF3F603FB1611A2FB0645001B2F
:10138000A94102D2761E8018594180EA010221FA51
:101390000EF3C7F1200462FA0EF20CFA07F05A407D
:1013A0002CFA04F13043F0BD80EA010221FA0EF379
:1013B000002162FA0EF260465A40F0BD8C46B1FB45
:1013C000F2F102FB11C31B0243EA1063B3FBF2FC10
:1013D00002FB1C331B024CEA002043EA1063B3FB00
:1013E000F2FC02FB1C331B024CEA002043EA1063B0
:1013F000B3FBF2FC02FB1C331B024CEA002043EA65
:101400001063B3FBF2FC02FB1C324CEA0020002309
:10141000704770470901020081B002D41F4881540F
:1014200005E01F4802F00F02104400F8041C01B050
:1014300070471C4A13684FF6FF0100020B4000F48E
:10144000E0601843184908431060704738B5154BE1
:101450001C68C4F30223C3F10704052C28BF04242D
:101460001D1D072D34BF0023DB1E012505FA04F4E2
:10147000641E2140994005FA03F35B1E1A40114394
:10148000BDE83440C6E7002807D4012200F01F0160
:10149000064B8A40400943F82020704700E400E0F2
:1014A00018ED00E00CED00E00000FA0500E100E0BE
:1014B000002200F06FB900002DE9F84F4FF000084E
:1014C0006C4BDFF8B491DFF8B4A14FF00F0B074677
:1014D0008E462BE06A4CA74214BF072406248C409A
:1014E0002C4349F82240C1431A68DEF804400A4000
:1014F000E40348BF02431A605A68DEF804400A4019
:10150000A40348BF02435A609A68DEF804400A40C8
:10151000E40248BF02439A60DA680A40DEF8041029
:10152000890248BF0243DA6008F10108DEF80010C2
:1015300031FA08F000F09C80012202FA08F212EA67
:101540000100F1D0DEF80440022C18BF122C4FEA43
:10155000880111D14FEAD80407EB840C01F01C0478
:10156000DCF820500BFA04F6B543DEF8106006FAFA
:1015700004F42C43CCF820404FEA480C03243D6887
:101580009EF8046004FA0CF4E44306F003062540D8
:1015900006FA0CF635433D60D243DEF80450012DC7
:1015A00018BF022D03D0112D18BF122D11D1BD6807
:1015B000DEF80C60254006FA0CF63543BD607D6808
:1015C000DEF80460C6F30016154006FA08F6354347
:1015D0007D60DEF8045005F00306032E07D1FE6A95
:1015E000C5F3C005324005FA08F52A43FA62FA68E5
:1015F0001440DEF8082002FA0CF22243FA60DEF80A
:101600000420D20090D5DAF8002042F00102CAF896
:10161000002001F00C01DAF8002002F00102009233
:101620000BFA01F5009A4FEA980259F8224024EA91
:101630000505B7F1904F08BF002418D0114CA74200
:1016400008BF012413D0104CA74208BF02240ED0BB
:101650000E4CA74208BF032409D00D4CA74208BF77
:10166000042404D00B4CA7427FF434AF052436E7A2
:10167000BDE8F18F00040140080001406010024005
:10168000001800480004004800080048000C00480A
:10169000001000480014004818B5014687B0002229
:1016A0003620FFF7D3FE3620FFF7EDFE1448154C29
:1016B000016841F01001016001A9006800F010000C
:1016C0000090009802A8FFF717FDFFF701FD0E49F3
:1016D0002160002240F2E731E1602261A2600B4903
:1016E000B0FBF1F0401E6060204600F06DF818B9C4
:1016F000204600F076F800E0012008B010BD0000A0
:1017000058100240980D00200010004040420F0089
:10171000DFF87000006800F4C060704710B5DFF8B3
:101720006410B0F5007F086800F4C0601AD1B0F50D
:10173000007F20D00A68DFF85030DFF8504022F4F4
:10174000C06242F400720A6032201A684243B2FB5F
:10175000F4F0401C4A6953050FD5002818BF401EFD
:10176000F8D10AE0B0F5806F05D00A6822F4C062B3
:1017700042F480620A60002010BD48694105FAD534
:10178000032010BD007000401800002040420F00F0
:101790007047000000B500BF13009646944610390C
:1017A00028BFA0E80C50FAD85FEA417C28BF0CC0E3
:1017B00048BF40F8042BC90728BF20F8022B48BFB8
:1017C00000F8012B00BD000038B5040001D1012054
:1017D00032BD00F028F818B900F021F800F042F905
:1017E00013E00168C86840F00100C8608A68DFF84B
:1017F00040000240062A18BFB2F5803F03D00868B7
:1018000040F0010008600020704702206870211D30
:10181000206800F0C0F801206870002032BD00216F
:1018200029702046704704F13C0568787047000035
:101830000700010010B50446206801698A0715D524
:10184000C1688A0712D56FF0020202610121217777
:10185000806910F0030F204602D000F004F903E085
:1018600000F002F900F094F8002020772068016968
:101870004A0715D5C1684A0712D56FF00402026104
:1018800002212177806910F4407F204602D000F0C9
:10189000EAF803E000F0E8F800F07AF8002020779A
:1018A000206801690A0715D5C1680A0712D56FF0CB
:1018B0000802026104212177C06910F0030F20465D
:1018C00002D000F0D0F803E000F0CEF800F060F8AD
:1018D0000020207720680169CA0615D5C168CA06AC
:1018E00012D56FF01002026108212177C06910F44F
:1018F000407F204602D000F0B6F803E000F0B4F8D4
:1019000000F046F80020207720680169CA0708D552
:10191000C168CA0705D56FF001020261204600F0D8
:1019200056F9206801690A0608D5C1680A0605D576
:101930006FF080020261204600F088F9206801699A
:10194000CA0508D5C1680A0605D56FF48072026120
:10195000204600F07CF9206801694A0608D5C16874
:101960004A0605D56FF040020261204600F070F98A
:10197000206801698A060AD5C1688A0607D56FF012
:10198000200202612046BDE8104000F062B910BD9F
:10199000204600F05FB92DE9F043DFF8A870D0F8D9
:1019A00000C0DFF8A430DFF8A440DFF8A450DFF86F
:1019B000A460DFF8A4E0DFF8A480DFF8A490B842C8
:1019C00018BFB0F1804F07D0484518BF404503D03D
:1019D000704518BFB0420ED14A68B8422CF0700C66
:1019E00018BFB0F1804F42EA0C0C0CD048451CBF28
:1019F0004045704507D0B04218BFA84203D0A0426E
:101A000018BF984204D1CA682CF4407C42EA0C0CFE
:101A10004A692CF0800C42EA0C020260B8428A68E3
:101A2000C26218BFB0420A68826204D0A8421CBFDA
:101A3000A042984201D10969016301214161BDE8D9
:101A4000F0830000002C01400048014000440140A8
:101A50000040014000340140000C004000080040FC
:101A600000040040704770477047000030B58BB0ED
:101A700000F0F2F800F048F85848594C0168594D08
:101A800041F0080101600068574900F0080000902B
:101A9000009821600020A060E06020614FF4E131F7
:101AA0000C20606161600020A061E06120626062E2
:101AB0002046FEF769FB082205F10C012046FEF7DF
:101AC000FDFB0FF22C10016800916846012100F027
:101AD000FCF80446AC6006A80FF24811142200F08E
:101AE00069F9214606A800F0D2F82860142201A85E
:101AF0000FF2441100F05EF9A96801A800F0C7F8E0
:101B0000686000F0BFF8FEE780B5B8B027A84421B0
:101B1000FFF7CEFC68461421FFF7CAFC05A8882110
:101B2000FFF7C6FC1020279001212D9100202E9058
:101B3000602131902F9127A8FEF7BEFF0F20009063
:101B4000002101910291039104916846FFF7F1F998
:101B5000022005900021149105A800F06FF94FF4C0
:101B60000070FFF7DBFD39B000BD70B504001C4DFF
:101B70000FF28006FED06421204600F0B9F800285C
:101B8000F9D100F01EF8204600F0D9F84FF47A7031
:101B900000F094F8EFE770B50400114D0FF26C06F9
:101BA000FED06421204600F0A3F80028F9D100F00F
:101BB00008F8204600F0C3F84FF47A7000F07EF881
:101BC000EFE70A23142231462846FEF71DBB0068C2
:101BD0000649884208BF00F0CDBB70474C10024058
:101BE000180D0020D80D00200044004000100040D7
:101BF0000000000048656C6C6F2066726F6D2054A9
:101C0000687265616420310A0000000048656C6CF0
:101C10006F2066726F6D2054687265616420320AAD
:101C200000000000C43700086B1B00080000000023
:101C30000000000080000000CC370008971B00085F
:101C4000FEFF0000000000008000000070477047A9
:101C50007047704770470000032010B5FFF7E9FB9D
:101C60000020FFF719FD0024002814BF0124FEF70F
:101C70009BFE204610BD000001460020842918BFAD
:101C8000C81C704780B500F05BFC002002BD3EB56B
:101C900004460D46B4F90800FFF7EEFF02A90191D2
:101CA00000902B4622692168606892B200F06AFBBE
:101CB000012801D000203EBD02983EBD80B500B98C
:101CC000012000F016FC002002BD10B501290DD145
:101CD00003220021012000F07FFF040004D0002334
:101CE0000022002100F09FFF204610BD002010BD03
:101CF00080B50022009208B9802002BD11F1010FC9
:101D000008BF4FF0FF3200F014F859B16A460021C5
:101D100001F019F901280AD1009808B100F027F85C
:101D2000002002BD114601F05FF80128F8D0FF2025
:101D300002BD01D001B10A46EFF3058170471CB521
:101D400000F01FF849B1694601F005F801280CD1EF
:101D5000009840B100F00BF805E0002300F063FFAD
:101D6000012818BFFF24204616BDFF2016BDDFF84E
:101D700020204FF080511160BFF34F8FBFF36F8F62
:101D80007047002200240092EFF3058170470000A5
:101D900004ED00E062B38B0708D0521E11F8013B3E
:101DA00000F8013B00F024808B07F6D1830740F058
:101DB000208000BF103A07D330B4B1E83810103A91
:101DC000A0E83810F9D230BC530724BFB1E808109E
:101DD000A0E8081044BF51F8043B40F8043BD20788
:101DE00024BF31F8022B20F8022B44BF0B7803707C
:101DF0007047121F17D35B0009D151F8043B20F83C
:101E0000023B1B0C121F20F8023BF6D20BE051F8EC
:101E1000043B00F8013B1B0A20F8023B1B0C121F7D
:101E200000F8013BF3D238BF121D521E24BF11F837
:101E3000013B00F8013BF8D8704700002DE9FC4752
:101E4000054600242868DFF810640105A14621D565
:101E5000686E70B1B0F5800F17D0B0F5000F03D0E9
:101E6000B0F5400F09D013E0326842F4803232609E
:101E700004E0002100F07EF9044654B9F16F686E69
:101E800021F440010143F16704E000F06DF9F3E74C
:101E90000124A1462868C10421D5A86EA8B1B0F1DB
:101EA000807F17D0B0F1007F03D0B0F1407F04D025
:101EB00013E0306840F4803030607CB9F16FA86E78
:101EC00021F040710143F16709E0002100F052F96F
:101ED0000446F2E700F048F9FAE70124A146286831
:101EE00081032BD5F06CC1004FF000080AD4F06CD0
:101EF00040F08050F0644FF00108F06C00F080502A
:101F000000900098DFF80C74396841F480713960F2
:101F1000FEF7A4FD82463868C10500F1EF80FEF7A8
:101F20009DFDA0EB0A000328F5D30324A146B8F1D8
:101F3000000F03D0F06C20F08050F0642978C807BF
:101F400005D5F16FA86B890840EA8101F16728780F
:101F5000810705D5F16FE86B21F00C010143F167B2
:101F60002878410705D5F16F286C21F03001014335
:101F7000F1672878010705D5F16F686C21F0C00181
:101F80000143F1672878C10605D5F16FA86C21F4EB
:101F900040710143F1672878810605D5F16FE86C3F
:101FA00021F440610143F1672868810505D5F16F8F
:101FB000E86D21F440210143F1672868410505D50A
:101FC000F16F286E21F440110143F1672878410632
:101FD00005D5F16F286D21F440510143F167287850
:101FE000010605D5F16F686D21F440410143F167A9
:101FF0002868C10505D5F16FA86D21F44031014372
:10200000F167286881041BD5F16FE86E00F0A2F833
:10201000E86EB0F1006F0BD100F0A1F810E0FEF710
:102020001DFD001B5045C0F089804FF003097EE77D
:10203000B0F1806F04D100F09CF8010018BF814618
:102040002868010312D5F16F286F00F083F8286F1C
:10205000B0F1006F02D100F082F807E0B0F1806FBC
:1020600004D100F086F8010018BF814628684103BA
:1020700012D5F16F686F00F06DF8686FB0F1006F06
:1020800002D100F06CF807E0B0F1806F04D100F0ED
:1020900070F8010018BF81462868410418D5F16F17
:1020A000A86F21F040510143F167A86FB0F1805F44
:1020B00003D1022100F05EF807E0B0F1005F07D124
:1020C000022105F1200000F0C9F8010018BF814687
:1020D0002868010405D5F16FE86F21F080410143C4
:1020E000F1672868C10306D5F16FD5F8800021F0AB
:1020F00000410143F1674846BDE8F687002C7FF4B4
:1021000015AFDFF85C72386810F440701CBFD5F86A
:10211000841088420BD03868396841F480313960C6
:1021200020F440703A6822F480323A603860C00788
:1021300008D5FEF793FC044641F2893A38688107D6
:102140007FF56DAF3968D5F8840021F44071014303
:102150003960ECE621F040610143F1677047306877
:1021600040F4801030607047002105F1200000F03D
:1021700075B80121281DFFE72DE9F04100F0E4F8D2
:1021800009D0F16801F0030181422BD150B300F076
:10219000C3F80CD026E0012804D023D303281BD099
:1021A00016D31FE031688A071CD500F0C3F83068E9
:1021B00020F0806000F0D1F880463168080135D504
:1021C000FEF74CFCA0EB08000328F6D3032538E00B
:1021D00031684A05E9D405E032689103E5D43168F5
:1021E0004A03E2D401252CE0012C326909D15E4872
:1021F00002403869400842EA0121401E41EA40514C
:1022000004E05A480240786900F08DF83161306886
:1022100040F0806000F0A1F80446316808010CD459
:10222000FEF71CFC001B0328F7D3CFE7B968002C8E
:10223000DAD1326900F006F8E8E73169B86901439C
:10224000316163E04A480240F86842EA012100092E
:1022500041EA4041704700000C1002402DE9F04176
:1022600000F072F809D0F16801F0030181422BD12E
:1022700050B300F051F80CD026E0012804D023D34D
:1022800003281BD016D31FE031688A071CD500F045
:1022900051F8306820F0805000F05FF880463168D7
:1022A000880028D5FEF7DAFBA0EB08000328F6D358
:1022B00003252BE031684A05E9D405E03268910333
:1022C000E5D431684A03E2D401251FE027480240E3
:1022D000386900F028F87161306840F0805000F0F3
:1022E0003CF80446316888000CD4FEF7B7FB001BAD
:1022F0000328F7D3DCE7B9687269002CE6D1FFF751
:10230000A1FFE8E771697869014371612846BDE87A
:10231000F081000000700040F0687968C0F302109E
:10232000401C88427047400842EA0121401E41EAB1
:1023300040617047F1687A6821F073010843521ECA
:1023400040EA0210F06070470746064E38680C46B7
:10235000F168002511F0030F70473060FEF77EBB77
:102360009010024000100240FF809FFFFF80FFF9A5
:10237000FF80FDFF02490A68886882180A6070477A
:102380000C0000202DE9F8430646174684B0884625
:102390009946B80000F0A6FE05001AD0542000F0BF
:1023A000A1FE040012D00D990C982563002203921F
:1023B0000191009002944B463A464146304600F067
:1023C0000DF8204600F046F8012004E0284600F011
:1023D00011FF4FF0FF3005B0BDE8F0832DE9F04765
:1023E0000A9E8146306B00EB8202101FC0084FEA44
:1023F000C00A0022885CB41884F83400885C10B1EC
:10240000521C102AF6D3089D002086F84300062DA2
:10241000099C88BF062506F14407F5623D60786097
:102420009846301D00F043FF06F1180000F03FFF12
:102430003661C5F10705B56176620020B860387372
:1024400042464946504600F06DFF306004B12660B8
:10245000BDE8F0872DE9F04100F062F8DFF85C5646
:10246000DFF88086E86C401CE8641426A86A28BB64
:10247000AC62E86C012829D1002706FB07F0404434
:1024800000F008FF7F1C072FF7D305F1740000F060
:1024900001FF05F18807384600F0FCFE284600F0F1
:1024A000F9FE05F1140000F0F5FE05F1380000F02A
:1024B000F1FE05F17400E8622F6307E0A86D28B90A
:1024C000E16AA86AC26A914228BFAC62A86E401C49
:1024D000A86600F0D0FA4643211D08EB060000F084
:1024E000E9FE00F0B2FFA86D08B100F0ECFABDE81B
:1024F000F08180B578B1DFF8C425116F11B100F01B
:10250000B2FAFEE7116F491C1167002100F0ECFAE6
:1025100000F046F818B900F0CCFA00F0A7FA01BDB7
:10252000044600F079BF6A6D012000FA01F122EA49
:10253000010169657047211D1420424398187047B6
:102540003EB5DFF808460FF2146104F19C000190DB
:1025500000250095002380220FF2ED20FFF712FFE7
:10256000502101280ED181F3118800F07FFA4FF03D
:10257000FF30E0660120A0652565BDE8374000F02A
:10258000F9BE37BD10F1010FFBD181F3118800F0C6
:102590006DFAFEE7DFF8B405016F491C016770476B
:1025A00070B5DFF81865306F0024002528B9502178
:1025B00081F3118800F05AFAFEE700F02DFF306F2A
:1025C000401E3067316F002937D1F06CD8B934E044
:1025D000F168CC6800F032F800F0BFF9E06A716D84
:1025E00001228240114371651423DFF85C255843B2
:1025F000211D104400F05EFEE06AB16ACA6A904292
:1026000024BF0120306630680028E1D10CB100F011
:102610004DF9F46D3CB100F015F808B101203066B9
:10262000641EF8D1F565306E38B1DFF824054FF03F
:1026300080510125016000F019FA36E204F118001A
:1026400000F05DBE2DE9F843DFF87074386F0026A6
:10265000002850D13C6D641C3C6511D1F86A0068BB
:1026600028B1502181F3118800F000FAFEE7F86AE2
:10267000396BF9623863786E401C786600F016F9A1
:10268000F86EDFF8C49484424FF0140825D31AE0A2
:10269000281D00F034FEA86A18B105F1180000F0FA
:1026A0002EFEE86A796D012282401143796508FBAC
:1026B00000F0291D484400F0FDFDE86AB96ACA6AC5
:1026C000904228BF0126F86A006880B1F96AC8689C
:1026D000C56868688442DBD2F866B86AC06A08FBDD
:1026E00000F159F80100022808D3012606E04FF056
:1026F000FF31F966F1E7F86D401CF865386E00B1FE
:102700000126DDE1DFF8B41381B0086F10B10122BA
:102710000A6620E00866DFF83034486DB0FA80F2CF
:10272000C2F11F0214204243985838B9502181F356
:102730001188BFF34F8FBFF36F8FFEE7981800F13A
:1027400008034268526842609A4204BF526842607D
:102750004068C2688A6201B0704710B50C4610B973
:1027600000F081F9FEE7DFF85423936A03F11801C2
:1027700000F0ACFD2046BDE81040FFE70121B3E1C9
:1027800038B5C068C46814B900F06DF9FEE7FFF70A
:1027900055FFDFF82853286F60B900F0DEF8E26AD1
:1027A000686DDFF8A4330121914008436865FFF7A5
:1027B000C2FE02E004F11801284600F07BFDA86A81
:1027C000C16AE06A814202D20120286632BD00203F
:1027D00032BDDFF878134A6E0260096D41607047C0
:1027E000F8B504460D46502014B900F03DF9FEE757
:1027F00015B900F039F9FEE700F00EFEDFF84C03E2
:10280000016D62682E688B1A16F1010F0ED0476EAB
:10281000D4F800C0674501D091420BD2B34207D231
:10282000F31A2B60416E2160006D6060002402E0AD
:1028300000202860012400F008FE2046F2BDDFF8E9
:102840000C130120086670472DE9F041DFF80043C2
:10285000DFF89082DFF8F4724FF0805511E000F05D
:10286000DBFD386AC668301D00F049FDF86C401E7B
:10287000F864786B401E786300F0E7FD304600F0A6
:102880000BF8786B0028EAD1D8F800100229F8D3A9
:10289000256000F0EBF8F4E710B50446206B00F07B
:1028A000A9FC2046BDE8104000F0A4BC8349C86ADA
:1028B000006810B94FF0FF3203E0C86AC268D06800
:1028C0004268CA667047DFF88412886D08B9012033
:1028D0007047086F08B902207047002070472DE943
:1028E000F04104460020002C35D0744DE16AAA6AFC
:1028F000D36A994229D2A069002804D4A86AC16A7F
:10290000C1F10701A1611427E16ADFF83C82606927
:1029100079434144884214D100F01FF80126002871
:1029200001BFE16A07FB01F058F80000002800F041
:1029300057F8A86AC06AE0628640696D00F048F8FE
:1029400008E0A86AC16AE16204E0616CAA6AD36A1D
:10295000994200D20120BDE8F081201D00F0CFBCDB
:102960002DE9F04104460021002C2ED0534DA86AD9
:102970005022844204D082F3118800F077F8FEE7F9
:10298000A06C00F07FF8E26A636C401E9A42A0647B
:102990001BD0D0B9FFF7E1FF01261427DFF8A8818B
:1029A000002801BFE16A07FB01F058F80000002889
:1029B00000F016F8606CE062C0F10700A061E06A08
:1029C000696D864000F004F801210846BDE8F081F9
:1029D0000E4347436E65211D08EB070000F06ABCFB
:1029E00005D16A6D06FA01F122EA010169657047B5
:1029F000F8B5040036D0A06C502200F043F8636CA8
:102A00008B4238BF0B46E16A99422BD0012829D16D
:102A10002A4DA86A844204D182F3118800F026F876
:102A2000FEE7A069DFF82061E36200285CBFC3F124
:102A30000703A3611427606979433144884211D1A7
:102A4000FFF78BFF002801BFE16A07FB01F0305858
:102A5000002801D1FFF767FD00F00DF84743211D65
:102A6000F01977E0F1BD502080F31188BFF34F8F4C
:102A7000BFF36F8F70470122E06A696D8240114396
:102A80006965704730B982F31188BFF34F8FBFF388
:102A90006F8FFEE77047DFF8B410886A18B1886A54
:102AA000826C521C8264886A704700F0CEFC284613
:102AB00070BD27494FF0805008607047EC0B002034
:102AC0003046BDE8F283A96AC86AE16A884207D243
:102AD0001F494FF080500860BFF34F8FBFF36F8FD7
:102AE000704700008C0C0020F8B5184D2F6D0C4677
:102AF000A96A0646081D00F002FC30B9A86A696D93
:102B0000C06A012282409143696516F1010F05D127
:102B100024B1A86A011D05F138001BE0A86AF61966
:102B20004660BE42A86A05D2011D286BBDE8F4408C
:102B300000F0CCBB011DE86A00F0C8FBE86E8642DD
:102B400038BFEE66F1BD00008C0C0020EC0B0020BD
:102B500004ED00E0BDE8F44000F0ACBB49444C4556
:102B60000000000038B504000D4602D100F02EFA36
:102B7000FEE700F051FCE26B206C216842438818AC
:102B800060600020A0632068E26BA060521E206C91
:102B9000216842438818E0604FF0FF3104F144009F
:102BA0000170417065B9206990B100F00BFA78B1FD
:102BB000DFF82C154FF08050086000F0BFF907E0F7
:102BC00004F1100000F066FB04F1240000F062FB49
:102BD00000F03BFC012032BDF8B506000D4617465B
:102BE00002D100F0F3F9FEE7002D0EBF482005FBEF
:102BF00006F0483000F076FA040007D000943B4617
:102C000004F148022946304600F002F82046F2BDA1
:102C100082B0029B01B91A461A60D863196418463B
:102C2000012102B09EE72DE9F64782B004461E4618
:102C3000502714B900F080F9FEE75FEA010A01D1DC
:102C4000206C70B9022E02D1E06B01280CD1FFF785
:102C50003AFE00285ED1039800285BD000F06CF9A2
:102C6000FEE700F069F9FEE700F066F9FEE7039978
:102C700007F11000FFF771FD384600F0F7F9FFF794
:102C80008FFC18B9C8F8009000F058F900F0C4FBA8
:102C9000B86BF96B884242D3022E40D003980028CB
:102CA00035D014B900F034F9012400F0CEFBFFF761
:102CB00071FC00F0B1FB07F1440000F02CF904BFF7
:102CC0000022027000F02CF904BF0022427000F0D4
:102CD000BCFB00F03CF888BB00F09EFBB86BF96BC6
:102CE000884214BF0025012500F0AFFB002DBED1A6
:102CF000384600F0BBF9FFF753FCC7E718B1C8F836
:102D0000009000F01BF900F0A0FB01201CE000F097
:102D10009CFB18E02746002400F061F8B6E7324635
:102D20005146384600F05AF9796A0029E6D007F191
:102D30002400FFF725FD0028E1D1E4E7384600F044
:102D400095F9FFF72DFC002004B0BDE8F08703A93A
:102D50006846FFF745BDF8B504460D46502714B93F
:102D600000F0EAF8FEE7206C10B100F0E5F8FEE7AD
:102D7000216809B96068C0B900F08EFBEFF31186D5
:102D800000F023F819D294F94510401C11F1010FFD
:102D9000A0630DD1606A70B100F013F8002818BF6D
:102DA000002D08D00120286005E000F0C5F8FEE7FE
:102DB000491C84F84510012000E0002086F31188AA
:102DC000F2BD04F12400FFF7DBBC87F31188BFF3E9
:102DD0004F8FBFF36F8FA06BE16B88427047DFF8B6
:102DE00000834FF0805970472DE9F24382B00646C8
:102DF00000240025502716B900F09EF8FEE7306C3D
:102E000010B100F099F8FEE7FFF75DFD40B90298B8
:102E100030B100F091F8FEE700F08CF8FFF7C0FB4E
:102E200000F0FAFAB06BFFF7DAFF28B90298D0B9D0
:102E3000C5B100F081F8FEE7401EB063306810B9FC
:102E4000FFF729FE7060306940B106F11000FFF70E
:102E500097FC18B1C8F8009000F070F800F0F5FA8F
:102E6000012053E04FE014B900F052F8012400F0C3
:102E7000ECFAFFF78FFB00F0CFFA06F1440000F008
:102E80004AF804BF0022027000F04AF804BF002292
:102E9000427000F0DAFA02A9FFF75AFF0028304624
:102EA0001AD100F011F90028B6D0306838B900F016
:102EB000B3FA7068FFF713FD054600F0C6FA00F09C
:102EC00034F800F037F8FFF76BFB0028A8D1C8F8FA
:102ED000009000F033F8A3E700F0C8F8FFF760FBBC
:102EE000304600F0F1F800289AD075B100F094FA5D
:102EF000706A00281DBF306B0168C1F10701002115
:102F00007068FFF775FD00F0A0FA0020BDE8FE83B1
:102F10006846FFF75EBC90F9001011F1010F704791
:102F200090F9011011F1010F7047029906F1240088
:102F3000FFF713BC304699E087F31188BFF34F8F3A
:102F4000BFF36F8F70472DE9F84304460F461546CF
:102F5000502624B986F31188FFF7F0FFFEE70FB97A
:102F6000206C70B900F098FAEFF3118886F311889D
:102F7000FFF7E4FFA66B4EB9002088F31188BDE887
:102F8000F28386F31188FFF7D9FFFEE794F94490A6
:102F90003946204600F056F8761E19F1010FA66357
:102FA0000AD1206960B100F00DF8002818BF002D8B
:102FB00006D00120286003E009F1010084F84400F4
:102FC0000120DAE704F11000FFF7DABB502080F3AC
:102FD0001188BFF34F8FBFF36F8F7047F8B5064668
:102FE0001546B46B326C002742B9316831BB70684A
:102FF000FFF7B6FC0021074671601FE065B9B068B5
:10300000FEF7C8FEB068316C08447168B060884251
:1030100014D33068B06011E0F068FEF7BBFE306C8E
:10302000F16840420144F1603268914202D2716815
:103030000844F060022D01D104B1641E641CB46325
:103040003846F2BD026C002A0B4600D1704710B51D
:10305000C16844681144C160A14224BF0168C160D5
:10306000C168BDE810401846FEF794BEF8B50446A6
:1030700000F0D2F904F1440595F9016076B2012E11
:1030800011DB606A78B1FFF79CFE08B1FFF7D7FB50
:10309000761EF3E7206990B1FFF794FF08B1FFF7C0
:1030A000CEFB7F1E08E04FF0FF366E7000F0CDF9CA
:1030B00000F0B2F995F900707FB2012FEADA2E70B4
:1030C000BDE8F14000F0C1B910B5044600F0A4F924
:1030D000A06B441EA44100F0B8F9E00F10BD000041
:1030E00004ED00E02DE9F8430446FFF753FA684F7A
:1030F000B8684FF00009002500BB07F1180307F17D
:10310000180113F0070F40F6B8300A4604D0CA1D64
:10311000D208D200801A081880180838C008C000E9
:103120003A607D60B86045600560811A516010604A
:1031300050683861F8604FF0004078614FF05008F7
:103140007869044233D194B3083414F0070F1FBFD9
:1031500004F1080004F00704041B14F0070F02D068
:1031600000F041F8FEE714B3F868A0421FD33E68B0
:1031700039467068A04223D2306800281CBF31460F
:103180000646F6D11CE0301D02517460084600F07E
:103190005BF87168F8683A69401AF860904238BF85
:1031A0003861786901437160356009F00705FFF700
:1031B000F7F915B100F017F8FEE74846BDE8F283CD
:1031C000B8688642F3D0326808680A6000F10809DE
:1031D0007268121B112ADCD3311911F00700D2D00A
:1031E00000F001F8FEE788F31188BFF34F8FBFF3BB
:1031F0006F8F7047002800D1704738B5A0F10804E0
:10320000234D61686A695023114202D100F015F81C
:10321000FEE7206810B100F010F8FEE7914361600E
:10322000FFF7B8F9E96860684118E960204600F0E6
:103230000BF8BDE83140FFF7B3B983F31188BFF352
:103240004F8FBFF36F8F704730B511490A4600E0CA
:10325000224614688442FBD35368D418844203D1B5
:103260004068C3185360104643681468C518A542E7
:1032700008D189688C4204D06168CB184360246807
:1032800000E00C460460824218BF106030BD0000B0
:103290001C00002000F1080141604FF0FF31816007
:1032A00000F10801C1600161002101607047002147
:1032B0000161704742684A6093688B609368596007
:1032C000916008610168491C0160704730B50A6867
:1032D00012F1010F08BF036907D000F1080300E0F5
:1032E00023465C682568AA42FAD25A684A6091600F
:1032F0008B60596008610168491C016030BD4368FA
:10330000016982689A60836842685A604A688242AA
:1033100004BF82684A60002202610868401E08609B
:10332000086870474908490010B5A0F120034FF024
:1033300080749961DC611A600FF2110159616FF0BC
:10334000020140F8241D203810BD000063494A687E
:10335000502012F1010F06D080F31188BFF34F8F78
:10336000BFF36F8FFEE780F31188BFF34F8FBFF37A
:103370006F8FFEE77CB55A495A4B0A6850209A4233
:1033800002D100F082F8FEE70B68574CA34202D14D
:1033900000F07BF8FEE7554A14780194FF23137080
:1033A000072513784D4C8DF800309DF80030A5604E
:1033B00003F05003237006E05B1EA3609DF800300D
:1033C0005B008DF80030A3689DF800502E06F3D402
:1033D000C3F10705042D02D000F057F8FEE71B02E9
:1033E00003F4E063A36001981070086A40F4700071
:1033F0000862086A40F07040086200F081F800201E
:10340000606000F0DBF83A48016841F0404101603B
:1034100000F0C4F8002076BD502080F31188BFF37F
:103420004F8FBFF36F8F2D494A68521C012A4A60A3
:103430000AD130490A68130606D080F31188BFF319
:103440004F8FBFF36F8FFEE770472449486838B944
:10345000502080F31188BFF34F8FBFF36F8FFEE7CB
:10346000401E486008BF80F31188704780B5502027
:1034700000F00BF8FFF7E6F818B11E494FF0805046
:103480000860002181F3118801BD80F31188BFF32A
:103490004F8FBFF36F8F7047EFF3058050211028D7
:1034A0000E4A0BD3144B185C1378984206D281F362
:1034B0001188BFF34F8FBFF36F8FFEE790680F4AFD
:1034C000136803F4E063984206D281F31188BFF3D6
:1034D0004F8FBFF36F8FFEE77047000000000020A2
:1034E00000ED00E071C20F4170C20F4100E400E046
:1034F00034EF00E004ED00E0F0E300E00CED00E06C
:1035000007480021016081604FF47A7305490A6819
:10351000B2FBF3F35B1E436007210160704700BFFD
:1035200010E000E018000020EFF30980BFF36F8F78
:10353000264B1A681EF0100F08BF20ED108A20E9F4
:10354000F04F106009B44FF0500080F31188BFF3C2
:103550004F8FBFF36F8FFFF7D5F84FF0000080F368
:10356000118809BC19680868B0E8F04F1EF0100F08
:1035700008BFB0EC108A80F30988BFF36F8F7047E3
:10358000124B19680868B0E8F04F80F30988BFF360
:103590006F8F4FF0000080F3118870470C4800686F
:1035A000006880F308884FF0000080F3148862B64A
:1035B00061B6BFF34F8FBFF36F8F00DFDFF81400EA
:1035C000016841F47001016070470000140C002094
:1035D00008ED00E088ED00E00E48016841F470015C
:1035E000016000220C49086840F0010008608A6010
:1035F0000A480A6802400A604FF48050C8600022FE
:10360000086820F4802008608A614FF00060044957
:103610000860704788ED00E000100240FFFFF6EA06
:1036200008ED00E0000000000000000001020304BB
:1036300006070809A0860100400D0300801A060055
:1036400000350C0040420F0080841E0000093D0040
:1036500000127A000024F40000366E010048E801F0
:10366000006CDC0219E050F8042BD30744BFA9F129
:1036700001039A18091F0023042942F8043BF9D2D8
:103680005FEA817C134604D54FF0000CA2F800C01D
:103690009B1CC90744BF0021197050F8041B002966
:1036A000E1D1704710B450F8041B79B10268436847
:1036B00002440830DC0744BFA9F10104E31852F8C2
:1036C000044B43F8044B091FF9D1ECE710BC7047D9
:1036D00010B5074979441831064C7C44163404E08F
:1036E0000A68081D114488470146A142F8D110BD5F
:1036F0002C0000004C0000004EF68851CEF2000174
:10370000086840F470000860BFF34F8FBFF36F8FFD
:103710004FF00070E1EE100A7047000049FFFFFF14
:10372000D00D00001C0000200000000079FFFFFF0A
:103730001C000000740000000000002000000000D9
:103740007047FEE7FEE7FEE7FEE770470248FCF73A
:1037500006BE0248FEF76EB8180D0020980D002036
:1037600000F00DF8002801D0FFF7B2FFAFF30080A2
:103770000020AFF30080FEF779F900F002F8012095
:10378000704700F001B800000746384600F002F824
:10379000FBE7000080B5AFF30080024A110018205B
:1037A000ABBEFBE72600020000000000AAAAAAAAFE
:1037B00000000000000000001000000001000000F8
:1037C00000093D0074687265616431007468726557
:1037D000616432000148804701480047D93500083C
:1037E000E5370008AFF30080FFF786FFFFF7B8FF6B
:1037F0000000000001020304FFF7FEBFFFF7FEBF59
:10380000FFF7FEBFFFF7FEBFFFF7FEBFFFF7FEBFEC
:10381000FFF7FEBFFFF7FEBFFFF7FEBFFFF7FEBFDC
:10382000FFF7FEBFFFF7FEBFFFF7FEBFFFF7FEBFCC
:10383000FFF7FEBFFFF7FEBFFFF7FEBFFFF7FEBFBC
:10384000FFF7FEBFFFF7FEBFFFF7FEBFFFF7FEBFAC
:10385000FFF7FEBFFFF7FEBFFFF7FEBFFFF7FEBF9C
:10386000FFF7FEBFFFF7FEBFFFF7FEBFFFF7FEBF8C
:10387000FFF7FEBFFFF7FEBFFFF7FEBFFFF7FEBF7C
:10388000FFF7FEBFFFF7FEBFFFF7FEBFFFF7FEBF6C
:10389000FFF7FEBFFFF7FEBFFFF7FEBFFFF7FEBF5C
:1038A000FFF7FEBFFFF7FEBFFFF7FEBFFFF7FEBF4C
:1038B000FFF7FEBFFFF7FEBFFFF7FEBFFFF7FEBF3C
:1038C000FFF7FEBFFFF7FEBFFFF7FEBFFFF7FEBF2C
:1038D000FFF7FEBFFFF7FEBFFFF7FEBFFFF7FEBF1C
:1038E000FFF7FEBFFFF7FEBFFFF7FEBFFFF7FEBF0C
:1038F000FFF7FEBFFFF7FEBFFFF7FEBFFFF7FEBFFC
:10390000FFF7FEBFFFF7FEBFFFF7FEBFFFF7FEBFEB
:10391000FFF7FEBFFFF7FEBFFFF7FEBFFFF7FEBFDB
:10392000FFF7FEBFFFF7FEBFFFF7FEBFFFF7FEBFCB
:04393000FFF7FEBFE0
:04000005080037E5D3
:00000001FF
