:020000040800F2
:1000000050070020593F0008E93E0008EB3E000879
:10001000ED3E0008EF3E0008F13E00080000000041
:10002000000000000000000000000000F33E000897
:10003000F53E000800000000F73E0008F93E000809
:100040007B3F00087F3F0008833F0008873F000890
:100050008B3F00088F3F0008933F0008973F000840
:100060009B3F00089F3F0008A33F0008A73F0008F0
:10007000AB3F0008AF3F0008B33F0008B73F0008A0
:10008000BB3F0008BF3F0008C33F0008C73F000850
:10009000CB3F0008CF3F0008D33F0008D73F000800
:1000A000DB3F0008DF3F0008E33F0008E73F0008B0
:1000B000EB3F0008EF3F0008F33F0008F73F000860
:1000C000FB3F0008FF3F000803400008074000080E
:1000D0000B4000080F4000081340000817400008BC
:1000E0001B4000081F40000823400008274000086C
:1000F0002B4000082F40000833400008374000081C
:100100003B4000083F4000084340000847400008CB
:100110004B4000084F40000853400008574000087B
:100120005B4000085F40000863400008674000082B
:100130006B4000086F4000087340000877400008DB
:100140007B4000087F40000883400008874000088B
:100150008B4000088F40000893400008974000083B
:100160009B4000089F400008A3400008A7400008EB
:10017000AB400008AF400008B3400008000000009A
:10018000B7400008BB4000082DE9F84F0FF2B01946
:10019000A2B0D9E90045CDE900452C9EDFF80C9CC2
:1001A00004918DF8436000210FF29C140D9112947C
:1001B0004FF0FF36824615461F460FE0AB464446D9
:1001C0001BF8011B0498D0470028049000F0A6807B
:1001D0000D98401C641E0D90F2D1454428782528C6
:1001E00007D100210791089109910A910B910C9177
:1001F0000FE06A463146284600F0DAFF5FEA000861
:1002000001D10D98A4E0D9D54FF00108E5E741F000
:10021000010115F8010F2028F9D023280CD02B2834
:1002200004D02D2805D0302809D079E041F0020112
:10023000EFE741F00401ECE741F00801E9E741F0A4
:100240001001E6E700200F9009E00F98484505DA15
:1002500000EB800302EB4302303A0F926D1C2A78C8
:10026000A2F130000A28F0D32A782E2A18BF0E9661
:1002700023D115F8010F2A2807D1386838606D1C82
:1002800050F8042B38600E9217E02D280CBF15F89B
:10029000010B002000220E920AE040B90E9A4A4556
:1002A00005DA02EB820403EB4403303B0E936D1C32
:1002B0002B78A3F130020A2AEFD3ADF84010129840
:1002C000297800F081FF08B115F8010B8DF8420084
:1002D0009DF84200682804BF2978682903D162206C
:1002E0008DF8420007E06C2804BF28786C2803D101
:1002F00071218DF842106D1C13A806903A4615F82E
:10030000013B02A9504600F063F838B913AA02A9CC
:10031000504600F0C5F900287FF560AF304617E081
:100320002A288FD13A683A6052F8040B3A600028C4
:100330000F9003D540420F9041F004016D1C93E7EC
:100340000000000000000000686A6C747A4C000035
:1003500023B0BDE8F08F622820D0682811D06A2829
:1003600003D06C2827D0712825D10868C01D20F043
:1003700007000860D0E900230830086019461046DD
:100380007047002A0A680A60106803D0121D0A60CC
:1003900000B217E0121D0A6080B217E0002A0A6856
:1003A0000A60106803D0121D0A6040B20AE0121DF4
:1003B0000A60C0B20AE0002A0A680A60106803D026
:1003C000121D0A60C1177047121D0A600021704794
:1003D0007CB50D4611461C462E69B4F1250200F08D
:1003E0004D811C3A00F08680121F022A40F2828062
:1003F0000E3A00F00781521F5AD0093A7AD0921E65
:1004000016D0521E35D0521E022A73D9121F30D078
:10041000521F00F09A80521E4AD0521E00F0E48013
:10042000D21E00F0FD80921E42D0D21E40D02BE1A1
:1004300095F83A206C2A09D06869421C6A610A68FA
:100440000A6052F8043B0A60335427E10A680A60E4
:1004500052F8043B0A600021009301914FF0FF32F3
:100460002A6329466A4600F096F9002840F1168171
:1004700001E195F83A000122FFF76DFFC5E900019F
:100480000023994204DA6869411C69612D210DE05D
:10049000288F810704D56869411C69612B2105E01B
:1004A000C00722D56869411C6961202131541CE0D4
:1004B00095F83A000022FFF74EFFC5E9000195F8D4
:1004C0003800010711D5D5E900230020834208BF79
:1004D00082420AD044F02000782806D16869302191
:1004E0003154401C411C69613454214668693044D0
:1004F000E86083E00868C01D20F007000860D0E9CC
:10050000002308300860C5E90023D5E90001C80FC1
:1005100004D06869411C69612D210DE0288F810795
:1005200004D56869411C69612B2105E0C00704D529
:100530006869411C69612021315468693044E86070
:100540002146284600F032FAA8E005F13A02507838
:1005500020B14FF0FF340FF6FC2070E010786228D5
:1005600008D0682824D06A2812D06C282ED0712890
:100570000ED02BE00A680A6052F8040B0A6020B91A
:100580004FF0FF340FF6E42059E0E96A017085E08E
:100590000A680A6052F8040B0A6020B94FF0FF3471
:1005A0000FF6C8204BE0EA6AD317C0E9002375E0D4
:1005B0000A680A6052F8040B0A6020B94FF0FF3451
:1005C0000FF6A8203BE0E96A018067E00A680A604C
:1005D00052F8040B0A6020B94FF0FF340FF68C205C
:1005E0002DE0E96A016059E00A680A6052F8040BDC
:1005F0000A600021C5E90001EE607821284600F07C
:1006000029F94BE06C2285F83A200B680B6053F80F
:10061000042B0B6052BB4FF0FF340FF684200EE02A
:1006200095F83A206C2AF0D00868086050F8044B1E
:100630000860EC603CB94FF0FF340FF6482000F042
:10064000DDFD201A76BD2E6B002E04D5204600F06D
:10065000F7FD044608E032460021204600F00CFE7B
:10066000002814BF041B3446AC6117E0294600F093
:1006700092F8002812D54FF0FF3076BD6869411C12
:1006800069612521315409E06969481C68612522A6
:100690007254210002D0411C69613454002076BD9F
:1006A0002DE9F0410E460546716B7069B46A091A6E
:1006B000306A091AB069091A706A091AF069091AC8
:1006C00096F838000C1B410790460DD4002C0BDD2A
:1006D0002746B0682021A8470028B06057D0F06AAC
:1006E000401C7F1EF062F4D17369424631462846B1
:1006F00000F099FC00284AD1376A002F0ADDB06863
:100700003021A8470028B06041D0F06A401C7F1E0D
:10071000F062F4D1B369F2683146284600F083FCF8
:10072000A8BB776A002F09DDB0683021A847B06008
:1007300068B3F06A401C7F1EF062F5D1F068B169C1
:10074000F36942183146284600F06DFCF8B9B76AE3
:10075000002F09DDB0683021A847B060B8B1F06A59
:10076000401C7F1EF062F5D196F8380041070BD58A
:10077000002C09DDB0682021A847B06038B1F06ACC
:10078000401C641EF062F5D10020BDE8F0814FF0FE
:10079000FF30BDE8F0812DE9F8470D46A3B02F6B7F
:1007A000002F8146904648BF6FF0004700F090FD53
:1007B000696B40180FF604118128D1E90023CDE9B7
:1007C000012328BF4FF0FF303ED20024002F2FDD41
:1007D000D8F8001001AA684600F0ECFC0646002E8E
:1007E00035D4D8F8000008B9761E30D4B7421FDBE4
:1007F0006869301881280AD30020686303AA294653
:100800004846FFF74DFF040012D40020686103A89A
:10081000D5F814A032466946504400F05FFDB2445A
:10082000C5F814A058F8040B002818BFBF1BCDD181
:100830002CB903AA29464846FFF732FF044614B9EB
:10084000002068616863204624B0BDE8F0874FF05F
:10085000FF34F8E72DE9FC4704468A462569BAF1DA
:100860006F0F08BF082605D04AF02001782914BF71
:100870000A2610263C27D4E90023BAF1640F18BFDA
:10088000BAF1690F9046994606D100218B4203DAEE
:10089000D8F1000869EB49090020814508BF80456F
:1008A0001FD1206BE8B9082E4CD194F8380001070D
:1008B00048D530203B2785F83B0043E000280ED583
:1008C00094F8380000F01400102808D1626B6069B9
:1008D000121A206A121A511A0029C8BF2162BDE8F3
:1008E000F3878DF800A0404649463246F31700F0E2
:1008F00049FD3032D2B27F1E3A2A019704DB9DF8BF
:100900000000A0F151018A18EA5540464946324696
:10091000F31700F037FD804689460020814508BF67
:10092000804503D0E068E9198842DCD3082E09D15C
:1009300094F83800010705D5E95D302902D07F1E03
:100940003020E855C7F13C01A161E819E060206B57
:100950008142B3DA411A21624FF6EF70218F0140D4
:100960002187BDE8F3872DE9D04306460F4614469C
:100970004FF00008DFF8389412E0E00707D5424650
:100980004B463046394600F015FE06460F464046B7
:10099000494642464B4600F00DFE641080468946AB
:1009A000002CEAD130463946BDE8D0832DE9F34F1B
:1009B000054641F020048DB0D5E90089612C02AED6
:1009C00009D0286B002848BF062003D408BF672C35
:1009D00001D101202863D5E9002358004015401CAF
:1009E0000ED119030CD00320A8619DF8380061389E
:1009F0001A2802D20FF2CC6111E00FF2CC610EE0A6
:100A000058004015401C0FD119030DD10320A861D7
:100A10009DF8380061381A2814D30FF2B461E868E1
:100A2000032200F05BFCD3E1194621F00043B3F54B
:100A3000801F10460DD20027BB4208BFBA42019763
:100A400003D111E00FF28461E9E701AA00F084FE0E
:100A50000AE0DFF8607307EB1352DFF85C330192B2
:100A60001940DFF858331943C5E90001612C0ED154
:100A7000E86830210170811CE9609DF83810612917
:100A80000CBF7821582141706869801C6861D5E9E4
:100A900000AB2BF0004300202AF00002834204BF89
:100AA0008242002300F05A81612C40F0A980286B1B
:100AB00000284CBF2120401C00904046009F7F1C16
:100AC00049460022002300F07FFED94601988DF8A8
:100AD000082038BF89F00049001F0190002FD04640
:100AE0000DF1090040F3498140F2FF71DFF8D0B207
:100AF0000C910646404649460022002300F07CFE49
:100B000080F03A814800400D00F11C0210D0002A0C
:100B10000EDD0C98824205DB09F0004040EA0B0133
:100B2000002013E0A448084040EA025140460DE08E
:100B300029F00043002028F00002834208BF8242CF
:100B40000FBF40461C22404600F06EFE804689469C
:100B500000F008FFFF1F002F044609DD00F020FF12
:100B600002460B464046494600F02CFF8046894627
:100B7000F01D072104E004F00F0200F8012D2411FC
:100B8000002C01DD491EF6D5491E5CBF002200F88D
:100B9000012DF9D5ECE00020194602AA0A4400E034
:100BA0005B1E12F80149491E8442F9D00F2804D176
:100BB0000DF10900425C521C4254002904D50198F1
:100BC000001D02AE5B1C0190591E12D49DF8380026
:100BD0007218A0F13A04177830375FFA87F8B8F145
:100BE000390FC8BFA044491E02F80189F3D58DF81A
:100BF0003800286B002840F1B080591E2963ACE012
:100C0000404649460022002300F0DEFD019938BF2E
:100C100089F0004947F2975041436A4A91FBF2F24A
:100C20000192D2F1070204DD40464946FFF79BFEE0
:100C30000AE0524200206449FFF795FE02460B4647
:100C40004046494600F030FF8046662C286BDFF8AE
:100C50007CB106BF019F0A3706273F18142FC8BF73
:100C6000142730208DF8080089460DF1090000E0B6
:100C70003046002F34DD06464046494601F038F83C
:100C800001460A4606F1080304200A26B2FBF6F6DE
:100C900006EB860EA2EB4E02303203F8012C0A223C
:100CA000B6FBF2F202EB820EA6EB4E063036401E89
:100CB00003F8026DE9D1083F002F03F10806D7DDE4
:100CC000084601F029F802460B464046494600F026
:100CD00079FE00225B4600F06DFC80468946CBE73A
:100CE0000DF10901401A0DF1090604E00199491EB0
:100CF000401E0191761C31783029F7D0662C02D144
:100D00000199491C03E0652C0CBF012100212B6BCC
:100D1000CB189842B8BF431E002B1ED4834204DA7E
:100D2000F05C3528A8BF392000DA30201946721E41
:100D300002EB010800E05B1E18F80199491E81458D
:100D4000F9D0392802D1705C401C7054002904D5B8
:100D50000198401C16465B1C0190019800B200905F
:100D60001BB29DF838103246284600F034F82FE0C8
:100D7000C61D002F3FF7BEAE30460DF10901401AE7
:100D8000009903468842C8BF0B46002B0DF10906A7
:100D90003FF52FAF8342BFF6FEAE0DF10900C05CF8
:100DA00007287FF7F8AE0F20F6E60000CBCCCC0C7E
:100DB0000000244002FCFFFFFFFF0F800000E03F27
:100DC0000000F07FA08601000000F03F84D797412B
:100DD0000FB0BDE8F08F2DE9F84E83B006468B4684
:100DE00092461C4600F0E8F9002C406A376B90F8F8
:100DF000009002DC01240FF2DC2ABDF930504BF0E8
:100E00002000662808BF6D1C12D0672877D115F125
:100E1000040F7ADBBD4278DA96F838006D1C0107C2
:100E200002D4BC42B8BF27462DB27F1B48BF002763
:100E30002DB2F068B169002D22DC4A1C30234354E6
:100E4000002F03DC96F83800010703D5F06800F89E
:100E50000290521CEF42B8BF7D422DB2EF1968429A
:100E6000A742B8BF3C46B261706224B2F461F06838
:100E7000B36922465146184400F030FA3F1B18E08F
:100E80002A469442084416DA2246514600F026FAD1
:100E9000B0692018B0612C1B002F746203DC96F837
:100EA00038100A0705D5F16801F80090F069401C78
:100EB000F061B762A0E0514600F010FAB06928185E
:100EC000641B002F03DC96F838100A0703D5F1687D
:100ED00001F80090401CB06124B2A742B8BF3C4664
:100EE000F068B36924B222460AEB0501184400F009
:100EF000F5F9B0692018B0613C1B74627CE0BBF16D
:100F0000610F14D14FF0700B16E0BC4204DA96F872
:100F100038100A0758BF27467F1E48BF0027BBF17D
:100F2000670F14BF4FF0450B4FF0650B04E0BBF1AA
:100F3000410F08BF4FF0500BB169F368481CB06116
:100F4000002F1AF8012B5A5403DC96F838100A07C0
:100F500017D5F168431CB36101F80090002F10DD34
:100F6000641E24B2A742B8BF3C46F06824B22246B1
:100F70005146184400F0B2F9B0692018B0613F1B27
:100F80007762F068B1690844002D80F800B003D49E
:100F90002B214170811C03E02D2141706D42811C89
:100FA00000206A460AE02B460A2493FBF4F505EB81
:100FB0008504A3EB440302F8013B401C2DB2002D35
:100FC000F1DC012806DC4BF02002652A04BF302248
:100FD00001F8012B48B9302001F8010B07E0401E51
:100FE0001DF80020303201F8012B0028F7DCF068F2
:100FF000B2691044091AF16196F8380000F0140043
:1010000010280DD17169B0694118706A4118F069F2
:101010004118B06A4118706B8142BCBF411A3162FD
:1010200004B0BDE8F08EF8B505460E4617461C46DE
:10103000002074B117F8011BB068A847B06030B148
:10104000F06A401CF0620020641EF3D1F2BD4FF044
:10105000FF30F2BD7072696E74665F733A20256E60
:1010600020646973616C6C6F776564007072696E7F
:1010700074663A2062616420256E20617267756D26
:10108000656E74007072696E74665F733A20626197
:101090006420257320617267756D656E74000000B1
:1010A0007072696E74665F733A2062616420256CA9
:1010B0007320617267756D656E740000000000003A
:1010C000000000006E616E004E414E00696E6600C9
:1010D000494E46003000F0B4024610689568131877
:1010E000506803EB5004C00721D54D441FE0F0BC0D
:1010F00002F10C00704713F8017B05F8017B491ED3
:10110000F9D1A0B1B60813F8011B06F00306032EAF
:1011100008BF13F8016B01EB06214942801C2944EA
:1011200005D011F8016B05F8016B401EF9D1A342FF
:10113000DDD013F8016B16F0030104BF13F8011B97
:10114000C91C30090F28DAD113F8010B0F30D6E78C
:101150001B48704730B45368D418042B09DA41B1E6
:10116000057804F8015B10F8015B15B15B1C491EA2
:10117000F3E7536030BC704738B514461D4661B183
:10118000FFF7E8FF61686A6B204690476FF0010245
:10119000811A02D0491E03D005E06FF0010032BD74
:1011A0004FF0FF3032BD0021616032BDDA6B104775
:1011B000034BE1E7024BF9E70248704700000000EB
:1011C00058000020200000200278C9B28A421AB1DB
:1011D0001CBF10F8012FF9E718BF00207047B1F5C8
:1011E000807F02D34FF0FF307047017001207047BD
:1011F0000078401E8041C043C00F704780B508B9D9
:101200000FF21C0005490B681BB1222200219847F0
:1012100001E000F08EFD222002BD0000440300200A
:10122000636F6E73747261696E742068616E646C52
:1012300065723A20626164206D6573736167650051
:1012400000F10103810704D010F8011B89B1810767
:10125000FAD10268B2F10131914311F0803F04BF2D
:1012600050F8042FF6E710F8011B11B110F8011B1C
:10127000FBE7C01A70470000C9B2830706D0521EB0
:1012800022D310F8013B9942F7D11FE0083A13D35B
:1012900002F1040241EA012141EA014150F8043B14
:1012A000121F21BF4B40A3F1013C2CEA030C1CF0A0
:1012B000803FF3D0C9B2001F083210F8013B521E24
:1012C00028BF91EA030FF8D818BF0120401E7047CD
:1012D00080B5FFF73DFF006C02BD000062B38B07D5
:1012E00008D0521E11F8013B00F8013B00F02480A9
:1012F0008B07F6D1830740F0208000BF103A07D358
:1013000030B4B1E83810103AA0E83810F9D230BC47
:10131000530724BFB1E80810A0E8081044BF51F8F3
:10132000043B40F8043BD20724BF31F8022B20F8DD
:10133000022B44BF0B7803707047121F17D35B005A
:1013400009D151F8043B20F8023B1B0C121F20F876
:10135000023BF6D20BE051F8043B00F8013B1B0ABC
:1013600020F8023B1B0C121F00F8013BF3D238BFE0
:10137000121D521E24BF11F8013B00F8013BF8D8A2
:1013800070470000B3BBD9B1B2F5803F7DD2022ACD
:101390001ED98C46B1FBF2F102FB11C31B0443EAD8
:1013A0001043B3FBF2FC02FB1C3380B240EA034360
:1013B000B3FBF2F002FB103240EA0C40002370470E
:1013C000022A05D98446B0FBF2F002FB10C2704736
:1013D0004AB105D100F0010249085FEA30007047C8
:1013E00000220023704700F0A7BC0B000200002180
:1013F00000207047904271EB030CF6D3B3F5803FA9
:101400002FD2F0B5B3FA83F7B1FA81F4A7F10F0E3A
:101410003D1B5340CEF1200602FA0EF2F341534039
:10142000B5F10F0746D80F3C2C444140C4F12006CB
:10143000A040F1414140B1FBF3F603FB1611A2FBC2
:101440000645001BA94102D2761E8018594180EA48
:10145000010221FA0EF362FA0EF200215A403046E0
:10146000F0BD30B4B1FBF3FC03FB1C11A2FB0C4537
:10147000001BA94103D2ACF1010C8018594130BCCA
:1014800002460B46604600217047B2F1807F65D36B
:10149000F0B5B2FA82F7B1FA81F4C7F10F063D1B3D
:1014A00022FA06F307F1110EF24120355A40B5F148
:1014B0000F07B8D94140C4F12006A040F141414096
:1014C000B1FBF3FC03FB1C11A2FB0C45001BA94163
:1014D00003D2BCF1010C801859410F2F12D30F3FDA
:1014E000C90341EA5041B1FBF3F603FB1611A2FB1D
:1014F0000645D4EBC030A94102D2761E801859416E
:1015000046EACC3C07B34140C7F12006B840F14160
:101510004140B1FBF3F603FB1611A2FB0645001B8D
:10152000A94102D2761E8018594180EA010221FAAF
:101530000EF3C7F1200462FA0EF20CFA07F05A40DB
:101540002CFA04F13043F0BD80EA010221FA0EF3D7
:10155000002162FA0EF260465A40F0BD8C46B1FBA3
:10156000F2F102FB11C31B0243EA1063B3FBF2FC6E
:1015700002FB1C331B024CEA002043EA1063B3FB5E
:10158000F2FC02FB1C331B024CEA002043EA10630E
:10159000B3FBF2FC02FB1C331B024CEA002043EAC3
:1015A0001063B3FBF2FC02FB1C324CEA0020002368
:1015B00070470000B0B581EA030C0CF0004C40F21B
:1015C000FF7515EA11541DBF15EA1357AC42AF421F
:1015D00039E0E41923EA455343F48013C90241F08A
:1015E000004141EA505EC7021100A7FB0202002839
:1015F0004FF00000EEFB01204FF00001E3FB07215C
:1016000018BF42F00102401800214941E3FB0E01DE
:10161000A4F580640F0302D252004041494154F1C5
:1016200001046CDD470872F1004250F1000051EBFB
:101630000451A1F580115CBF41EA0C01B0BD4CEA38
:1016400005510020B0BD05EA1357AC4214BFAF42AC
:1016500041E050EA410E1CBF52EA430E02E06146EF
:101660000020B0BD24423C441BD15FEA070EF6D0F7
:10167000090302BF01460020AEF1140EB1FA81F752
:10168000AEEB070401FA07FE0C37C7F1200100FAA0
:1016900007F7C8404EEA000E23EA455343F480138F
:1016A000A2E733F00043B3FA83F704BFB2FA82FE35
:1016B00077440B3FE41BB7F1200E2FBF02FA0EF365
:1016C000BB40C7F1200E22FA0EFE38BF43EA0E03DC
:1016D000BA40641C82E750EA410E14BF52EA430E3E
:1016E0006FF000014FF4001717EB430F8ABF194644
:1016F00017EB410FB5E74CEA05510020B0BDD4F11E
:101700000104B4F120070FDAC4F12007520828BF02
:1017100042F0010210FA07F501FA07F7E1BF2A4388
:10172000E0403843E1400FE0352C98DCC7F120045D
:1017300052EA400220FA07F218BF42F0010231FAE1
:1017400007F0A1400A43002172F1004250F100006D
:1017500051EB0C01B0BD000010B5144600F002F8CA
:10176000226010BDC1F30A5343B14A0012F5001FB5
:1017700028D2A3F2FE32A1EB0251704750EA410C8D
:1017800020D001F0004C31EA0C01B1FA81F204BF23
:10179000B0FA80F3D2180B3AB2F120032CBF00FA52
:1017A00003F1914041EA0C013EBFC2F1200C20FA46
:1017B0000CF319439040524240F2FD33D21A01EB30
:1017C00003517047002270474FF4001C1CEB410F7F
:1017D00094BF1CEB430F09E041EA030C50EA4C0CA8
:1017E00052EA0C0C03D2994208BF9042704714BFD2
:1017F0008B428242704700004FF4001C1CEB410FEB
:1018000094BF1CEB430F09E041EA030C50EA4C0C77
:1018100052EA0C0C03D28B4208BF8242704714BFBD
:101820009942904270470000124254D440F2FF7C2B
:101830001CEA11530FD0634531D09B1863453CBF60
:1018400001EB0251704701F0004141EA0C510020C8
:10185000AFF30080704750EA410320D001F0004C04
:1018600091EA0C011CD0B1FA81F30B3B9A420DD9DD
:10187000D21A994051EA0C01C3F1200C20FA0CFC59
:1018800061449840531C40F2FF7CD7E7914041EA05
:101890000C01C2F1200C20FA0CF319439040704760
:1018A000B0FA80F31533202BE0D3202AEED3203A70
:1018B000203B9A4209D9D21A00FA03F141EA0C01FD
:1018C0000020531C40F2FF7CB8E700FA02F141EA25
:1018D0000C0100207047524240F2FF7C1CEA115379
:1018E0000DD06345DBD0B2EB030C3CBFA1EB025142
:1018F00070470CF1010221EA035141F4801150EAD2
:10190000410CCCD001F0004C352A27DC30B481EA00
:101910000C01B2F1200309DAC2F12003044601FAF6
:1019200003F5D0402843D1409C400CE0C3F1200295
:10193000450020FA03F418BF44F0010421FA03F033
:1019400091400C43002174F1004550F1000051EB2F
:101950000C01244230BC7FF47BAF7047614600200D
:1019600076E70000C1F30A5340F2FE329B1A14DD01
:10197000D3F120034FEAE17208DDC90241EA505178
:1019800041F00040D84080185040704703F2E130E9
:1019900010B1D24382F00040704700207047000031
:1019A000C11768B14840401AB0FA80F29040D21C8A
:1019B000C907C2F5846241EA025202EBD021400518
:1019C0007047000070B44FF0004591EA030F40F1FA
:1019D000B5816B40841A71EB030603D2001BB14141
:1019E000121973414FF4001C1CEB410F34BF7CEB08
:1019F000430442E00C0DA4EB1356352E4FDC45EAB0
:101A0000C323DB0A45EAC121C912B6F120050DDD69
:101A100063FA05F6EB4086EA0305124218BF45F06B
:101A20000105C01851F100010CD213E062FA06F56D
:101A3000F2405540F3415A40B340F3405A408018B9
:101A4000594107D349085FEA30005FEA350528BFEE
:101A500045F0010501F58011420875F1004250F191
:101A6000000041EB04514E0016F5001F70BC38BF5A
:101A700070470020090D090570471CEB410F10D27B
:101A800052EA43060BD0BCEB410F05D80C0DAB431B
:101A9000661E342EB6DD02E0AB438018594170BC9F
:101AA000704770BC70470000F0B540F2FF7581EAE6
:101AB000030C0CF0004C15EA11541DBF15EA135726
:101AC000AC42AF42E5E0BC41C1F31301C3F31303E1
:101AD000801A994143F4801304D2641E40004941A6
:101AE00080185941C90241EA5051B1FBF3F603FB9A
:101AF0001611A2FB0675D7EBC020A94102D2761EB3
:101B000080185941C90241EA5051B1FBF3FE03FB71
:101B10001E11A2FB0E75D7EBC020A94103D2AEF176
:101B2000010E80185941890241EA9051760546EA32
:101B30008E2EB1FBF3F603FB1611A2FB0675D7EB55
:101B40008020A94102D2761E80185941C90241EA7B
:101B500050514EEA060EB1FBF3F603FB1611A2FB41
:101B60000675D7EBC020A94102D2761E80185941D4
:101B7000C90241EA5051B1FBF3F703FB1711A2FB75
:101B80000735D3EBC020A94167F100070CBF004225
:101B900047F0010766F3D5274FEA1E31B80814F560
:101BA000806412DDBD0775F1004250EB0E5051EB21
:101BB000045111F5801F5CBF41EA0C01F0BD4CF0EF
:101BC0007F6141F0E0410020F0BDBD076D0840EAB3
:101BD0000E5041F48011D4F10104B4F120060ADA68
:101BE000C4F120060200E04001FA06F3E140184388
:101BF000B24015430EE0342C13DCC6F1200445EA54
:101C000040056D0820FA06F2154321FA06F0A140BE
:101C10000D43002175F1004250F1000051EB0C0121
:101C2000F0BD00205FEA0C01F0BDCFB992185B4116
:101C3000B3FA83F704BFB2FA82F6BF190B3FB7F1CC
:101C400020062FBF02FA06F3BB40C7F1200622FA96
:101C500006F638BF3343BA401CB1E419641E33E7BB
:101C60007F4231F00041B1FA81F404BFB0FA80F64E
:101C7000A4190B3CB4F120062FBF00FA06F1A140D5
:101C8000C4F1200620FA06F638BF3143A0403C1BC1
:101C90001AE7AC421ABF05EA1357AF4212E050EA06
:101CA00041061CBF52EA4306BFE750EA41073046EF
:101CB00061461CBF41EA0551F0BD52EA430C08BF22
:101CC000C143F0BD00204FF4001616EB410F98BF42
:101CD00016EB430F08BF16EB410F24BFC14305E0CD
:101CE00016EB430F0CBF61464CEA0551F0BD0000F6
:101CF000400D491840EA81200CD2490DA1F58061C0
:101D0000491C40F0004005DBD1F11F0154BFC84021
:101D1000C017704700207047014648B1B0FA80F103
:101D20008840C91CC1F58461090501EBD02140053B
:101D30007047012000F0B6B870470000841A71EBBC
:101D4000030604D26E40001BB141121973414FF4D7
:101D5000001C1CEB410F34BF7CEB430682E00C0DF2
:101D6000A4EB1356362E7BDC012E45EAC32341DC5F
:101D700043EA525312BFD20292025B08240545EA9D
:101D8000C12141EA5051D2EBC020994125D407D15D
:101D9000B0FA80F610FA06F162D00020203608E092
:101DA000B1FA81F6B140C6F1200220FA02F21143E5
:101DB000B0404FEAF474B4EB465434F001064FEAF5
:101DC00074040AD8D6F50016760D04F00044F040ED
:101DD00061FA06F25040F1404840C00A40EA4150E2
:101DE00021F0004128BF5FEA500550F1000044EBAC
:101DF000D12135E0DB0A45EAC121C90AB6F1200547
:101E00000EDD42EA0242120CC5F1200603FA06F684
:101E1000EB4042EA06056D42984161F100010DE098
:101E200062FA06F5F240554063FA06FC82EA0C02BB
:101E3000F3405A406D42904161EB030111F4801F61
:101E400005D1641E620502D06D004041494121F474
:101E50008011430875F1004350F1000041EB04513B
:101E600070BC70471CEB410F15D223F0004352EABF
:101E700043060BD04FEA4C0CBCEB410F04D80C0DC1
:101E8000661E342EB7DDEBE7801A994150EA410611
:101E900008BF0021E4E708BF1CEB430F28BF6FF029
:101EA0000001DDE780B500F007F8024A11001820B4
:101EB000ABBEFBE72600020010B500F052F80200AE
:101EC0000023DB4300241068984203D01100022055
:101ED000ABBE14605068984203D0111D0220ABBE07
:101EE000546010BDF0B583B0040000F03AF8A100D2
:101EF00047183D680026F643B54216D100F01AF89F
:101F00003D68B5420FD100BF09A00090002C01D15F
:101F1000002000E004200190032002906946012087
:101F2000ABBE05003D6000F014F8280003B0F0BD22
:101F30003A7474000C480121BFF35F8FD0E84F3F23
:101F4000C0E8421F002AF9D1BFF35F8F002BF3D105
:101F500070470548BFF35F8F00210170BFF35F8FAB
:101F600070470248704700004C0300209801002091
:101F70002DE9F8430400002C01D1012042E3DFF8F1
:101F8000CC08056815F00C05DFF8CC08D0F8008007
:101F900018F003082078C00640F1DB80002D06D041
:101FA0000C2D40F08780B8F1010F40F08380DFF8FE
:101FB00098080068800704D5A069002801D1012095
:101FC00020E3DFF884080068000705D5DFF878080B
:101FD000006810F0F00005E0DFF81809006800095B
:101FE00010F0F000216A884224D2206A00F036FC0A
:101FF000002801D0012005E3DFF84C08006850F00C
:102000000800DFF844180860DFF83C08016831F088
:10201000F001206A0143DFF830080160DFF8D808DA
:10202000006830F47F40E16950EA0120DFF8C81809
:10203000086023E0DFF81008006850F00800DFF8BF
:1020400008180860DFF80008016831F0F001206A24
:102050000143DFF8F4070160DFF89C08006830F402
:102060007F40E16950EA0120DFF88C180860206A9F
:1020700000F0F4FB002801D00120C3E200F076FB61
:10208000DFF87818DFF8C4271268C2F30312895CFE
:1020900011F01F01C840DFF8B8170860DFF8B40777
:1020A000006800F03FFC0600F6B2002E51D0300070
:1020B000C0B2A7E2A069002834D0DFF88C0700681E
:1020C00050F00100DFF88017086000F05DFC0700A9
:1020D000DFF874070068800706D400F055FCC01BC9
:1020E0000328F5D303208DE2DFF85C07006850F089
:1020F0000800DFF854170860DFF84C07016831F07A
:10210000F001206A0143DFF840070160DFF8E807CB
:10211000006830F47F40E16950EA0120DFF8D81709
:10212000086016E0DFF82007006840084000DFF88C
:102130001817086000F028FC0700DFF80C0700689B
:10214000800706D500F020FCC01B0328F5D3032030
:1021500058E22078C00763D5082D04D00C2D0CD18F
:10216000B8F1030F09D1DFF8E0060068800357D506
:102170006068002854D1012044E26068B0F5803FD7
:1021800008D1DFF8C406006850F48030DFF8B816D4
:10219000086024E06068B0F5A02F10D1DFF8A80631
:1021A000006850F48020DFF8A0160860DFF8980679
:1021B000006850F48030DFF8901608600FE0DFF818
:1021C0008806006830F48030DFF87C160860DFF89D
:1021D0007806006830F48020DFF86C1608606068CC
:1021E00000280ED000F0D0FB0700DFF85C06006886
:1021F000800315D400F0C8FBC01B6528F5D303206D
:1022000000E200F0C1FB0700DFF83C060068800335
:1022100006D500F0B9FBC01B6528F5D30320F1E11A
:102220002078800759D5042D04D00C2D18D1B8F191
:10223000020F15D1DFF810060068400504D5E068EC
:10224000002801D10120DDE1DFF8AC06006830F0A4
:10225000F850216950EA0160DFF89C1608603CE004
:10226000E068002822D0DFF8E005006850F48070B4
:10227000DFF8D415086000F087FB0700DFF8C80519
:102280000068400506D400F07FFBC01B0328F5D38F
:102290000320B7E1DFF86006006830F0F8502169EC
:1022A00050EA0160DFF85016086016E0DFF8980584
:1022B000006830F48070DFF89015086000F064FB6F
:1022C0000700DFF884050068400506D500F05CFBD8
:1022D000C01B0328F5D3032094E12078000730D5F4
:1022E0006069002816D0DFF80C06006850F0010085
:1022F000DFF80016086000F047FB0700DFF8F40580
:10230000006880071DD400F03FFBC01B0328F5D3F5
:10231000032077E1DFF8DC05006840084000DFF8C3
:10232000D415086000F030FB0700DFF8C80500682E
:10233000800706D500F028FBC01B0328F5D3032037
:1023400060E12078400740F196805FF00009DFF8F7
:10235000B0050068C00010D4DFF8A405006850F094
:102360008050DFF89C150860DFF89405006810F0D5
:1023700080500090009801208146DFF888050068B1
:10238000C00516D4DFF87C05006850F48070DFF8D3
:102390007415086000F0F8FA0700DFF868050068B7
:1023A000C00506D400F0F0FAC01B0328F5D30320C3
:1023B00028E1A068012808D1DFF84C05006850F03A
:1023C0000100DFF84415086023E0A068052810D15B
:1023D000DFF83405006850F00400DFF82C150860C1
:1023E000DFF82405006850F00100DFF81C150860D4
:1023F0000FE0DFF81405006840084000DFF808151A
:102400000860DFF80405006830F00400DFF8F81415
:102410000860A068002810D000F0B6FA0700DFF8C6
:10242000E8040068800719D400F0AEFAC01B41F23E
:1024300089318842F3D30320E4E000F0A5FA0700D5
:10244000DFF8C4040068800708D500F09DFAC01BBF
:1024500041F289318842F3D30320D3E05FFA89F94E
:10246000B9F1010F07D1DFF89804006830F080500F
:10247000DFF88C140860A06A002800F0C2800C2DE0
:1024800000F08880A06A022856D1DFF8BC030068FB
:1024900030F08070DFF8B013086000F075FA814604
:1024A000DFF8A4030068800107D500F06DFAB0EBF7
:1024B00009000328F4D30320A4E0DFF89C0301689B
:1024C000DFF848040140E06A0143206B401E51EAF6
:1024D0000011606B51EA0021E06B4008401E51EA98
:1024E0004051206C4008401E51EA4061A06B000939
:1024F00051EA4041DFF860030160DFF84C030068F7
:1025000050F08070DFF840130860DFF84C0300687B
:1025100050F08070DFF84013086000F035FA0700D3
:10252000DFF82403006880016BD400F02DFAC01B93
:102530000328F5D3032065E0DFF80C03006830F0D2
:102540008070DFF804130860DFF8FC02006810F008
:10255000205F07D1DFF80003006880088000DFF803
:10256000F8120860DFF8F0020168DFF8A403014008
:10257000DFF8E402016000F007FA0700DFF8C802A4
:10258000006880013DD500F0FFF9C01B0328F5D39A
:10259000032037E0A06A012801D1012032E0DFF8F2
:1025A000B8020068804618F00300E16A884226D12C
:1025B00018F07000216B491EB0EB011F1FD118F4F9
:1025C000FE40616BB0EB012F19D1A06B072801D140
:1025D000002000E0012018F4003181420FD118F4EE
:1025E000C000E16B4908491EB0EB415F07D118F00C
:1025F000C060216C4908491EB0EB416F01D0012039
:1026000000E00020BDE8F28370B504000D00002C4E
:1026100001D10120A9E0DFF8FC02006810F00700FA
:10262000A84211D2DFF8EC020068C008C0002843BD
:10263000DFF8E0120860DFF8DC02006810F0070045
:10264000A84201D0012090E02078C0073FD5606803
:10265000032805D17C480068800119D4012084E05A
:102660006068022805D178480068800310D40120F2
:102670007BE06068002805D173480068800707D4B4
:10268000012072E070480068400501D401206CE030
:10269000DFF8B80101688908890060680143DFF844
:1026A000AC01016000F070F90600DFF8A0010068DD
:1026B00010F00C006168B0EB810F08D000F064F9F5
:1026C000801B41F289318842EFD303204DE020780E
:1026D000800707D55D48016831F0F001A06801432B
:1026E0005A480160DFF82C02006810F007008542AC
:1026F00011D2DFF820020068C008C0002843DFF8CC
:1027000014120860DFF80C02006810F00700A842FD
:1027100001D0012029E02078400707D54B48016807
:1027200031F4E061E0680143484801602078000727
:1027300008D54648006830F46050216950EAC1006D
:102740004249086000F012F8DFF8B0113F4A126801
:10275000C2F30312895C11F01F01C8403C490860B4
:102760003C48006800F0DEF8C0B270BDF0B400264E
:1027700000203649096811F00C01374F3F6817F007
:102780000307002903D00C291DD1012F1BD1DFF82D
:10279000B8C0DCF800C05FEA0C7C06D4DFF854C196
:1027A000DCF800C0CCF3032C05E0DFF89CC0DCF8BB
:1027B00000C0CCF3031CDFF8606156F82C600029E0
:1027C0000CD130000AE0042903D1DFF850C1604683
:1027D00004E0082902D1DFF848C160460C2931D154
:1027E000DFF874C0DCF800C01CF0030C63469C46A4
:1027F000BCF1020F03D0BCF1030F03D005E0DFF8FA
:102800001CC103E0DFF818C100E0B446124A1268A8
:10281000C2F30212521C15000F4A1268C2F30622BC
:1028200002FB0CFCBCFBF5F2DFF82CC0DCF800C0AE
:10283000CCF3416C1CF1010C5FEA4C0C6446B2FB1A
:10284000F4FC6046F0BC70470010024008100240E3
:102850001C000020140000200C10024038B50400B9
:10286000002527480068C00003D500F093F8010058
:1028700014E02348006850F0805021490860204847
:10288000006810F080500090009800F083F801007C
:102890001B48006830F08050194A1060B1F5007F85
:1028A00009D1812C15D3A12C02D30220050010E000
:1028B000012005000DE0812C02D30320050008E073
:1028C000802C02D10220050003E0702C01D10120F0
:1028D000050010480068C008C00028430D4A106079
:1028E0000C48006810F00700A84201D0012000E069
:1028F000002032BD9410024004100240483F0008FE
:102900005810024000700040901002408C809DF9E9
:10291000FFFFEEFE00200240FC3D00080024F40012
:1029200000127A0038B50400002514480068002819
:102930001ED04FF47A7011490968B0FBF1F01049CC
:102940000968B1FBF0F000F0F7F800280DD1102C69
:1029500008D2002221005FF0FF3000F0D8F80948CB
:10296000046007E00120050004E00120050001E00B
:10297000012005002800C0B232BD00BF18000020B1
:102980001C0000201400002001480068704700BFB0
:1029900040030020DFF89400006810F4C060704726
:1029A0000200B2F5007F2CD1DFF88000006810F43F
:1029B000C060B0F5007F36D0DFF87000006830F4FA
:1029C000C06050F40070DFF864301860DFF8600019
:1029D000036832204343DFF85C00B3FBF0F0401C97
:1029E0000100DFF854000068400503D5002901D03C
:1029F000491EF6E7DFF840000068400513D50320C4
:102A000012E0DFF82800006810F4C060B0F5806FB5
:102A100009D0DFF81800006830F4C06050F480601E
:102A2000DFF8083018600020704700000070004098
:102A30001C00002040420F001470004010F00703FB
:102A4000DFF800110A684FF6FF010A40DFF8F810BE
:102A500051EA03210A43DFF8EC100A607047DFF8FF
:102A6000E4000068C0F30220704710B440B20028B0
:102A700004D40A01354B40B21A5407E00A01344B22
:102A800040B210F00F04234403F8042C10BC70472C
:102A900070B4030013F00704D4F10700052801D334
:102AA000042001E0D4F10700251D072D01D20025E7
:102AB00000E0E51E012616FA00F0401E0140A94084
:102AC000012010FA05F56D1E2A401143080070BC64
:102AD000704710B50400601EB0F1807F01D3012063
:102AE0000EE0601E1B4908600F215FF0FF30FFF70A
:102AF000BCFF002018490860072018490860002022
:102B000010BD10B504002000FFF798FF10BD2DE99F
:102B1000F04104000D0016000027FFF7A0FF8046DB
:102B2000320029004046FFF7B3FF0100200040B209
:102B3000FFF79BFFBDE8F08110B504002000FFF710
:102B4000C8FF10BD0CED00E00000FA0500E400E055
:102B500018ED00E014E000E018E000E010E000E014
:102B600010B50400002C01D101205CE0606A00284F
:102B70000020A06294F85D00002805D1002084F8B0
:102B80005C00200000F0FBFA022084F85D00206861
:102B9000006830F0400021680860E06840F2017190
:102BA000884201D3002101E04FF48051E068B0F584
:102BB000706F05D0E068B0F5E06F01D00020A06232
:102BC000206B002809D1E06840F20172904202D3E4
:102BD0000220206301E0012020636268A0680243B4
:102BE0002069024360690243A06910F40070024347
:102BF000E0690243206A0243A06A0243206802603F
:102C0000A269120C12F00402606A0243606B024374
:102C1000E06802430A4320684260002020660120E9
:102C200084F85D00002010BD2DE9FE4F80460D00A8
:102C300016001F000C9C5FF001095FF0000A98F875
:102C40005C00012801D10220A4E1012088F85C0089
:102C5000FFF79AFE834698F85D008DF80000D8F8DB
:102C600004000290ADF80270ADF804709DF8000009
:102C700001280ED00298B0F5827F07D1D8F808005D
:102C8000002803D19DF80000042802D002208246CB
:102C900078E1002D04D0002E02D0BFB2002F02D167
:102CA000012082466EE198F85D00042802D00520DC
:102CB00088F85D000020C8F86000C8F84060A8F8F7
:102CC0004670A8F84470C8F83850A8F83E70A8F8C4
:102CD0003C700020C8F84C000020C8F85000D8F81C
:102CE0000C0040F20171884203D2BDF804000228B2
:102CF00008D3D8F80000406830F48050D8F80010AD
:102D0000486007E0D8F80000406850F48050D8F8D8
:102D100000104860D8F800000068400607D4D8F8D2
:102D20000000006850F04000D8F800100860D8F8A3
:102D30000C0040F20171884265D3D8F804000028E5
:102D400003D0BDF8020001280FD1D8F83800008860
:102D5000D8F80010C860D8F83800801CC8F83800CF
:102D6000B8F83E00401EA8F83E00B8F83E00002823
:102D700004D1B8F84600002800F0F880D8F8000028
:102D80008068800718D5B8F83E00002814D0B9F143
:102D9000010F11D1D8F838000088D8F80010C860A9
:102DA000D8F83800801CC8F83800B8F83E00401E3B
:102DB000A8F83E0000208146D8F800008068C007CF
:102DC00015D5B8F84600002811D0D8F80000C06822
:102DD000D8F840100880D8F84000801CC8F840009F
:102DE000B8F84600401EA8F8460001208146FFF7CB
:102DF000CBFDB0EB0B00A042B7D314F1010FB4D060
:102E000003208246BEE0D8F80400002803D0BDF8B5
:102E10000200012824D1B8F83E00022810D3D8F8C7
:102E200038000088D8F80010C860D8F83800801C36
:102E3000C8F83800B8F83E00801EA8F83E000FE041
:102E4000D8F838000078D8F800100873D8F838009F
:102E5000401CC8F83800B8F83E00401EA8F83E00F4
:102E6000B8F83E00002803D1B8F8460000287DD00D
:102E7000D8F80000806880072DD5B8F83E000028FB
:102E800029D0B9F1010F26D1B8F83E00022810D39D
:102E9000D8F838000088D8F80010C860D8F8380092
:102EA000801CC8F83800B8F83E00801EA8F83E0024
:102EB0000FE0D8F838000078D8F800100873D8F878
:102EC0003800401CC8F83800B8F83E00401EA8F88A
:102ED0003E0000208146D8F800008068C00736D543
:102EE000B8F84600002832D0B8F8460002281CD3B3
:102EF000D8F80000C068D8F840100880D8F8400022
:102F0000801CC8F84000B8F84600801EA8F84600AB
:102F1000B8F84600022818D2D8F80000406850F4EB
:102F20008050D8F8001048600FE0D8F80000007B0F
:102F3000D8F840100870D8F84000401CC8F840008D
:102F4000B8F84600401EA8F8460001208146FFF769
:102F50001BFDB0EB0B00A04202D314F1010F02D114
:102F6000002C7FF47DAF032082460BE05A462100FF
:102F7000404600F0B4F8002804D00120824620200A
:102F8000C8F86000012088F85D00002088F85C0027
:102F90005046C0B2BDE8FE8F2DE9F04105000E009D
:102FA00017001C00DDF81880286880683040B042A7
:102FB00001D1012000E00020FFB2B8423AD014F164
:102FC000010FF1D0FFF7E0FCB0EB0800A04201D206
:102FD000002CE9D12868406830F0E000296848609A
:102FE0006868B0F5827F0DD1A868B0F5004F03D0B6
:102FF000A868B0F5806F05D12868006830F04000FF
:1030000029680860A86AB0F5005F0BD128680068DD
:1030100030F40050296808602868006850F40050B7
:1030200029680860012085F85D00002085F85C00B3
:10303000032000E00020BDE8F0812DE9F04106000A
:103040000F0014001D00DDF81880306880683840DB
:10305000A04241D0B7F5C06F03D1002C01D1306838
:10306000007B15F1010FF0D0FFF78EFCB0EB0800EC
:10307000A84201D2002DE8D13068406830F0E0006D
:10308000316848607068B0F5827F0DD1B068B0F5E6
:10309000004F03D0B068B0F5806F05D1306800688C
:1030A00030F0400031680860B06AB0F5005F0BD1C5
:1030B0003068006830F4005031680860306800689B
:1030C00050F4005031680860012086F85D0000204F
:1030D00086F85C00032000E00020BDE8F0817CB5AC
:1030E00004000D00160000962B0000224FF4C05182
:1030F0002000FFF7A2FF002805D0206E50F020002E
:10310000206603201FE000962B0000228021200073
:10311000FFF742FF002805D0206E50F02000206607
:10312000032010E000962B0000224FF4C061200025
:10313000FFF783FF002805D0206E50F020002066A6
:10314000032000E0002076BD81B02748006850F0E1
:103150000100254908602448006810F00100009033
:1031600000982248006850F08050204908601F48AD
:10317000006810F080500090009801B0704710B5C2
:1031800086B0040001A8142100F038F8206818491E
:10319000884226D11448006850F4805012490860D3
:1031A0001148006810F480500090009811480068A1
:1031B00050F010000F4908600E48006810F0100031
:1031C000009000984FF4604001900220029000208F
:1031D0000390032004900520059001A9064800F003
:1031E00011F806B010BD00006010024058100240F7
:1031F000003001404C10024000100048002200F056
:103200000FB90000F8B4030000250868E840002862
:1032100000F0EC8008680126AE4030400200002A31
:1032200000F0E2804868022802D04868122818D1CD
:103230002800C00803EB8000066A0F2715F007007E
:10324000C0B280008740BE430F6915F00700C0B2CE
:10325000800087403E4334002800C00803EB800014
:1032600004621E6803272800C0B240008740BE43A6
:103270000F7917F003072800C0B2400087403E4393
:103280001E604868012808D04868022805D04868B0
:10329000112802D04868122818D19C6803272800FA
:1032A000C0B240008740BC43CF682800C0B2400095
:1032B00087403C439C6058680127AF40B8434F6843
:1032C000C7F30017AF40384306005E60087910F07E
:1032D000030003280AD1D86A0124AC40A0434C68FB
:1032E000C4F3C004AC4020430600DE62D868032764
:1032F0002C00E4B2640017FA04F430EA04048F6886
:103300002800C0B2400087403C43DC604868C000F1
:103310006AD53748006850F00100354E30603448B7
:10332000006810F001000090009832482E00B608A6
:1033300050F826600F2715F00300C0B280008740C8
:10334000BE43B3F1904F01D100241EE02A488342CE
:1033500001D1012419E02948834201D1022414E05B
:103360002748834201D103240FE02648834201D13C
:1033700004240AE02448834201D1052405E02348BF
:10338000834201D1062400E0072415F00300C0B2F7
:1033900080008440264317482C00A40840F824608D
:1033A0001B48006890434C68E40300D51043184C58
:1033B0002060184C246894434E68B60300D514432B
:1033C000144804601448006890434E68F60200D523
:1033D0001043114C2060114C246894434E68B6028F
:1033E00000D514430D4804606D1C0EE7F1BC704716
:1033F0006010024008000140000400480008004836
:10340000000C004800100048001400480018004854
:103410000004014004040140080401400C04014080
:1034200000B500BF130096469446103928BFA0E8A7
:103430000C50FAD85FEA417C28BF0CC048BF40F866
:10344000042BC90728BF20F8022B48BF00F8012B26
:1034500000BD000080B500F0B5F800F018F800F0ED
:103460008FF800F057F86420009014234E4A4F491B
:103470004F48FFF7D9FB002801D000F090F84D48E5
:1034800000F0B2F84FF47A7000F0C2F8F7E780B5B8
:1034900096B005A84421FFF7B1FE68461421FFF756
:1034A000ADFE1020059001200B9000200C906020B4
:1034B0000D9002200F9001201090012011902820E3
:1034C000129007201390022014900220159005A856
:1034D000FEF74EFD002801D000F061F80F200090AB
:1034E000032001900020029000200390002004900F
:1034F00004216846FFF788F8002801D000F04FF853
:103500004FF40070FFF74CFA002801D000F047F8A4
:1035100017B000BD80B52848254908604FF4827077
:10352000234948600020224988604FF4E060204928
:10353000C86000201E49086100201D4948614FF401
:1035400000701B49886128201949C861002018496A
:103550000862002016494862002015498862072049
:103560001349C862002012490863002010494863CB
:103570000F48FFF7F5FA002801D000F010F801BD60
:1035800081B00E48006850F010000C4908600B48EC
:10359000006810F010000090009801B0704780B5EE
:1035A000074800F021F801BD24030020000000209E
:1035B00020020020243F0008003001404C1002404F
:1035C000383F000810B500240320FFF79AFA0020C6
:1035D000FFF7A8F9002802D00120040001E0FFF75E
:1035E000B3FD2000C0B210BD0EB4C0B5024603A8A2
:1035F00000210190009101AB0121044878440C3076
:10360000FCF7C2FD06BC5DF810FB00BFF50800002A
:1036100070B50400FFF7B8F90500260016F1010F98
:1036200002D0044800688619FFF7AEF9401BB0428B
:10363000FAD370BD1800002010B50446AFF3008027
:10364000204600F005F80446AFF30080204610BD88
:103650007CB500F10F06F608F600B04240D2082E05
:1036600004D2082602E0083000F047F8DFF80451E1
:103670002C68210005D1002007E00268B24221D267
:10368000011D08680028F8D12068291D0A688242B7
:1036900022D01368B34238BF111DF7D312E093193B
:1036A0000B60801B54685C600B68186016600968CA
:1036B00000291DBF48680028081D0020286002F16D
:1036C000080076BD61B10A681068A0F10803B34232
:1036D000E5D250680860EAE700F04EF80028C2D151
:1036E000002076BD10B5040006D0AFF30080204660
:1036F00000F003F8AFF3008010BD002800D1704740
:1037000050B4A0F108021368072B2BD913F0070F50
:1037100028D1184C616809B18A4202D251606260B6
:1037200013E0486800B3904238BF0146F9D31BE06C
:10373000964203D11B180B600A4606E0486810B198
:10374000134498420ED350604A60506850B11368D9
:10375000D118814206D1002121600168CB18136085
:103760004068506050BC704708680E18B242DFD203
:1037700050BC7047380300200749086808B1002092
:1037800070470648C008C00008600549C908C9005C
:10379000091A0160704700BF480300205707002046
:1037A000500900202DE9F04107468846387810F08E
:1037B000030F16461D4633D0384600F099F878BB03
:1037C000B8F1000F1CBFD8E900018619012D2ED1D8
:1037D0003888C10415D5396A07F14402384600F02B
:1037E000A3F83A6B044602B93A69F968384600F022
:1037F0009BF8361B341A7A69F968384600F094F859
:10380000261A1EB94DB916F1010F09D097F9030018
:103810002A46314600F08EF8064616F1010F09D10E
:103820002320AFF300804FF0FF30BDE8F081022D80
:10383000E8D1EBE7388810F4405F0ED07868F86084
:1038400038617861B8617868F86107F144003862DE
:1038500007F13000786200203863B8F1000F05D01E
:10386000D8E9020107F13402C2E9000139884CF6B7
:10387000FF60014039800020BDE8F08170B5054649
:10388000AFF300802888810415D56E680024EA68AB
:1038900095F903003146914212D2521A00F06FF8A6
:1038A00010F1010F1CBF00283618F0D10FE04DF6C3
:1038B000FF70014029802846AFF30080002070BDD2
:1038C0000022002100F05BF810F1010F00D101246B
:1038D0006868E860A861E861002C2988E7D041F4B5
:1038E000007129802846AFF300804FF0FF3070BD93
:1038F000F8B5A0B9AFF3008000250A4E08244FF0B8
:10390000FF37306820B1FFF7B9FF002848BF3D46B8
:10391000361D641EF5D1AFF300802846F2BDBDE828
:10392000F240ABE778010020914234BF511A0021E8
:10393000084670473EB504000D00012A02D100F090
:103940006BF807E0022A07D1009400200190694635
:103950000C20ABBE2D1801E0002A0CD1009401957B
:1039600069460A20ABBE002805D1002221002800AC
:1039700000F02FF801E00020C04303B030BD80B557
:10398000002802D400F06AF802BD002002BD000049
:1039900010B4314A002113461C6884421EBF491CE2
:1039A0009C6884421EBF491C1C69844209D09C69E2
:1039B000491C844205D0491C20331029ECD310BC8B
:1039C0007047002342F8313002EBC1014B6010BC5C
:1039D000704778B4204C002325462E688E421EBFC7
:1039E0005B1CAE688E421EBF5B1C2E698E4209D0E6
:1039F000AE695B1C8E4205D05B1C2035102BECD3CE
:103A000072BC7047054604EBC303012A04BF596822
:103A10004D195D6072BC704710B40F4A0021134607
:103A20001C6884421EBF491C9C6884421EBF491CFE
:103A30001C6984420AD09C69491C844206D0491CF6
:103A400020331029ECD310BC0020704702EBC100DA
:103A5000406810BC70470000A001002080B500291C
:103A600001D1002002BD012801D0022802D100F0BE
:103A700004F802BD00F011F802BD30B583B00C00AF
:103A800015000120FEF72EFA009001940295694678
:103A90000520ABBE281A03B030BD18B583B00300B3
:103AA000140000930191029469460520ABBE0122E7
:103AB0001900201AFFF78DFF04B010BD10B50446A1
:103AC000E068A169884251D3218849F202020A4084
:103AD000022A08D008044CBF4FF400704FF4844011
:103AE000014321803BE001F4C041B1F5C04F06D154
:103AF000A168884203D32046FFF7FAFE78BB2088EE
:103B000010F4406F02BF606804F14401884217D18D
:103B10004FF40070FFF790FD606030B904F144008D
:103B20006060E060401CA0600AE0218841F0400134
:103B30002180E060606100F500726068A260E06171
:103B400060682061A068A061207841070AD5022240
:103B50000021204600F00CF810F1010F02D14FF0C7
:103B6000FF3010BD208840F4C0402080002010BDF0
:103B700070B504460D461646AFF3008033462A461C
:103B800000212046FFF70EFE05462046AFF30080D9
:103B9000284670BD38B504000ED0207810F0030F11
:103BA00003D094F90300002809D5AFF30080204624
:103BB00000F030F8AFF300804FF0FF3032BD204608
:103BC000FFF796FE0546AFF300802078410644BF1C
:103BD000606800F05DF80020606094F9030002283E
:103BE00004D900F057F808B14FF0FF35E06B48B149
:103BF00000F05CF808B14FF0FF35E06B00F048F8DA
:103C00000020E063204600F005F8AFF3008028466E
:103C100032BD000001780A0626D51C4A136800212F
:103C2000834203D1002342F821301BE05368012175
:103C300083421EBF022193688342F3D0D3680321DD
:103C400083421EBF042113698342EBD053690521CF
:103C500083421EBF0621936983421EBF0721D36999
:103C60008342DFD000F014B8002101804FF0FF3113
:103C7000C17000F144014160C16001614161816135
:103C8000C161016200F1300141627047780100209A
:103C9000FFF728BD1CB50200009269460220ABBEAA
:103CA00004001000FFF774FE200016BDE0B5009080
:103CB000FDF7C6FA019069460E20ABBE03B000BD09
:103CC0001348006850F470001149086011480068FA
:103CD00050F001000F49086000200F4908600D48AE
:103CE00001680E4801400B4801604FF480500C49B8
:103CF00008600848006830F4802006490860002009
:103D0000084908605FF000600749086070470000DC
:103D100088ED00E00010024008100240FFFFF6EAC4
:103D20000C1002401810024008ED00E038B50C46B7
:103D3000C5B22046AFF30080E068A169884204D391
:103D40002046FFF7BBFE00280FD4E068401CE0606F
:103D500000F8015D2088010503D440050BD50A2D2C
:103D600009D12046FFF7C4FD28B12046AFF30080FB
:103D70004FF0FF3032BD2046AFF30080284632BD01
:103D800019E050F8042BD30744BFA9F101039A1896
:103D9000091F0023042942F8043BF9D25FEA817C21
:103DA000134604D54FF0000CA2F800C09B1CC907B5
:103DB00044BF0021197050F8041B0029E1D170475D
:103DC00038B50D4D0824286800281CBF017811F073
:103DD000030F05D090F90310002958BFFFF7DAFE52
:103DE0002D1D641EEFD1BDE83840002200214FF0A8
:103DF000FF30FFF7C4BD00BF78010020A08601009E
:103E0000400D0300801A060000350C0040420F00F0
:103E100080841E0000093D0000127A000024F40096
:103E200000366E010048E801006CDC0210B507495D
:103E300079441831064C7C44163404E00A68081DA5
:103E4000114488470146A142F8D110BD2C00000062
:103E5000480000004EF68851CEF20001086840F498
:103E600070000860BFF34F8FBFF36F8F4FF000708B
:103E7000E1EE100A7047000009FFFFFFB0010000EB
:103E8000A0010020000000004FD2FFFF340200001C
:103E9000400100000000002000F00DF8002801D0D3
:103EA000FFF7C4FFAFF300800020AFF30080FFF7FF
:103EB000D1FA00F002F80120704700F001B80000CC
:103EC0000746FFF77DFF3846FDF7ECFFFBE70000F4
:103ED00003480168034800684118014801607047C1
:103EE00040030020180000207047FEE7FEE7FEE7D1
:103EF000FEE770477047704780B5FFF7E9FF01BDE7
:103F000038B504460D46284600F006F8A84218BF0A
:103F10000024204632BD00000149FFF707BF00BF63
:103F2000E800002052756E6E696E6720696E206D24
:103F300061696E0A000000004572726F725F48612D
:103F40006E646C65720A0000000000000000000052
:103F50000102030406070809014880470148004799
:103F6000C13C0008693F0008AFF30080FFF772FF13
:103F7000FFF792FF00002E004300FFF7FEBFFFF7A0
:103F8000FEBFFFF7FEBFFFF7FEBFFFF7FEBFFFF765
:103F9000FEBFFFF7FEBFFFF7FEBFFFF7FEBFFFF755
:103FA000FEBFFFF7FEBFFFF7FEBFFFF7FEBFFFF745
:103FB000FEBFFFF7FEBFFFF7FEBFFFF7FEBFFFF735
:103FC000FEBFFFF7FEBFFFF7FEBFFFF7FEBFFFF725
:103FD000FEBFFFF7FEBFFFF7FEBFFFF7FEBFFFF715
:103FE000FEBFFFF7FEBFFFF7FEBFFFF7FEBFFFF705
:103FF000FEBFFFF7FEBFFFF7FEBFFFF7FEBFFFF7F5
:10400000FEBFFFF7FEBFFFF7FEBFFFF7FEBFFFF7E4
:10401000FEBFFFF7FEBFFFF7FEBFFFF7FEBFFFF7D4
:10402000FEBFFFF7FEBFFFF7FEBFFFF7FEBFFFF7C4
:10403000FEBFFFF7FEBFFFF7FEBFFFF7FEBFFFF7B4
:10404000FEBFFFF7FEBFFFF7FEBFFFF7FEBFFFF7A4
:10405000FEBFFFF7FEBFFFF7FEBFFFF7FEBFFFF794
:10406000FEBFFFF7FEBFFFF7FEBFFFF7FEBFFFF784
:10407000FEBFFFF7FEBFFFF7FEBFFFF7FEBFFFF774
:10408000FEBFFFF7FEBFFFF7FEBFFFF7FEBFFFF764
:10409000FEBFFFF7FEBFFFF7FEBFFFF7FEBFFFF754
:1040A000FEBFFFF7FEBFFFF7FEBFFFF7FEBFFFF744
:1040B000FEBFFFF7FEBFFFF7FEBFFFF7FEBF00002A
:1040C000101848656C6C6F2066726F6D204D6173BF
:1040D00074657220210A10000000010001F005073C
:1040E000093D00743F00080452FF01F200761410ED
:1040F000010000780C2144322003F115012002F167
:104100001100082C43DF113C2101100301040000C1
:10411000E44412E50452E404211BA108F212D06425
:10412000200A02040101D4020020240300200821F7
:104130000421346108F004122C01002018014850B9
:10414000020802028440528404213461081274443B
:10415000F212604812A0B412E804F206302C655C3A
:0400000508003F6947
:00000001FF
