:020000040800F2
:1000000070140020BD4D0008B94C0008BB4C00081E
:10001000BD4C0008BF4C0008C14C000800000000A7
:10002000000000000000000000000000294500085A
:10003000C34C000800000000D1440008C54C000873
:10004000E74D0008EB4D0008EF4D0008F34D0008A8
:10005000F74D0008FB4D0008FF4D0008034E000857
:10006000074E00080B4E00080F4E0008134E000804
:10007000174E00081B4E00081F4E0008234E0008B4
:10008000274E00082B4E00082F4E0008334E000864
:10009000374E00083B4E00083F4E0008434E000814
:1000A000474E00084B4E00084F4E0008534E0008C4
:1000B000574E00085B4E00085F4E0008634E000874
:1000C000674E00086B4E00086F4E0008734E000824
:1000D000774E00087B4E0008DD4C00087F4E00087C
:1000E000834E0008874E00088B4E00088F4E000894
:1000F000934E0008974E00089B4E00089F4E000844
:10010000A34E0008A74E0008AB4E0008AF4E0008F3
:10011000B34E0008B74E0008BB4E0008BF4E0008A3
:10012000C34E0008C74E0008CB4E0008CF4E000853
:10013000D34E0008D74E0008DB4E0008DF4E000803
:10014000E34E0008E74E0008EB4E0008EF4E0008B3
:10015000F34E0008F74E0008FB4E0008FF4E000863
:10016000034F0008074F00080B4F00080F4F00080F
:10017000134F0008174F00081B4F00080000000035
:100180001F4F0008234F00082DE9F84F0FF2B01958
:10019000A2B0D9E90045CDE900452C9EDFF80C9CC2
:1001A00004918DF8436000210FF29C140D9112947C
:1001B0004FF0FF36824615461F460FE0AB464446D9
:1001C0001BF8011B0498D0470028049000F0A6807B
:1001D0000D98401C641E0D90F2D1454428782528C6
:1001E00007D100210791089109910A910B910C9177
:1001F0000FE06A463146284600F0DAFF5FEA000861
:1002000001D10D98A4E0D9D54FF00108E5E741F000
:10021000010115F8010F2028F9D023280CD02B2834
:1002200004D02D2805D0302809D079E041F0020112
:10023000EFE741F00401ECE741F00801E9E741F0A4
:100240001001E6E700200F9009E00F98484505DA15
:1002500000EB800302EB4302303A0F926D1C2A78C8
:10026000A2F130000A28F0D32A782E2A18BF0E9661
:1002700023D115F8010F2A2807D1386838606D1C82
:1002800050F8042B38600E9217E02D280CBF15F89B
:10029000010B002000220E920AE040B90E9A4A4556
:1002A00005DA02EB820403EB4403303B0E936D1C32
:1002B0002B78A3F130020A2AEFD3ADF84010129840
:1002C000297800F081FF08B115F8010B8DF8420084
:1002D0009DF84200682804BF2978682903D162206C
:1002E0008DF8420007E06C2804BF28786C2803D101
:1002F00071218DF842106D1C13A806903A4615F82E
:10030000013B02A9504600F063F838B913AA02A9CC
:10031000504600F0C5F900287FF560AF304617E081
:100320002A288FD13A683A6052F8040B3A600028C4
:100330000F9003D540420F9041F004016D1C93E7EC
:100340000000000000000000686A6C747A4C000035
:1003500023B0BDE8F08F622820D0682811D06A2829
:1003600003D06C2827D0712825D10868C01D20F043
:1003700007000860D0E900230830086019461046DD
:100380007047002A0A680A60106803D0121D0A60CC
:1003900000B217E0121D0A6080B217E0002A0A6856
:1003A0000A60106803D0121D0A6040B20AE0121DF4
:1003B0000A60C0B20AE0002A0A680A60106803D026
:1003C000121D0A60C1177047121D0A600021704794
:1003D0007CB50D4611461C462E69B4F1250200F08D
:1003E0004D811C3A00F08680121F022A40F2828062
:1003F0000E3A00F00781521F5AD0093A7AD0921E65
:1004000016D0521E35D0521E022A73D9121F30D078
:10041000521F00F09A80521E4AD0521E00F0E48013
:10042000D21E00F0FD80921E42D0D21E40D02BE1A1
:1004300095F83A206C2A09D06869421C6A610A68FA
:100440000A6052F8043B0A60335427E10A680A60E4
:1004500052F8043B0A600021009301914FF0FF32F3
:100460002A6329466A4600F096F9002840F1168171
:1004700001E195F83A000122FFF76DFFC5E900019F
:100480000023994204DA6869411C69612D210DE05D
:10049000288F810704D56869411C69612B2105E01B
:1004A000C00722D56869411C6961202131541CE0D4
:1004B00095F83A000022FFF74EFFC5E9000195F8D4
:1004C0003800010711D5D5E900230020834208BF79
:1004D00082420AD044F02000782806D16869302191
:1004E0003154401C411C69613454214668693044D0
:1004F000E86083E00868C01D20F007000860D0E9CC
:10050000002308300860C5E90023D5E90001C80FC1
:1005100004D06869411C69612D210DE0288F810795
:1005200004D56869411C69612B2105E0C00704D529
:100530006869411C69612021315468693044E86070
:100540002146284600F032FAA8E005F13A02507838
:1005500020B14FF0FF340FF6FC2070E010786228D5
:1005600008D0682824D06A2812D06C282ED0712890
:100570000ED02BE00A680A6052F8040B0A6020B91A
:100580004FF0FF340FF6E42059E0E96A017085E08E
:100590000A680A6052F8040B0A6020B94FF0FF3471
:1005A0000FF6C8204BE0EA6AD317C0E9002375E0D4
:1005B0000A680A6052F8040B0A6020B94FF0FF3451
:1005C0000FF6A8203BE0E96A018067E00A680A604C
:1005D00052F8040B0A6020B94FF0FF340FF68C205C
:1005E0002DE0E96A016059E00A680A6052F8040BDC
:1005F0000A600021C5E90001EE607821284600F07C
:1006000029F94BE06C2285F83A200B680B6053F80F
:10061000042B0B6052BB4FF0FF340FF684200EE02A
:1006200095F83A206C2AF0D00868086050F8044B1E
:100630000860EC603CB94FF0FF340FF6482000F042
:10064000DDFD201A76BD2E6B002E04D5204600F06D
:10065000F7FD044608E032460021204600F00CFE7B
:10066000002814BF041B3446AC6117E0294600F093
:1006700092F8002812D54FF0FF3076BD6869411C12
:1006800069612521315409E06969481C68612522A6
:100690007254210002D0411C69613454002076BD9F
:1006A0002DE9F0410E460546716B7069B46A091A6E
:1006B000306A091AB069091A706A091AF069091AC8
:1006C00096F838000C1B410790460DD4002C0BDD2A
:1006D0002746B0682021A8470028B06057D0F06AAC
:1006E000401C7F1EF062F4D17369424631462846B1
:1006F00000F099FC00284AD1376A002F0ADDB06863
:100700003021A8470028B06041D0F06A401C7F1E0D
:10071000F062F4D1B369F2683146284600F083FCF8
:10072000A8BB776A002F09DDB0683021A847B06008
:1007300068B3F06A401C7F1EF062F5D1F068B169C1
:10074000F36942183146284600F06DFCF8B9B76AE3
:10075000002F09DDB0683021A847B060B8B1F06A59
:10076000401C7F1EF062F5D196F8380041070BD58A
:10077000002C09DDB0682021A847B06038B1F06ACC
:10078000401C641EF062F5D10020BDE8F0814FF0FE
:10079000FF30BDE8F0812DE9F8470D46A3B02F6B7F
:1007A000002F8146904648BF6FF0004700F090FD53
:1007B000696B40180FF604118128D1E90023CDE9B7
:1007C000012328BF4FF0FF303ED20024002F2FDD41
:1007D000D8F8001001AA684600F0ECFC0646002E8E
:1007E00035D4D8F8000008B9761E30D4B7421FDBE4
:1007F0006869301881280AD30020686303AA294653
:100800004846FFF74DFF040012D40020686103A89A
:10081000D5F814A032466946504400F05FFDB2445A
:10082000C5F814A058F8040B002818BFBF1BCDD181
:100830002CB903AA29464846FFF732FF044614B9EB
:10084000002068616863204624B0BDE8F0874FF05F
:10085000FF34F8E72DE9FC4704468A462569BAF1DA
:100860006F0F08BF082605D04AF02001782914BF71
:100870000A2610263C27D4E90023BAF1640F18BFDA
:10088000BAF1690F9046994606D100218B4203DAEE
:10089000D8F1000869EB49090020814508BF80456F
:1008A0001FD1206BE8B9082E4CD194F8380001070D
:1008B00048D530203B2785F83B0043E000280ED583
:1008C00094F8380000F01400102808D1626B6069B9
:1008D000121A206A121A511A0029C8BF2162BDE8F3
:1008E000F3878DF800A0404649463246F31700F0E2
:1008F00049FD3032D2B27F1E3A2A019704DB9DF8BF
:100900000000A0F151018A18EA5540464946324696
:10091000F31700F037FD804689460020814508BF67
:10092000804503D0E068E9198842DCD3082E09D15C
:1009300094F83800010705D5E95D302902D07F1E03
:100940003020E855C7F13C01A161E819E060206B57
:100950008142B3DA411A21624FF6EF70218F0140D4
:100960002187BDE8F3872DE9D04306460F4614469C
:100970004FF00008DFF8389412E0E00707D5424650
:100980004B463046394600F015FE06460F464046B7
:10099000494642464B4600F00DFE641080468946AB
:1009A000002CEAD130463946BDE8D0832DE9F34F1B
:1009B000054641F020048DB0D5E90089612C02AED6
:1009C00009D0286B002848BF062003D408BF672C35
:1009D00001D101202863D5E9002358004015401CAF
:1009E0000ED119030CD00320A8619DF8380061389E
:1009F0001A2802D20FF2CC6111E00FF2CC610EE0A6
:100A000058004015401C0FD119030DD10320A861D7
:100A10009DF8380061381A2814D30FF2B461E868E1
:100A2000032200F05BFCD3E1194621F00043B3F54B
:100A3000801F10460DD20027BB4208BFBA42019763
:100A400003D111E00FF28461E9E701AA00F084FE0E
:100A50000AE0DFF8607307EB1352DFF85C330192B2
:100A60001940DFF858331943C5E90001612C0ED154
:100A7000E86830210170811CE9609DF83810612917
:100A80000CBF7821582141706869801C6861D5E9E4
:100A900000AB2BF0004300202AF00002834204BF89
:100AA0008242002300F05A81612C40F0A980286B1B
:100AB00000284CBF2120401C00904046009F7F1C16
:100AC00049460022002300F07FFED94601988DF8A8
:100AD000082038BF89F00049001F0190002FD04640
:100AE0000DF1090040F3498140F2FF71DFF8D0B207
:100AF0000C910646404649460022002300F07CFE49
:100B000080F03A814800400D00F11C0210D0002A0C
:100B10000EDD0C98824205DB09F0004040EA0B0133
:100B2000002013E0A448084040EA025140460DE08E
:100B300029F00043002028F00002834208BF8242CF
:100B40000FBF40461C22404600F06EFE804689469C
:100B500000F008FFFF1F002F044609DD00F020FF12
:100B600002460B464046494600F02CFF8046894627
:100B7000F01D072104E004F00F0200F8012D2411FC
:100B8000002C01DD491EF6D5491E5CBF002200F88D
:100B9000012DF9D5ECE00020194602AA0A4400E034
:100BA0005B1E12F80149491E8442F9D00F2804D176
:100BB0000DF10900425C521C4254002904D50198F1
:100BC000001D02AE5B1C0190591E12D49DF8380026
:100BD0007218A0F13A04177830375FFA87F8B8F145
:100BE000390FC8BFA044491E02F80189F3D58DF81A
:100BF0003800286B002840F1B080591E2963ACE012
:100C0000404649460022002300F0DEFD019938BF2E
:100C100089F0004947F2975041436A4A91FBF2F24A
:100C20000192D2F1070204DD40464946FFF79BFEE0
:100C30000AE0524200206449FFF795FE02460B4647
:100C40004046494600F030FF8046662C286BDFF8AE
:100C50007CB106BF019F0A3706273F18142FC8BF73
:100C6000142730208DF8080089460DF1090000E0B6
:100C70003046002F34DD06464046494601F038F83C
:100C800001460A4606F1080304200A26B2FBF6F6DE
:100C900006EB860EA2EB4E02303203F8012C0A223C
:100CA000B6FBF2F202EB820EA6EB4E063036401E89
:100CB00003F8026DE9D1083F002F03F10806D7DDE4
:100CC000084601F029F802460B464046494600F026
:100CD00079FE00225B4600F06DFC80468946CBE73A
:100CE0000DF10901401A0DF1090604E00199491EB0
:100CF000401E0191761C31783029F7D0662C02D144
:100D00000199491C03E0652C0CBF012100212B6BCC
:100D1000CB189842B8BF431E002B1ED4834204DA7E
:100D2000F05C3528A8BF392000DA30201946721E41
:100D300002EB010800E05B1E18F80199491E81458D
:100D4000F9D0392802D1705C401C7054002904D5B8
:100D50000198401C16465B1C0190019800B200905F
:100D60001BB29DF838103246284600F034F82FE0C8
:100D7000C61D002F3FF7BEAE30460DF10901401AE7
:100D8000009903468842C8BF0B46002B0DF10906A7
:100D90003FF52FAF8342BFF6FEAE0DF10900C05CF8
:100DA00007287FF7F8AE0F20F6E60000CBCCCC0C7E
:100DB0000000244002FCFFFFFFFF0F800000E03F27
:100DC0000000F07FA08601000000F03F84D797412B
:100DD0000FB0BDE8F08F2DE9F84E83B006468B4684
:100DE00092461C4600F0E8F9002C406A376B90F8F8
:100DF000009002DC01240FF2DC2ABDF930504BF0E8
:100E00002000662808BF6D1C12D0672877D115F125
:100E1000040F7ADBBD4278DA96F838006D1C0107C2
:100E200002D4BC42B8BF27462DB27F1B48BF002763
:100E30002DB2F068B169002D22DC4A1C30234354E6
:100E4000002F03DC96F83800010703D5F06800F89E
:100E50000290521CEF42B8BF7D422DB2EF1968429A
:100E6000A742B8BF3C46B261706224B2F461F06838
:100E7000B36922465146184400F030FA3F1B18E08F
:100E80002A469442084416DA2246514600F026FAD1
:100E9000B0692018B0612C1B002F746203DC96F837
:100EA00038100A0705D5F16801F80090F069401C78
:100EB000F061B762A0E0514600F010FAB06928185E
:100EC000641B002F03DC96F838100A0703D5F1687D
:100ED00001F80090401CB06124B2A742B8BF3C4664
:100EE000F068B36924B222460AEB0501184400F009
:100EF000F5F9B0692018B0613C1B74627CE0BBF16D
:100F0000610F14D14FF0700B16E0BC4204DA96F872
:100F100038100A0758BF27467F1E48BF0027BBF17D
:100F2000670F14BF4FF0450B4FF0650B04E0BBF1AA
:100F3000410F08BF4FF0500BB169F368481CB06116
:100F4000002F1AF8012B5A5403DC96F838100A07C0
:100F500017D5F168431CB36101F80090002F10DD34
:100F6000641E24B2A742B8BF3C46F06824B22246B1
:100F70005146184400F0B2F9B0692018B0613F1B27
:100F80007762F068B1690844002D80F800B003D49E
:100F90002B214170811C03E02D2141706D42811C89
:100FA00000206A460AE02B460A2493FBF4F505EB81
:100FB0008504A3EB440302F8013B401C2DB2002D35
:100FC000F1DC012806DC4BF02002652A04BF302248
:100FD00001F8012B48B9302001F8010B07E0401E51
:100FE0001DF80020303201F8012B0028F7DCF068F2
:100FF000B2691044091AF16196F8380000F0140043
:1010000010280DD17169B0694118706A4118F069F2
:101010004118B06A4118706B8142BCBF411A3162FD
:1010200004B0BDE8F08EF8B505460E4617461C46DE
:10103000002074B117F8011BB068A847B06030B148
:10104000F06A401CF0620020641EF3D1F2BD4FF044
:10105000FF30F2BD7072696E74665F733A20256E60
:1010600020646973616C6C6F776564007072696E7F
:1010700074663A2062616420256E20617267756D26
:10108000656E74007072696E74665F733A20626197
:101090006420257320617267756D656E74000000B1
:1010A0007072696E74665F733A2062616420256CA9
:1010B0007320617267756D656E740000000000003A
:1010C000000000006E616E004E414E00696E6600C9
:1010D000494E46003000F0B4024610689568131877
:1010E000506803EB5004C00721D54D441FE0F0BC0D
:1010F00002F10C00704713F8017B05F8017B491ED3
:10110000F9D1A0B1B60813F8011B06F00306032EAF
:1011100008BF13F8016B01EB06214942801C2944EA
:1011200005D011F8016B05F8016B401EF9D1A342FF
:10113000DDD013F8016B16F0030104BF13F8011B97
:10114000C91C30090F28DAD113F8010B0F30D6E78C
:101150001B48704730B45368D418042B09DA41B1E6
:10116000057804F8015B10F8015B15B15B1C491EA2
:10117000F3E7536030BC704738B514461D4661B183
:10118000FFF7E8FF61686A6B204690476FF0010245
:10119000811A02D0491E03D005E06FF0010032BD74
:1011A0004FF0FF3032BD0021616032BDDA6B104775
:1011B000034BE1E7024BF9E70248704700000000EB
:1011C0004C010020140100200278C9B28A421AB1F1
:1011D0001CBF10F8012FF9E718BF00207047B1F5C8
:1011E000807F02D34FF0FF307047017001207047BD
:1011F0000078401E8041C043C00F704780B508B9D9
:101200000FF21C0005490B681BB1222200219847F0
:1012100001E000F08EFD222002BD000064100020DD
:10122000636F6E73747261696E742068616E646C52
:1012300065723A20626164206D6573736167650051
:1012400000F10103810704D010F8011B89B1810767
:10125000FAD10268B2F10131914311F0803F04BF2D
:1012600050F8042FF6E710F8011B11B110F8011B1C
:10127000FBE7C01A70470000C9B2830706D0521EB0
:1012800022D310F8013B9942F7D11FE0083A13D35B
:1012900002F1040241EA012141EA014150F8043B14
:1012A000121F21BF4B40A3F1013C2CEA030C1CF0A0
:1012B000803FF3D0C9B2001F083210F8013B521E24
:1012C00028BF91EA030FF8D818BF0120401E7047CD
:1012D00080B5FFF73DFF006C02BD000062B38B07D5
:1012E00008D0521E11F8013B00F8013B00F02480A9
:1012F0008B07F6D1830740F0208000BF103A07D358
:1013000030B4B1E83810103AA0E83810F9D230BC47
:10131000530724BFB1E80810A0E8081044BF51F8F3
:10132000043B40F8043BD20724BF31F8022B20F8DD
:10133000022B44BF0B7803707047121F17D35B005A
:1013400009D151F8043B20F8023B1B0C121F20F876
:10135000023BF6D20BE051F8043B00F8013B1B0ABC
:1013600020F8023B1B0C121F00F8013BF3D238BFE0
:10137000121D521E24BF11F8013B00F8013BF8D8A2
:1013800070470000B3BBD9B1B2F5803F7DD2022ACD
:101390001ED98C46B1FBF2F102FB11C31B0443EAD8
:1013A0001043B3FBF2FC02FB1C3380B240EA034360
:1013B000B3FBF2F002FB103240EA0C40002370470E
:1013C000022A05D98446B0FBF2F002FB10C2704736
:1013D0004AB105D100F0010249085FEA30007047C8
:1013E00000220023704700F0A7BC0B000200002180
:1013F00000207047904271EB030CF6D3B3F5803FA9
:101400002FD2F0B5B3FA83F7B1FA81F4A7F10F0E3A
:101410003D1B5340CEF1200602FA0EF2F341534039
:10142000B5F10F0746D80F3C2C444140C4F12006CB
:10143000A040F1414140B1FBF3F603FB1611A2FBC2
:101440000645001BA94102D2761E8018594180EA48
:10145000010221FA0EF362FA0EF200215A403046E0
:10146000F0BD30B4B1FBF3FC03FB1C11A2FB0C4537
:10147000001BA94103D2ACF1010C8018594130BCCA
:1014800002460B46604600217047B2F1807F65D36B
:10149000F0B5B2FA82F7B1FA81F4C7F10F063D1B3D
:1014A00022FA06F307F1110EF24120355A40B5F148
:1014B0000F07B8D94140C4F12006A040F141414096
:1014C000B1FBF3FC03FB1C11A2FB0C45001BA94163
:1014D00003D2BCF1010C801859410F2F12D30F3FDA
:1014E000C90341EA5041B1FBF3F603FB1611A2FB1D
:1014F0000645D4EBC030A94102D2761E801859416E
:1015000046EACC3C07B34140C7F12006B840F14160
:101510004140B1FBF3F603FB1611A2FB0645001B8D
:10152000A94102D2761E8018594180EA010221FAAF
:101530000EF3C7F1200462FA0EF20CFA07F05A40DB
:101540002CFA04F13043F0BD80EA010221FA0EF3D7
:10155000002162FA0EF260465A40F0BD8C46B1FBA3
:10156000F2F102FB11C31B0243EA1063B3FBF2FC6E
:1015700002FB1C331B024CEA002043EA1063B3FB5E
:10158000F2FC02FB1C331B024CEA002043EA10630E
:10159000B3FBF2FC02FB1C331B024CEA002043EAC3
:1015A0001063B3FBF2FC02FB1C324CEA0020002368
:1015B00070470000B0B581EA030C0CF0004C40F21B
:1015C000FF7515EA11541DBF15EA1357AC42AF421F
:1015D00039E0E41923EA455343F48013C90241F08A
:1015E000004141EA505EC7021100A7FB0202002839
:1015F0004FF00000EEFB01204FF00001E3FB07215C
:1016000018BF42F00102401800214941E3FB0E01DE
:10161000A4F580640F0302D252004041494154F1C5
:1016200001046CDD470872F1004250F1000051EBFB
:101630000451A1F580115CBF41EA0C01B0BD4CEA38
:1016400005510020B0BD05EA1357AC4214BFAF42AC
:1016500041E050EA410E1CBF52EA430E02E06146EF
:101660000020B0BD24423C441BD15FEA070EF6D0F7
:10167000090302BF01460020AEF1140EB1FA81F752
:10168000AEEB070401FA07FE0C37C7F1200100FAA0
:1016900007F7C8404EEA000E23EA455343F480138F
:1016A000A2E733F00043B3FA83F704BFB2FA82FE35
:1016B00077440B3FE41BB7F1200E2FBF02FA0EF365
:1016C000BB40C7F1200E22FA0EFE38BF43EA0E03DC
:1016D000BA40641C82E750EA410E14BF52EA430E3E
:1016E0006FF000014FF4001717EB430F8ABF194644
:1016F00017EB410FB5E74CEA05510020B0BDD4F11E
:101700000104B4F120070FDAC4F12007520828BF02
:1017100042F0010210FA07F501FA07F7E1BF2A4388
:10172000E0403843E1400FE0352C98DCC7F120045D
:1017300052EA400220FA07F218BF42F0010231FAE1
:1017400007F0A1400A43002172F1004250F100006D
:1017500051EB0C01B0BD000010B5144600F002F8CA
:10176000226010BDC1F30A5343B14A0012F5001FB5
:1017700028D2A3F2FE32A1EB0251704750EA410C8D
:1017800020D001F0004C31EA0C01B1FA81F204BF23
:10179000B0FA80F3D2180B3AB2F120032CBF00FA52
:1017A00003F1914041EA0C013EBFC2F1200C20FA46
:1017B0000CF319439040524240F2FD33D21A01EB30
:1017C00003517047002270474FF4001C1CEB410F7F
:1017D00094BF1CEB430F09E041EA030C50EA4C0CA8
:1017E00052EA0C0C03D2994208BF9042704714BFD2
:1017F0008B428242704700004FF4001C1CEB410FEB
:1018000094BF1CEB430F09E041EA030C50EA4C0C77
:1018100052EA0C0C03D28B4208BF8242704714BFBD
:101820009942904270470000124254D440F2FF7C2B
:101830001CEA11530FD0634531D09B1863453CBF60
:1018400001EB0251704701F0004141EA0C510020C8
:10185000AFF30080704750EA410320D001F0004C04
:1018600091EA0C011CD0B1FA81F30B3B9A420DD9DD
:10187000D21A994051EA0C01C3F1200C20FA0CFC59
:1018800061449840531C40F2FF7CD7E7914041EA05
:101890000C01C2F1200C20FA0CF319439040704760
:1018A000B0FA80F31533202BE0D3202AEED3203A70
:1018B000203B9A4209D9D21A00FA03F141EA0C01FD
:1018C0000020531C40F2FF7CB8E700FA02F141EA25
:1018D0000C0100207047524240F2FF7C1CEA115379
:1018E0000DD06345DBD0B2EB030C3CBFA1EB025142
:1018F00070470CF1010221EA035141F4801150EAD2
:10190000410CCCD001F0004C352A27DC30B481EA00
:101910000C01B2F1200309DAC2F12003044601FAF6
:1019200003F5D0402843D1409C400CE0C3F1200295
:10193000450020FA03F418BF44F0010421FA03F033
:1019400091400C43002174F1004550F1000051EB2F
:101950000C01244230BC7FF47BAF7047614600200D
:1019600076E70000C1F30A5340F2FE329B1A14DD01
:10197000D3F120034FEAE17208DDC90241EA505178
:1019800041F00040D84080185040704703F2E130E9
:1019900010B1D24382F00040704700207047000031
:1019A000C11768B14840401AB0FA80F29040D21C8A
:1019B000C907C2F5846241EA025202EBD021400518
:1019C0007047000070B44FF0004591EA030F40F1FA
:1019D000B5816B40841A71EB030603D2001BB14141
:1019E000121973414FF4001C1CEB410F34BF7CEB08
:1019F000430442E00C0DA4EB1356352E4FDC45EAB0
:101A0000C323DB0A45EAC121C912B6F120050DDD69
:101A100063FA05F6EB4086EA0305124218BF45F06B
:101A20000105C01851F100010CD213E062FA06F56D
:101A3000F2405540F3415A40B340F3405A408018B9
:101A4000594107D349085FEA30005FEA350528BFEE
:101A500045F0010501F58011420875F1004250F191
:101A6000000041EB04514E0016F5001F70BC38BF5A
:101A700070470020090D090570471CEB410F10D27B
:101A800052EA43060BD0BCEB410F05D80C0DAB431B
:101A9000661E342EB6DD02E0AB438018594170BC9F
:101AA000704770BC70470000F0B540F2FF7581EAE6
:101AB000030C0CF0004C15EA11541DBF15EA135726
:101AC000AC42AF42E5E0BC41C1F31301C3F31303E1
:101AD000801A994143F4801304D2641E40004941A6
:101AE00080185941C90241EA5051B1FBF3F603FB9A
:101AF0001611A2FB0675D7EBC020A94102D2761EB3
:101B000080185941C90241EA5051B1FBF3FE03FB71
:101B10001E11A2FB0E75D7EBC020A94103D2AEF176
:101B2000010E80185941890241EA9051760546EA32
:101B30008E2EB1FBF3F603FB1611A2FB0675D7EB55
:101B40008020A94102D2761E80185941C90241EA7B
:101B500050514EEA060EB1FBF3F603FB1611A2FB41
:101B60000675D7EBC020A94102D2761E80185941D4
:101B7000C90241EA5051B1FBF3F703FB1711A2FB75
:101B80000735D3EBC020A94167F100070CBF004225
:101B900047F0010766F3D5274FEA1E31B80814F560
:101BA000806412DDBD0775F1004250EB0E5051EB21
:101BB000045111F5801F5CBF41EA0C01F0BD4CF0EF
:101BC0007F6141F0E0410020F0BDBD076D0840EAB3
:101BD0000E5041F48011D4F10104B4F120060ADA68
:101BE000C4F120060200E04001FA06F3E140184388
:101BF000B24015430EE0342C13DCC6F1200445EA54
:101C000040056D0820FA06F2154321FA06F0A140BE
:101C10000D43002175F1004250F1000051EB0C0121
:101C2000F0BD00205FEA0C01F0BDCFB992185B4116
:101C3000B3FA83F704BFB2FA82F6BF190B3FB7F1CC
:101C400020062FBF02FA06F3BB40C7F1200622FA96
:101C500006F638BF3343BA401CB1E419641E33E7BB
:101C60007F4231F00041B1FA81F404BFB0FA80F64E
:101C7000A4190B3CB4F120062FBF00FA06F1A140D5
:101C8000C4F1200620FA06F638BF3143A0403C1BC1
:101C90001AE7AC421ABF05EA1357AF4212E050EA06
:101CA00041061CBF52EA4306BFE750EA41073046EF
:101CB00061461CBF41EA0551F0BD52EA430C08BF22
:101CC000C143F0BD00204FF4001616EB410F98BF42
:101CD00016EB430F08BF16EB410F24BFC14305E0CD
:101CE00016EB430F0CBF61464CEA0551F0BD0000F6
:101CF000400D491840EA81200CD2490DA1F58061C0
:101D0000491C40F0004005DBD1F11F0154BFC84021
:101D1000C017704700207047014648B1B0FA80F103
:101D20008840C91CC1F58461090501EBD02140053B
:101D30007047012000F0B6B870470000841A71EBBC
:101D4000030604D26E40001BB141121973414FF4D7
:101D5000001C1CEB410F34BF7CEB430682E00C0DF2
:101D6000A4EB1356362E7BDC012E45EAC32341DC5F
:101D700043EA525312BFD20292025B08240545EA9D
:101D8000C12141EA5051D2EBC020994125D407D15D
:101D9000B0FA80F610FA06F162D00020203608E092
:101DA000B1FA81F6B140C6F1200220FA02F21143E5
:101DB000B0404FEAF474B4EB465434F001064FEAF5
:101DC00074040AD8D6F50016760D04F00044F040ED
:101DD00061FA06F25040F1404840C00A40EA4150E2
:101DE00021F0004128BF5FEA500550F1000044EBAC
:101DF000D12135E0DB0A45EAC121C90AB6F1200547
:101E00000EDD42EA0242120CC5F1200603FA06F684
:101E1000EB4042EA06056D42984161F100010DE098
:101E200062FA06F5F240554063FA06FC82EA0C02BB
:101E3000F3405A406D42904161EB030111F4801F61
:101E400005D1641E620502D06D004041494121F474
:101E50008011430875F1004350F1000041EB04513B
:101E600070BC70471CEB410F15D223F0004352EABF
:101E700043060BD04FEA4C0CBCEB410F04D80C0DC1
:101E8000661E342EB7DDEBE7801A994150EA410611
:101E900008BF0021E4E708BF1CEB430F28BF6FF029
:101EA0000001DDE780B500F007F8024A11001820B4
:101EB000ABBEFBE72600020010B500F052F80200AE
:101EC0000023DB4300241068984203D01100022055
:101ED000ABBE14605068984203D0111D0220ABBE07
:101EE000546010BDF0B583B0040000F03AF8A100D2
:101EF00047183D680026F643B54216D100F01AF89F
:101F00003D68B5420FD100BF09A00090002C01D15F
:101F1000002000E004200190032002906946012087
:101F2000ABBE05003D6000F014F8280003B0F0BD22
:101F30003A7474000C480121BFF35F8FD0E84F3F23
:101F4000C0E8421F002AF9D1BFF35F8F002BF3D105
:101F500070470548BFF35F8F00210170BFF35F8FAB
:101F600070470248704700006C1000209401002068
:101F700038B5040009D004F17005686808B900F0AC
:101F80001EF800F021F8012801D1012032BD606A5D
:101F900008B100F02AF800F00AF821F02A01FFE762
:101FA000816000F01BF8BDE8324000F030BB2068D3
:101FB000416821F4904141602068816870470021A8
:101FC0002970204600F0FFBB24206860206801686B
:101FD000490849000160204600F05CB920680168AA
:101FE00041F00101016020467047204600F0ACBA84
:101FF0002DE9FC47054605F17004884660682028F5
:102000001746994643D1B8F1000F14BF002F0120A5
:102010003ED0207801283AD00121217005F15006E8
:102020000021E1602120606000F00CFC37807780A7
:102030008246A968B1F5805F04BF286900281ABFED
:1020400040460027474680460DE02868B8F1000F5B
:1020500012BF18F8011B37F8021BC1F308010185F4
:102060007088411E718053467088CDF8009000281A
:1020700010D000228021284600F0F6FA0028E4D093
:10208000032005E0202060600020207000E0022096
:10209000BDE8F68700224021284600F0E5FA002836
:1020A000F0D0EDE730B500F158031C6A202C45D183
:1020B00009B1140001D1012030BD1C7E012C3DD09E
:1020C00001251D7641651A805A8000219960FF2202
:1020D0008168B1F5805F04D1016961B940F2FF12F6
:1020E00009E011B9016929B905E0B1F1805F06D1B4
:1020F000016911B97F229A8003E03F2100E00021AD
:102100009980002159622221196201688A6842F08F
:1021100001028A608268B2F5805F04BF016900290C
:1021200007BFDFF8E0239A60DFF8DC139960002135
:1021300019760068016841F4907101E0022030BD19
:102140000160002030BD38B504462568E9692A6879
:10215000AB6811F00F000AD188066DD590066BD5DB
:10216000216E002967D02046BDE834400847D807D3
:1021700002D412F4907F5FD0C80707D5D00505D5EB
:1021800001202862E06F40F00100E067880708D571
:10219000D80706D5256802202862E06F40F00400C9
:1021A000E067480708D5D80706D5256804202862C7
:1021B000E06F40F00200E06708070AD5900601D4FE
:1021C000D80706D5236808201862E06F40F00800A1
:1021D000E067E06F002856D0890605D5900603D544
:1021E000216E09B120468847E06F21688A68510650
:1021F00001D400071AD5204600F069FA20688168EA
:102200004A060ED500F040F858B10FF2E141816363
:10221000E06E00F01DFBB0B3E06E816BBDE83440B2
:1022200008472046BDE8324000F037BB204600F0AA
:1022300034FB0020E06731BDC80209D5580207D53C
:102240004FF4801028622046BDE8324000F026BBE3
:10225000080607D5100605D5616EA1B12046BDE878
:102260003440084748060ED550060CD5286820F0A3
:102270004000286020216167002060662046BDE89C
:10228000324000F00CBB31BD816821F0400181601B
:10229000E06E70472DE9FC4104469C4821689C4F44
:1022A0000A680240A0680243206902436069024351
:1022B000E06902430A6000264A68E06822F440525E
:1022C00002434A600025A369924A91421CBF206ADA
:1022D0000343886820F4306003438B60B9428E4822
:1022E0008E4B21D11B6803F00303032B29D8DFE8B1
:1022F00003F0025F50710127E169B1F5004F4FF61D
:10230000F07840F0D08067B1012F00F0A680022F56
:1023100000F0A680042F00F0A880082F00F0AE8007
:10232000B4E000F0C9FDA2E07D4FB94223D11B68A3
:1023300013F00C035FD0042B3AD0082B29D00C2BC0
:1023400048D010279142D7D1390006D0022F09D0AA
:10235000042F52D0082F53D0CDE000F0ADFD00285F
:1023600000F0CA80626802EB4201884202D3110386
:10237000814248D2BFE06B4FB9420CD11B6813F0C9
:10238000300338D0102B13D0202B02D0302B21D08B
:10239000D7E70227D6E7644FB9420BD11B6813F089
:1023A000C00328D0402B03D0802BF2D0C02BEEE707
:1023B0000427C7E75D4FB9420ED11B6813F4407381
:1023C00019D0B3F5807FF3D0B3F5007FE1D0B3F53A
:1023D000407FB6D10827B5E79142B2D11F6817F404
:1023E000406708D0B7F5806FE2D0B7F5006FD0D066
:1023F000B7F5406FCBE70027A4E700F014FDAEE788
:102400004FF40040AEE737B1022F0AD0042F0ED0B0
:10241000082F16D01BE000F04FFD00F08FF8794137
:102420000AE00021424E16EB5200494104E000F060
:10243000FAFC00F083F869410023FEF7A3FF06468B
:1024400006E0500800F50000B0FBF2F600E00125C0
:10245000A6F540713748814249E000F035FD06E0BD
:102460006068354901EB50010CE000F0DCFC61686C
:102470004A0802EB4002B2FBF1F605E06068410851
:1024800001F58031B1FBF0F6B6B200E00125A6F10E
:10249000100040452FD208EA0601C6F3420001436E
:1024A0002068C16028E047B1012F09D0022F0CD06D
:1024B000042F08D0082F0ED015E000F0FDFC04E03A
:1024C00000F002FD01E000F0AEFC616800EB51009D
:1024D000B0FBF1F605E06068410801F50041B1FB91
:1024E000F0F6B6B200E00125A6F11000404502D298
:1024F0002068C66000E0012500212166616628464B
:10250000BDE8F68121270008FD260008F369FFEFEA
:1025100000380140008000400024F4008810024090
:102520000044004000480040004C00400050004083
:10253000000024F400FD0F000048E8016268010E6D
:10254000560816EB0020704790F82410CA0706D5ED
:1025500002685368816A23F400330B43536090F898
:1025600024108A0706D502685368C16A23F48033B1
:102570000B43536090F824104A0706D5026853684D
:10258000016B23F480230B43536090F824100A0757
:1025900006D502685368416B23F400430B43536034
:1025A00090F82410CA0606D502689368816B23F45C
:1025B00080530B43936090F824108A0606D5026876
:1025C0009368C16B23F400530B43936090F824107D
:1025D0004A0610D502685368016C23F480130B433C
:1025E0005360016CB1F5801F05D15368416C23F431
:1025F000C0030B43536090F824100A0606D5016807
:102600004A68806C22F4002202434A607047F8B5A1
:10261000044604F170050020E8606FF07E4700F08A
:1026200011F90646206801680A0708D50097334665
:1026300000224FF40011204600F016F860B920681F
:1026400001684A070AD50097334600224FF48001FB
:10265000204600F009F808B10320F2BD2020686090
:10266000A86000202870F2BD2DE9F041069C0546C7
:102670000E4690461F462868C1693140B1420CBFE2
:1026800001200020404519D114F1010FF3D000F0D2
:10269000D9F8C01B844201D3002CECD12868016812
:1026A00021F4D071016000F00CF805F170002021D8
:1026B0004160816000210170032000E00020BDE83E
:1026C000F081286881684908490081607047016885
:1026D0000A6822F490720A6001688A6852085200FF
:1026E0008A6020218167002101667047806A00F1BD
:1026F000520100220A810A8000F0CFB810B500F024
:1027000027F808D100F02AF80B70416D4B1C00F03F
:1027100019F821B929E0088B40F00800088310BDA2
:1027200010B500F015F808D100F018F80B80416DD5
:102730008B1C00F007F821B917E0088B40F0080067
:10274000088310BD43652388591E21802188704766
:1027500000F1600201689369222B70478B8C00F1B5
:102760005A0461880B40416D704701680B6823F47F
:1027700090730B6001688B685B085B008B602021A5
:10278000916100211160BDE8104000F091BC000093
:10279000284882B0816841F001018160002281688F
:1027A00001F0010100910099016841F08051016040
:1027B0000F21006800F08050009000986FF0010039
:1027C00002B000F0FBBC10B586B0044601A814218D
:1027D00000F03CFD2168184A914228D11748C16891
:1027E00041F40031C1600222C16801F4003100915E
:1027F0000099016841F0080101606021006800F063
:102800000800009000980191002003900321072008
:1028100004910590029201A9094800F01BFD0022D5
:102820000521262000F0CAFC262000F0E4FC06B0BA
:1028300010BD000058100240004400404C100240FF
:10284000000C004801480068704700BF0C000020E1
:1028500038B500F1240100244A78022A03D004206C
:102860008861012417E00268136823F00E031360E7
:10287000026815686D086D001560012291F820301E
:10288000CD6903F01C039A406A6001224A700C7003
:10289000496901B18847204632BD7047704770478B
:1028A0002DE9FC4704001AD0DFF8AC76DFF8B85603
:1028B000B86800F00C08F86800F003092078C10639
:1028C0005BD5B8F1000F05D0B8F10C0F08BFB9F116
:1028D000010F2ED13868810703D5A069002800F0C8
:1028E0004481396808074EBF396869680909206A58
:1028F00001F0F001814206D200F0F2FA002808D17E
:1029000000F0F9F907E000F0F6F9206A00F0E8FAC3
:10291000002840F02A8100F086FABA6800F079FABF
:10292000DFF83C06006800F085FD010000F0218121
:10293000DFE1A069C0B1396841F001013960FFF7FA
:1029400081FF06463868810700F11181FFF77AFFA1
:10295000801B0328F6D30320CBE1FFF773FF801B16
:102960000328C0F04181F6E738684008400038602D
:10297000FFF768FF06463968880740F1FA80FFF7DD
:1029800061FF801B0328F6D3E5E76068B0F5803F60
:1029900006D0B0F5A02F396807D141F48021396005
:1029A000386840F48030386006E021F480313960C6
:1029B0003A6822F480223A60606860B1FFF742FF13
:1029C00006463968880300F1E780FFF73BFF801B6C
:1029D0006528F6D3BFE7FFF735FF06463868810361
:1029E00040F1DA80FFF72EFF801B6528F6D3B2E7AF
:1029F000E06880B1396841F480713960FFF722FFE7
:102A000006463868410500F11E81FFF71BFF801B59
:102A10000328F6D39FE7386820F480703860FFF70A
:102A200011FF06463968480540F1D080FFF70AFFDC
:102A3000801B0328F6D38EE7686840084000686072
:102A4000FFF700FF06466868810740F1D180FFF775
:102A5000F9FE801B0328F6D37DE70528286806D1F8
:102A600040F004002860296841F0010105E04008B9
:102A700040002860296821F004012960A06841F223
:102A8000893968B1FFF7DEFE82462968880700F1C0
:102A9000EB80FFF7D7FEA0EB0A004845F5D35AE7D5
:102AA000FFF7D0FE82462868810740F1DD80FFF7FE
:102AB000C9FEA0EB0A004845F5D34CE7FFF7C2FE7C
:102AC000801B0328C0F0E58045E7FFF7BBFE801BB5
:102AD0000328C0F009813EE7396811F0205F03D177
:102AE000F86880088000F860F968DFF88004014029
:102AF000F960FFF7A7FE06463868810140F1F880CB
:102B0000FFF7A0FE801B0328F6D324E701282CD072
:102B1000F868E26A00F00301914201BF00F0700121
:102B2000226B521EB1EB021F1FD1626B00F4FE41FB
:102B3000B1EB022F19D1A16B07290CBF0021012194
:102B400000F400328A4210D1E26B520800F4C00156
:102B5000521EB1EB425F08D1216C490800F0C06001
:102B6000491EB0EB416F00F0C3800120C1E000F0CE
:102B7000C2F82078C1070FD5B8F1080F06D0B8F118
:102B80000C0F08BFB9F1030F7FF4FFAE3868810363
:102B900002D560680028E8D02178880716D5B8F1FA
:102BA000040F06D0B8F10C0F08BFB9F1020F7FF483
:102BB0001FAF3868410502D5E0680028D5D0796894
:102BC000206921F0F85141EA006179602178080715
:102BD0000ED5606900283FF42FAF696841F001010C
:102BE0006960FFF72FFE0646686881077FF5B5AE7E
:102BF000217848073DD5B86D0026C10009D4B86DCD
:102C000040F08050B8650126B86D00F0805000900B
:102C10000098DFF85C93D9F80010C8051BD4D9F8E8
:102C2000000040F48070C9F80000FFF70BFE8246F8
:102C3000D9F80010C8050ED4FFF704FEA0EB0A0077
:102C40000328F5D387E67868216920F0F85040EA38
:102C500001607860BAE7A06801287FF4FEAE2868BA
:102C600040F00100286009E71EB1B86D20F08050E7
:102C7000B865A06AE0B3B8F10C0F3FF447AF022883
:102C8000386820F0807038607FF426AFFFF7DAFDF7
:102C90000646396888013FF511AFF968DFF8D402BC
:102CA000E26B0140E06A0143206B401E41EA0011E3
:102CB000606B520841EA0021206C521E400841EA34
:102CC0004251401E41EA4061A06B000941EA404187
:102CD000F960386840F080703860F96841F08071C0
:102CE000F960FFF7AFFD0646386881017FF5EDAE6C
:102CF0000020BDE8F687386840F008003860396881
:102D0000206A21F0F001014339607868E16920F41C
:102D10007F4040EA0120786070472DE9F8430400C5
:102D200088466AD0DFF85062306800F007004045FE
:102D300002D200F064F860D12178DFF81C52C80795
:102D40004AD56068032802D129688A0107E0022871
:102D500002D129688A0302E018B929688A0703D4D6
:102D60004BE02A68510548D5A968890840EA8100E6
:102D7000A86041F28939FFF765FD0746A8686168D8
:102D800000F00C00B0EB810F26D0FFF75BFDC01BFD
:102D90004845F3D303201DE02078410705D5A968F5
:102DA000E06821F4E0610143A9602078010706D5BD
:102DB000A868216920F4605040EAC100A86000F0D2
:102DC00032F8AA6800F025F8BDE8F24364480068CC
:102DD00000F030BBBDE8F2832178880705D5A968EB
:102DE000A06821F0F0010143A960306800F00700FD
:102DF0008045D1D200F003F8CED00120EAE7316857
:102E0000C90848EAC1013160306800F00700404558
:102E100070475A49C2F30312895C504A01F01F01FE
:102E2000C8401060704770B54B4A564B9068D668E2
:102E30000025002110F00C0006F00306524C03D0D0
:102E40000C2812D1012E1AD115682E0704D4454D35
:102E50002E68C6F3032502E01568C5F303154B4E33
:102E600056F8255048B9294624E0042808BF2146D1
:102E700020D008281ED119461CE00C281AD1D06891
:102E800000F00300022803D0032808BF1D4600E01D
:102E90002546D168D068D268C0F306204543C1F307
:102EA0000210C2F34161401C491CB5FBF0F049001F
:102EB000B0FBF1F1084670BD2848314A006813683C
:102EC0003349C3F3022206E024482D4A0068136800
:102ED0002F49C3F3C222895C01F01F01C84070472B
:102EE0007CB52C4E054630680024C10002D500F0A8
:102EF000C3FA0EE0306840F080503060316801F075
:102F000080510091009800F0B7FA316821F08051AB
:102F10003160B0F5007F04D1802D0CD9A12D09D3EB
:102F200004E0802D88BF032405D801D1022402E0EB
:102F3000702D00D1012410480168C90844EAC1017C
:102F40000160006800F00700A04201D0012076BDBA
:102F5000002076BD00000000001002401800002094
:102F6000100000209410024090100240FFFFEEFE7F
:102F7000007000408C809DF9002002407C4A0008CF
:102F80000810024000127A000024F4008C4A000865
:102F9000D84D0008581002401CB500F0ADFA00F002
:102FA0003DF85748574C016841F00801016000683E
:102FB000554900F008000090009821600020A060B2
:102FC000E06020614FF4E1310C206061616000201D
:102FD000A061E061206260622046FEF7C9FF08B18F
:102FE00000F0A0F8012249492046FFF75BF80020D5
:102FF00001900090002380220FF234110FF2111083
:103000000FF2341400F088FA00F057FB204600F06D
:103010001BFD4FF47A7000F02BFDF7E780B5B8B0D8
:1030200005A8442100F012F96846142100F00EF9B9
:1030300016A8882100F00AF901210B9110200590B3
:1030400060210D9100200C9001211091119102201E
:103050000F902821129107201390022114911591AD
:1030600005A8FFF71DFC08B100F05CF80F200090E8
:1030700003210020019102900390049004216846EE
:10308000FFF74BFE08B100F04DF80220169000212A
:10309000259116A800F000FD08B100F043F84FF4A8
:1030A000007000F0EFF908B100F03CF839B000BD55
:1030B00000681549884200D0704738B5134C114D4F
:1030C00020786278211D0A2888540FD10FF27C00E5
:1030D00000F0BAFC62786423211D2846FEF788FFC1
:1030E0002021201D00F0B2F8002001E06078401C93
:1030F000607021462846BDE838400122FEF7D2BF65
:103100004C100240980E002000440040381000206F
:1031100010B50FF24C04204600F05AFF642000F076
:10312000B2FAF8E780B50FF24C0000F08DFCFEE734
:103130005461736B2031000052756E6E696E6720AA
:10314000696E206D61696E0D0A00000053686F752D
:103150006C64204563686F20486572650A00000052
:10316000765461736B312069732072756E6E696E6F
:10317000670D0A004572726F722048616E646C655B
:10318000720D0A000901020081B002D4294881545D
:1031900005E0294802F00F02104400F8041C01B0B9
:1031A0007047264A13684FF6FF0100020B4000F4F7
:1031B000E0601843224908431060704738B51F4B40
:1031C0001C68C4F30223C3F10704052C28BF0424A0
:1031D0001D1D072D34BF0023DB1E012505FA04F455
:1031E000641E2140994005FA03F35B1E1A40114307
:1031F000BDE83440C6E7002807D4012200F01F01D3
:10320000104B8A40400943F82020704710B5401EFB
:10321000B0F1807F01D3012010BD0B4C60600F2105
:103220004FF0FF30FFF7AEFF0022A26007202060C2
:10323000002010BD00E400E018ED00E00CED00E01F
:103240000000FA0500E100E010E000E0002200F0DC
:10325000D3BE00002DE9F84F4FF000086C4BDFF8AB
:10326000B491DFF8B4A14FF00F0B07468E462BE068
:103270006A4CA74214BF072406248C402C4349F80B
:103280002240C1431A68DEF804400A40E40348BF04
:1032900002431A605A68DEF804400A40A40348BF9B
:1032A00002435A609A68DEF804400A40E40248BFCC
:1032B00002439A60DA680A40DEF80410890248BFC7
:1032C0000243DA6008F10108DEF8001031FA08F074
:1032D00000F09C80012202FA08F212EA0100F1D00B
:1032E000DEF80440022C18BF122C4FEA880111D1DD
:1032F0004FEAD80407EB840C01F01C04DCF82050E2
:103300000BFA04F6B543DEF8106006FA04F42C4319
:10331000CCF820404FEA480C03243D689EF8046036
:1033200004FA0CF4E44306F00306254006FA0CF612
:1033300035433D60D243DEF80450012D18BF022D05
:1033400003D0112D18BF122D11D1BD68DEF80C600D
:10335000254006FA0CF63543BD607D68DEF8046052
:10336000C6F30016154006FA08F635437D60DEF810
:10337000045005F00306032E07D1FE6AC5F3C0050D
:10338000324005FA08F52A43FA62FA681440DEF87A
:10339000082002FA0CF22243FA60DEF80420D20080
:1033A00090D5DAF8002042F00102CAF8002001F0BE
:1033B0000C01DAF8002002F0010200920BFA01F58C
:1033C000009A4FEA980259F8224024EA0505B7F11D
:1033D000904F08BF002418D0114CA74208BF012409
:1033E00013D0104CA74208BF02240ED00E4CA742A7
:1033F00008BF032409D00D4CA74208BF042404D001
:103400000B4CA7427FF434AF052436E7BDE8F18FBB
:10341000000401400800014060100240001800480C
:103420000004004800080048000C00480010004854
:103430000014004870B50E4E0446B0680025A0B1D7
:103440004FF47A71B1FBF0F00A490A68B2FBF0F070
:10345000FFF7DCFE48B9102C07D2002221464FF0BE
:10346000FF30FFF7ABFE746000E00125284670BD19
:103470000C00002018000020DFF87000006800F445
:10348000C060704710B5DFF86410B0F5007F0868C1
:1034900000F4C0601AD1B0F5007F20D00A68DFF8D0
:1034A0005030DFF8504022F4C06242F400720A60EB
:1034B00032201A684243B2FBF4F0401C4A695305BB
:1034C0000FD5002818BF401EF8D10AE0B0F5806F74
:1034D00005D00A6822F4C06242F480620A600020CB
:1034E00010BD48694105FAD5032010BD00700040A9
:1034F0001800002040420F00032010B5FFF751FED6
:103500000F20FFF797FF0024002814BF0124FFF7C6
:103510003FF9204610BD00002DE9F8430646174646
:1035200084B088469946B80000F080FD05001AD0A6
:10353000542000F07BFD040012D00D990C982563F7
:10354000002203920191009002944B463A46414674
:10355000304600F00DF8204600F046F8012004E067
:10356000284600F0EBFD4FF0FF3005B0BDE8F083DA
:103570002DE9F0470A9E8146306B00EB8202101F56
:10358000C0084FEAC00A0022885CB41884F83400EE
:10359000885C10B1521C102AF6D3089D002086F8D2
:1035A0004300062D099C88BF062506F14407F562F5
:1035B0003D6078609846301D00F01DFE06F1180051
:1035C00000F019FE3661C5F10705B561766200208D
:1035D000B860387342464946504600F047FE3060B6
:1035E00004B12660BDE8F0872DE9F04100F062F8F3
:1035F000DFF8AC53DFF8D083E86C401CE864142695
:10360000A86A28BBAC62E86C012829D1002706FB18
:1036100007F0404400F0E2FD7F1C072FF7D305F1CF
:10362000740000F0DBFD05F18807384600F0D6FD98
:10363000284600F0D3FD05F1140000F0CFFD05F1A0
:10364000380000F0CBFD05F17400E8622F6307E05D
:10365000A86D28B9E16AA86AC26A914228BFAC6223
:10366000A86E401CA86600F08BF94643211D08EBAC
:10367000060000F0C3FD00F08CFEA86D08B100F05C
:1036800094F9BDE8F08180B578B1DFF81423116FAB
:1036900011B100F06DF9FEE7116F491C11670021AF
:1036A00000F094F900F039F818B900F074F900F05E
:1036B00062F901BD044600F053BE3EB5DFF8704329
:1036C0000FF27C3104F19C0001900025009500234D
:1036D00080220FF20120FFF71FFF502101280ED199
:1036E00081F3118800F047F94FF0FF30E0660120C8
:1036F000A0652565BDE8374000F0E0BD37BD10F19D
:10370000010FFBD181F3118800F035F9FEE7DFF8F6
:103710002003016F491C0167704770B5DFF88062B4
:10372000306F0024002528B9502181F3118800F062
:1037300022F9FEE700F014FE306F401E3067316F53
:10374000002937D1F06CD8B934E0F168CC6800F0CA
:1037500032F800F00AF9E06A716D012282401143EB
:1037600071651423DFF8C4225843211D104400F072
:1037700045FDE06AB16ACA6A904224BF0120306602
:1037800030680028E1D10CB100F0D6F8F46D3CB1FE
:1037900000F015F808B101203066641EF8D1F56517
:1037A000306E38B1DFF88C024FF080510125016096
:1037B00000F0E1F8EBE004F1180000F044BD2DE961
:1037C000F843DFF8DC71386F0026002850D13C6DDB
:1037D000641C3C6511D1F86A006828B1502181F35E
:1037E000118800F0C8F8FEE7F86A396BF9623863AF
:1037F000786E401C786600F09FF8F86EDFF82C9227
:1038000084424FF0140825D31AE0281D00F01BFD58
:10381000A86A18B105F1180000F015FDE86A796D85
:10382000012282401143796508FB00F0291D4844BC
:1038300000F0E4FCE86AB96ACA6A904228BF01262F
:10384000F86A006880B1F96AC868C5686868844227
:10385000DBD2F866B86AC06A08FB00F159F80100CB
:10386000022808D3012606E04FF0FF31F966F1E7A0
:10387000F86D401CF865386E00B1012692E0DFF863
:10388000201181B0086F10B101220A6620E008669D
:10389000DFF89831486DB0FA80F2C2F11F021420AF
:1038A0004243985838B9502181F31188BFF34F8FA4
:1038B000BFF36F8FFEE7981800F108034268526863
:1038C00042609A4204BF526842604068C2688A629D
:1038D00001B070472DE9F041DFF85841DFF8E8808A
:1038E000DFF84C714FF0805511E000F039FD386A77
:1038F000C668301D00F0A7FCF86C401EF864786BB9
:10390000401E786300F045FD304600F00BF8786B00
:103910000028EAD1D8F800100229F8D3256000F079
:103920002AF8F4E710B50446206B00F007FC2046A7
:10393000BDE8104000F002BC1949C86A006810B91F
:103940004FF0FF3203E0C86AC268D0684268CA66B6
:103950007047DFF8DC10886D08B901207047086FE8
:1039600008B90220704700207047201D00F06BBC92
:10397000502080F31188BFF34F8FBFF36F8F7047D4
:103980000122E06A696D824011436965704700F069
:1039900000FD284670BD27494FF0805008607047F1
:1039A0006C0D00203046BDE8F283A96AC86AE16A5E
:1039B000884207D21F494FF080500860BFF34F8FF5
:1039C000BFF36F8F704700000C0E0020F8B5184D44
:1039D0002F6D0C46A96A0646081D00F034FC30B96C
:1039E000A86A696DC06A012282409143696516F137
:1039F000010F05D124B1A86A011D05F138001BE0B3
:103A0000A86AF6194660BE42A86A05D2011D286B55
:103A1000BDE8F44000F0FEBB011DE86A00F0FAFBCF
:103A2000E86E864238BFEE66F1BD00000C0E002045
:103A30006C0D002004ED00E0BDE8F44000F0DEBBBA
:103A400049444C45000000000EB4C0B5024603A82E
:103A500000210190009101AB0121044878440C3011
:103A6000FCF792FB06BC5DF810FB00BF2F130000B3
:103A700038B50446FEF7E6FE14F1010F054602D004
:103A8000044988680419FEF7DDFE401BA042FAD302
:103A900031BD00BF0C0000202DE9FC470546002485
:103AA0002868DFF810640105A14621D5686E70B161
:103AB000B0F5800F17D0B0F5000F03D0B0F5400F70
:103AC00009D013E0326842F48032326004E0002111
:103AD00000F07EF9044654B9F16F686E21F440019C
:103AE0000143F16704E000F06DF9F3E70124A1461A
:103AF0002868C10421D5A86EA8B1B0F1807F17D085
:103B0000B0F1007F03D0B0F1407F04D013E0306803
:103B100040F4803030607CB9F16FA86E21F04071C4
:103B20000143F16709E0002100F052F90446F2E791
:103B300000F048F9FAE70124A146286881032BD553
:103B4000F06CC1004FF000080AD4F06C40F08050D7
:103B5000F0644FF00108F06C00F080500090009885
:103B6000DFF80C74396841F480713960FEF76AFE41
:103B700082463868C10500F1EF80FEF763FEA0EBD6
:103B80000A000328F5D30324A146B8F1000F03D09F
:103B9000F06C20F08050F0642978C80705D5F16FEB
:103BA000A86B890840EA8101F1672878810705D56B
:103BB000F16FE86B21F00C010143F16728784107B0
:103BC00005D5F16F286C21F030010143F1672878A9
:103BD000010705D5F16F686C21F0C0010143F16761
:103BE0002878C10605D5F16FA86C21F44071014316
:103BF000F1672878810605D5F16FE86C21F4406102
:103C00000143F1672868810505D5F16FE86D21F45E
:103C100040210143F1672868410505D5F16F286E01
:103C200021F440110143F1672878410605D5F16F71
:103C3000286D21F440510143F1672878010605D52C
:103C4000F16F686D21F440410143F1672868C105B7
:103C500005D5F16FA86D21F440310143F167286863
:103C600081041BD5F16FE86E00F0A2F8E86EB0F1A8
:103C7000006F0BD100F0A1F810E0FEF7E3FD001B90
:103C80005045C0F089804FF003097EE7B0F1806FA6
:103C900004D100F09CF8010018BF81462868010398
:103CA00012D5F16F286F00F083F8286FB0F1006F24
:103CB00002D100F082F807E0B0F1806F04D100F08B
:103CC00086F8010018BF81462868410312D5F16FBC
:103CD000686F00F06DF8686FB0F1006F02D100F00E
:103CE0006CF807E0B0F1806F04D100F070F80100CB
:103CF00018BF81462868410418D5F16FA86F21F0DC
:103D000040510143F167A86FB0F1805F03D10221F8
:103D100000F05EF807E0B0F1005F07D1022105F185
:103D2000200000F0C9F8010018BF8146286801048E
:103D300005D5F16FE86F21F080410143F1672868F4
:103D4000C10306D5F16FD5F8800021F00041014391
:103D5000F1674846BDE8F687002C7FF415AFDFF821
:103D60005C72386810F440701CBFD5F8841088422B
:103D70000BD03868396841F48031396020F44070E4
:103D80003A6822F480323A603860C00708D5FEF7FE
:103D900059FD044641F2893A386881077FF56DAFD5
:103DA0003968D5F8840021F4407101433960ECE6AC
:103DB00021F040610143F1677047306840F48010A2
:103DC00030607047002105F1200000F075B8012136
:103DD000281DFFE72DE9F04100F0E4F809D0F16873
:103DE00001F0030181422BD150B300F0C3F80CD095
:103DF00026E0012804D023D303281BD016D31FE0CC
:103E000031688A071CD500F0C3F8306820F0806064
:103E100000F0D1F880463168080135D5FEF712FD73
:103E2000A0EB08000328F6D3032538E031684A05E3
:103E3000E9D405E032689103E5D431684A03E2D45D
:103E400001252CE0012C326909D15E480240386915
:103E5000400842EA0121401E41EA405104E05A482C
:103E60000240786900F08DF83161306840F0806080
:103E700000F0A1F80446316808010CD4FEF7E2FC1A
:103E8000001B0328F7D3CFE7B968002CDAD13269D9
:103E900000F006F8E8E73169B8690143316163E091
:103EA0004A480240F86842EA0121000941EA4041DB
:103EB000704700000C1002402DE9F04100F072F84C
:103EC00009D0F16801F0030181422BD150B300F019
:103ED00051F80CD026E0012804D023D303281BD0AE
:103EE00016D31FE031688A071CD500F051F83068FE
:103EF00020F0805000F05FF880463168880028D5B7
:103F0000FEF7A0FCA0EB08000328F6D303252BE066
:103F100031684A05E9D405E032689103E5D4316897
:103F20004A03E2D401251FE027480240386900F027
:103F300028F87161306840F0805000F03CF8044689
:103F4000316888000CD4FEF77DFC001B0328F7D3F2
:103F5000DCE7B9687269002CE6D1FFF7A1FFE8E75A
:103F600071697869014371612846BDE8F0810000FC
:103F700000700040F0687968C0F30210401C88426D
:103F80007047400842EA0121401E41EA4061704703
:103F9000F1687A6821F073010843521E40EA02106A
:103FA000F06070470746064E38680C46F1680025F9
:103FB00011F0030F70473060FEF744BC90100240D0
:103FC00000100240FF809FFFFF80FFF9FF80FDFF90
:103FD00010B5044600F0C4F9214605A0FFF734FDF2
:103FE000044800F059FABDE8104000F0D2B90000D2
:103FF000257300006400002000B500BF1300964642
:104000009446103928BFA0E80C50FAD85FEA417CEA
:1040100028BF0CC048BF40F8042BC90728BF20F8B0
:10402000022B48BF00F8012B00BD00002DE9F8432A
:104030000446FFF76CFB684FB8684FF00009002595
:1040400000BB07F1180307F1180113F0070F40F642
:10405000B8300A4604D0CA1DD208D200801A081807
:1040600080180838C008C0003A607D60B8604560BC
:104070000560811A5160106050683861F8604FF037
:10408000004078614FF050087869044233D194B30E
:10409000083414F0070F1FBF04F1080004F00704F0
:1040A000041B14F0070F02D000F041F8FEE714B330
:1040B000F868A0421FD33E6839467068A04223D2F8
:1040C000306800281CBF31460646F6D11CE0301D82
:1040D00002517460084600F05BF87168F8683A694C
:1040E000401AF860904238BF3861786901437160C6
:1040F000356009F00705FFF710FB15B100F017F860
:10410000FEE74846BDE8F283B8688642F3D03268DD
:1041100008680A6000F108097268121B112ADCD3D2
:10412000311911F00700D2D000F001F8FEE788F352
:104130001188BFF34F8FBFF36F8F7047002800D1F6
:10414000704738B5A0F10804234D61686A695023AF
:10415000114202D100F015F8FEE7206810B100F01E
:1041600010F8FEE791436160FFF7D1FAE9686068F3
:104170004118E960204600F00BF8BDE83140FFF738
:10418000CCBA83F31188BFF34F8FBFF36F8F7047A3
:1041900030B511490A4600E0224614688442FBD338
:1041A0005368D418844203D14068C3185360104642
:1041B00043681468C518A54208D189688C4204D0A8
:1041C0006168CB184360246800E00C4604608242BA
:1041D00018BF106030BD00009C01002000F10801F4
:1041E00041604FF0FF31816000F10801C160016161
:1041F00000210160704700210161704742684A60F8
:1042000093688B6093685960916008610168491CEC
:104210000160704730B50A6812F1010F08BF0369E9
:1042200007D000F1080300E023465C682568AA4235
:10423000FAD25A684A6091608B60596008610168DF
:10424000491C016030BD4368016982689A608368D7
:1042500042685A604A68824204BF82684A6000220B
:1042600002610868401E08600868704749084900F4
:1042700010B5A0F120034FF080749961DC611A60E1
:104280000FF2110159616FF0020140F8241D20382E
:1042900010BD000052494A68502012F1010F06D0AB
:1042A00080F31188BFF34F8FBFF36F8FFEE780F36A
:1042B0001188BFF34F8FBFF36F8FFEE77CB549497D
:1042C000494B0A6850209A4202D100F082F8FEE77A
:1042D0000B68464CA34202D100F07BF8FEE7444A4B
:1042E00014780194FF231370072513783C4C8DF844
:1042F00000309DF80030A56003F05003237006E005
:104300005B1EA3609DF800305B008DF80030A36851
:104310009DF800502E06F3D4C3F10705042D02D0FA
:1043200000F057F8FEE71B0203F4E063A360019876
:104330001070086A40F470000862086A40F070402B
:10434000086200F05BF80020606000F00BF929487B
:10435000016841F04041016000F0F4F8002076BDB2
:10436000502080F31188BFF34F8FBFF36F8F1C492C
:104370004A68521C012A4A600AD11F490A6813067A
:1043800006D080F31188BFF34F8FBFF36F8FFEE726
:1043900070471349486838B9502080F31188BFF33B
:1043A0004F8FBFF36F8FFEE7401E486008BF80F35A
:1043B0001188704780B5502000F00BF8FFF7FFF927
:1043C00018B10D494FF080500860002181F3118829
:1043D00001BD80F31188BFF34F8FBFF36F8F70471C
:1043E0000000002000ED00E071C20F4170C20F41DB
:1043F00000E400E034EF00E004ED00E007480021B5
:10440000016081604FF47A7305490A68B2FBF3F3E7
:104410005B1E436007210160704700BF10E000E0B1
:104420001800002070B50546AFF30080288881048D
:1044300015D56E680024EA6895F90300314691426B
:1044400012D2521A00F09CF810F1010F1CBF002884
:104450003618F0D10FE04DF6FF7001402980284654
:10446000AFF30080002070BD0022002100F088F82A
:1044700010F1010F00D101246868E860A861E861CB
:10448000002C2988E7D041F4007129802846AFF339
:1044900000804FF0FF3070BDF8B5A0B9AFF30080D9
:1044A00000250A4E08244FF0FF37306820B1FFF78F
:1044B000B9FF002848BF3D46361D641EF5D1AFF355
:1044C00000802846F2BDBDE8F240ABE7F4000020D2
:1044D000EFF30980BFF36F8F264B1A681EF0100FA1
:1044E00008BF20ED108A20E9F04F106009B44FF0AA
:1044F000500080F31188BFF34F8FBFF36F8FFFF72A
:10450000BEF94FF0000080F3118809BC19680868F3
:10451000B0E8F04F1EF0100F08BFB0EC108A80F327
:104520000988BFF36F8F7047124B19680868B0E8AD
:10453000F04F80F30988BFF36F8F4FF0000080F3D6
:10454000118870470C480068006880F308884FF0B5
:10455000000080F3148862B661B6BFF34F8FBFF3DB
:104560006F8F00DFDFF81400016841F47001016013
:1045700070470000940D002008ED00E088ED00E099
:1045800080B5002802D400F003F802BD002002BD6F
:1045900080B5002901D1002002BD012801D00228E8
:1045A00002D100F004F802BD00F011F802BD30B5F0
:1045B00083B00C0015000120FDF794FC00900194DD
:1045C000029569460520ABBE281A03B030BD18B568
:1045D00083B0030014000093019102946946052002
:1045E000ABBE01221900201A00F023F804B010BD60
:1045F00010B4314A002113461C6884421EBF491C76
:104600009C6884421EBF491C1C69844209D09C6975
:10461000491C844205D0491C20331029ECD310BC1E
:104620007047002342F8313002EBC1014B6010BCEF
:10463000704778B4204C002325462E688E421EBF5A
:104640005B1CAE688E421EBF5B1C2E698E4209D079
:10465000AE695B1C8E4205D05B1C2035102BECD361
:1046600072BC7047054604EBC303012A04BF5968B6
:104670004D195D6072BC704710B40F4A002113469B
:104680001C6884421EBF491C9C6884421EBF491C92
:104690001C6984420AD09C69491C844206D0491C8A
:1046A00020331029ECD310BC0020704702EBC1006E
:1046B000406810BC70470000180F002010B5044679
:1046C000AFF30080204600F005F80446AFF3008009
:1046D000204610BD7CB500F10F06F608F600B0428A
:1046E00040D2082E04D2082602E0083000F047F835
:1046F000DFF804512C68210005D1002007E0026892
:10470000B24221D2011D08680028F8D12068291D75
:104710000A68824222D01368B34238BF111DF7D312
:1047200012E093190B60801B54685C600B68186082
:104730001660096800291DBF48680028081D002070
:10474000286002F1080076BD61B10A681068A0F126
:104750000803B342E5D250680860EAE700F04EF87B
:104760000028C2D1002076BD10B5040006D0AFF3FA
:104770000080204600F003F8AFF3008010BD002851
:1047800000D1704750B4A0F108021368072B2BD951
:1047900013F0070F28D1184C616809B18A4202D280
:1047A0005160626013E0486800B3904238BF014630
:1047B000F9D31BE0964203D11B180B600A4606E0B2
:1047C000486810B1134498420ED350604A60506854
:1047D00050B11368D118814206D1002121600168CF
:1047E000CB1813604068506050BC704708680E18C2
:1047F000B242DFD250BC70475C1000200749086805
:1048000008B1002070470648C008C000086005498C
:10481000C908C900091A0160704700BF681000206C
:1048200077140020701600202DE9F04107468846D5
:10483000387810F0030F16461D4633D03846FFF780
:104840002BFE78BBB8F1000F1CBFD8E90001861918
:10485000012D2ED13888C10415D5396A07F14402DB
:10486000384600F04DF83A6B044602B93A69F968E7
:10487000384600F045F8361B341A7A69F96838462C
:1048800000F03EF8261A1EB94DB916F1010F09D0F5
:1048900097F903002A46314600F038F8064616F12B
:1048A000010F09D12320AFF300804FF0FF30BDE8A6
:1048B000F081022DE8D1EBE7388810F4405F0ED08C
:1048C0007868F86038617861B8617868F86107F1F4
:1048D0004400386207F13000786200203863B8F194
:1048E000000F05D0D8E9020107F13402C2E9000146
:1048F00039884CF6FF60014039800020BDE8F08126
:10490000914234BF511A0021084670473EB5040059
:104910000D00012A02D1FFF7AFFE07E0022A07D1FE
:1049200000940020019069460C20ABBE2D1801E0D8
:10493000002A0CD10094019569460A20ABBE0028DC
:1049400005D1002221002800FFF773FE01E00020BE
:10495000C04303B030BD10B50446E068A169884289
:1049600051D3218849F202020A40022A08D00804E1
:104970004CBF4FF400704FF48440014321803BE072
:1049800001F4C041B1F5C04F06D1A168884203D3FC
:104990002046FFF781FD78BB208810F4406F02BFEE
:1049A000606804F14401884217D14FF40070FFF7AA
:1049B00085FE606030B904F144006060E060401C36
:1049C000A0600AE0218841F040012180E060606140
:1049D00000F500726068A260E06160682061A06814
:1049E000A061207841070AD502220021204600F06C
:1049F0000CF810F1010F02D14FF0FF3010BD2088EC
:104A000040F4C0402080002010BD70B504460D4623
:104A10001646AFF3008033462A4600212046FFF7B2
:104A200003FF05462046AFF30080284670BD000016
:104A30000E48016841F47001016000220C490868C9
:104A400040F0010008608A600A480A6802400A6073
:104A50004FF48050C8600022086820F4802008606D
:104A60008A614FF0006004490860704788ED00E0FB
:104A700000100240FFFFF6EA08ED00E00000000031
:104A8000000000000102030406070809A0860100D7
:104A9000400D0300801A060000350C0040420F0054
:104AA00080841E0000093D0000127A000024F400FA
:104AB00000366E010048E801006CDC0238B50400E5
:104AC0000ED0207810F0030F03D094F903000028D3
:104AD00009D5AFF30080204600F030F8AFF3008036
:104AE0004FF0FF3032BD2046FFF7D6FC0546AFF34E
:104AF00000802078410644BF606800F05DF8002027
:104B0000606094F90300022804D900F057F808B156
:104B10004FF0FF35E06B48B100F05CF808B14FF0A2
:104B2000FF35E06B00F048F80020E063204600F01D
:104B300005F8AFF30080284632BD000001780A0670
:104B400026D51C4A13680021834203D1002342F872
:104B500021301BE05368012183421EBF022193686C
:104B60008342F3D0D368032183421EBF042113691B
:104B70008342EBD05369052183421EBF062193690E
:104B800083421EBF0721D3698342DFD000F014B8EF
:104B9000002101804FF0FF31C17000F144014160FC
:104BA000C160016141618161C161016200F1300157
:104BB00041627047F4000020FFF7D6BD1CB502002B
:104BC000009269460220ABBE04001000FFF710FD02
:104BD000200016BDE0B50090FCF732FB019069465D
:104BE0000E20ABBE03B000BD38B50C46C5B22046A2
:104BF000AFF30080E068A169884204D32046FFF744
:104C0000AAFE00280FD4E068401CE06000F8015DB7
:104C10002088010503D440050BD50A2D09D1204673
:104C2000FFF73AFC28B12046AFF300804FF0FF3089
:104C300032BD2046AFF30080284632BD19E050F85F
:104C4000042BD30744BFA9F101039A18091F0023BD
:104C5000042942F8043BF9D25FEA817C134604D56B
:104C60004FF0000CA2F800C09B1CC90744BF0021F4
:104C7000197050F8041B0029E1D1704738B50D4D6B
:104C80000824286800281CBF017811F0030F05D004
:104C900090F90310002958BFFFF710FF2D1D641E67
:104CA000EFD1BDE83840002200214FF0FF30FFF780
:104CB00067BC00BFF40000207047FEE7FEE7FEE798
:104CC000FEE7704780B500F00FF8FEF742FE0128BE
:104CD00003D0BDE80140FFF76DBB01BD0148FDF702
:104CE00032BA0000980E002002490A6888688218CB
:104CF0000A6070470C00002010B50749794418314C
:104D0000064C7C44163404E00A68081D11448847A8
:104D10000146A142F8D110BD2C000000480000005F
:104D20004EF68851CEF20001086840F47000086029
:104D3000BFF34F8FBFF36F8F4FF00070E1EE100A9B
:104D400070470000F9FEFFFFD40E00009C01002018
:104D50000000000083C3FFFFD00100002601000017
:104D60000000002000F00DF8002801D0FFF7C4FF7C
:104D7000AFF300800020AFF30080FEF70DF900F0E4
:104D800002F80120704700F001B800000746FFF765
:104D900075FF3846FDF786F8FBE738B504460D4643
:104DA000284600F005F8A84218BF0024204632BD6E
:104DB0000149FFF719BF00BF640000200148804788
:104DC00001480047314A0008CD4D0008AFF300808C
:104DD000FFF7A6FFFFF7C6FF000000000102030473
:104DE00000002E004300FFF7FEBFFFF7FEBFFFF7F6
:104DF000FEBFFFF7FEBFFFF7FEBFFFF7FEBFFFF7E7
:104E0000FEBFFFF7FEBFFFF7FEBFFFF7FEBFFFF7D6
:104E1000FEBFFFF7FEBFFFF7FEBFFFF7FEBFFFF7C6
:104E2000FEBFFFF7FEBFFFF7FEBFFFF7FEBFFFF7B6
:104E3000FEBFFFF7FEBFFFF7FEBFFFF7FEBFFFF7A6
:104E4000FEBFFFF7FEBFFFF7FEBFFFF7FEBFFFF796
:104E5000FEBFFFF7FEBFFFF7FEBFFFF7FEBFFFF786
:104E6000FEBFFFF7FEBFFFF7FEBFFFF7FEBFFFF776
:104E7000FEBFFFF7FEBFFFF7FEBFFFF7FEBFFFF766
:104E8000FEBFFFF7FEBFFFF7FEBFFFF7FEBFFFF756
:104E9000FEBFFFF7FEBFFFF7FEBFFFF7FEBFFFF746
:104EA000FEBFFFF7FEBFFFF7FEBFFFF7FEBFFFF736
:104EB000FEBFFFF7FEBFFFF7FEBFFFF7FEBFFFF726
:104EC000FEBFFFF7FEBFFFF7FEBFFFF7FEBFFFF716
:104ED000FEBFFFF7FEBFFFF7FEBFFFF7FEBFFFF706
:104EE000FEBFFFF7FEBFFFF7FEBFFFF7FEBFFFF7F6
:104EF000FEBFFFF7FEBFFFF7FEBFFFF7FEBFFFF7E6
:104F0000FEBFFFF7FEBFFFF7FEBFFFF7FEBFFFF7D5
:104F1000FEBFFFF7FEBFFFF7FEBFFFF7FEBFFFF7C5
:104F2000FEBFFFF7FEBF000012000112AA015200EF
:104F30000112100922010D100A093D0001040000B0
:104F4000600000206104526004211BA108524C0C37
:104F5000F10B01200A02040101E80F0020381000C3
:104F6000200821042134610812A844F21394485007
:104F70000208020298405298042134610812F04459
:104F8000F212DC48121C24126404F206AC2CF0026B
:104F900007E04D00080452FF01F200E21410010086
:104FA00000E40C253CF31114018461012002F1118D
:0B4FB00000082C43DF113C210161646C
:0400000508004DCDD5
:00000001FF
