:020000040800F2
:1000000058070020814100085D4100085F41000859
:1000100061410008634100086541000800000000DC
:100020000000000000000000000000006741000820
:1000300069410008000000006B4100086D410008A4
:10004000A3410008A7410008AB410008AF410008E8
:10005000B3410008B7410008BB410008BF41000898
:10006000C3410008C7410008CB410008CF41000848
:10007000D3410008D7410008DB410008DF410008F8
:10008000E3410008E7410008EB410008EF410008A8
:10009000F3410008F7410008FB410008FF41000858
:1000A00003420008074200080B4200080F42000804
:1000B00013420008174200081B4200081F420008B4
:1000C00023420008274200082B4200082F42000864
:1000D00033420008374200083B4200083F42000814
:1000E00043420008474200084B4200084F420008C4
:1000F00053420008574200085B4200085F42000874
:1001000063420008674200086B4200086F42000823
:1001100073420008774200087B4200087F420008D3
:1001200083420008874200088B4200088F42000883
:1001300093420008974200089B4200089F42000833
:10014000A3420008A7420008AB420008AF420008E3
:10015000B3420008B7420008BB420008BF42000893
:10016000C3420008C7420008CB420008CF42000843
:10017000D3420008D7420008DB420008000000001C
:10018000DF420008E34200082DE9F84F0FF2B019F2
:10019000A2B0D9E90045CDE900452C9EDFF80C9CC2
:1001A00004918DF8436000210FF29C140D9112947C
:1001B0004FF0FF36824615461F460FE0AB464446D9
:1001C0001BF8011B0498D0470028049000F0A6807B
:1001D0000D98401C641E0D90F2D1454428782528C6
:1001E00007D100210791089109910A910B910C9177
:1001F0000FE06A463146284600F0DAFF5FEA000861
:1002000001D10D98A4E0D9D54FF00108E5E741F000
:10021000010115F8010F2028F9D023280CD02B2834
:1002200004D02D2805D0302809D079E041F0020112
:10023000EFE741F00401ECE741F00801E9E741F0A4
:100240001001E6E700200F9009E00F98484505DA15
:1002500000EB800302EB4302303A0F926D1C2A78C8
:10026000A2F130000A28F0D32A782E2A18BF0E9661
:1002700023D115F8010F2A2807D1386838606D1C82
:1002800050F8042B38600E9217E02D280CBF15F89B
:10029000010B002000220E920AE040B90E9A4A4556
:1002A00005DA02EB820403EB4403303B0E936D1C32
:1002B0002B78A3F130020A2AEFD3ADF84010129840
:1002C000297800F081FF08B115F8010B8DF8420084
:1002D0009DF84200682804BF2978682903D162206C
:1002E0008DF8420007E06C2804BF28786C2803D101
:1002F00071218DF842106D1C13A806903A4615F82E
:10030000013B02A9504600F063F838B913AA02A9CC
:10031000504600F0C5F900287FF560AF304617E081
:100320002A288FD13A683A6052F8040B3A600028C4
:100330000F9003D540420F9041F004016D1C93E7EC
:100340000000000000000000686A6C747A4C000035
:1003500023B0BDE8F08F622820D0682811D06A2829
:1003600003D06C2827D0712825D10868C01D20F043
:1003700007000860D0E900230830086019461046DD
:100380007047002A0A680A60106803D0121D0A60CC
:1003900000B217E0121D0A6080B217E0002A0A6856
:1003A0000A60106803D0121D0A6040B20AE0121DF4
:1003B0000A60C0B20AE0002A0A680A60106803D026
:1003C000121D0A60C1177047121D0A600021704794
:1003D0007CB50D4611461C462E69B4F1250200F08D
:1003E0004D811C3A00F08680121F022A40F2828062
:1003F0000E3A00F00781521F5AD0093A7AD0921E65
:1004000016D0521E35D0521E022A73D9121F30D078
:10041000521F00F09A80521E4AD0521E00F0E48013
:10042000D21E00F0FD80921E42D0D21E40D02BE1A1
:1004300095F83A206C2A09D06869421C6A610A68FA
:100440000A6052F8043B0A60335427E10A680A60E4
:1004500052F8043B0A600021009301914FF0FF32F3
:100460002A6329466A4600F096F9002840F1168171
:1004700001E195F83A000122FFF76DFFC5E900019F
:100480000023994204DA6869411C69612D210DE05D
:10049000288F810704D56869411C69612B2105E01B
:1004A000C00722D56869411C6961202131541CE0D4
:1004B00095F83A000022FFF74EFFC5E9000195F8D4
:1004C0003800010711D5D5E900230020834208BF79
:1004D00082420AD044F02000782806D16869302191
:1004E0003154401C411C69613454214668693044D0
:1004F000E86083E00868C01D20F007000860D0E9CC
:10050000002308300860C5E90023D5E90001C80FC1
:1005100004D06869411C69612D210DE0288F810795
:1005200004D56869411C69612B2105E0C00704D529
:100530006869411C69612021315468693044E86070
:100540002146284600F032FAA8E005F13A02507838
:1005500020B14FF0FF340FF6FC2070E010786228D5
:1005600008D0682824D06A2812D06C282ED0712890
:100570000ED02BE00A680A6052F8040B0A6020B91A
:100580004FF0FF340FF6E42059E0E96A017085E08E
:100590000A680A6052F8040B0A6020B94FF0FF3471
:1005A0000FF6C8204BE0EA6AD317C0E9002375E0D4
:1005B0000A680A6052F8040B0A6020B94FF0FF3451
:1005C0000FF6A8203BE0E96A018067E00A680A604C
:1005D00052F8040B0A6020B94FF0FF340FF68C205C
:1005E0002DE0E96A016059E00A680A6052F8040BDC
:1005F0000A600021C5E90001EE607821284600F07C
:1006000029F94BE06C2285F83A200B680B6053F80F
:10061000042B0B6052BB4FF0FF340FF684200EE02A
:1006200095F83A206C2AF0D00868086050F8044B1E
:100630000860EC603CB94FF0FF340FF6482000F042
:10064000DDFD201A76BD2E6B002E04D5204600F06D
:10065000F7FD044608E032460021204600F00CFE7B
:10066000002814BF041B3446AC6117E0294600F093
:1006700092F8002812D54FF0FF3076BD6869411C12
:1006800069612521315409E06969481C68612522A6
:100690007254210002D0411C69613454002076BD9F
:1006A0002DE9F0410E460546716B7069B46A091A6E
:1006B000306A091AB069091A706A091AF069091AC8
:1006C00096F838000C1B410790460DD4002C0BDD2A
:1006D0002746B0682021A8470028B06057D0F06AAC
:1006E000401C7F1EF062F4D17369424631462846B1
:1006F00000F099FC00284AD1376A002F0ADDB06863
:100700003021A8470028B06041D0F06A401C7F1E0D
:10071000F062F4D1B369F2683146284600F083FCF8
:10072000A8BB776A002F09DDB0683021A847B06008
:1007300068B3F06A401C7F1EF062F5D1F068B169C1
:10074000F36942183146284600F06DFCF8B9B76AE3
:10075000002F09DDB0683021A847B060B8B1F06A59
:10076000401C7F1EF062F5D196F8380041070BD58A
:10077000002C09DDB0682021A847B06038B1F06ACC
:10078000401C641EF062F5D10020BDE8F0814FF0FE
:10079000FF30BDE8F0812DE9F8470D46A3B02F6B7F
:1007A000002F8146904648BF6FF0004700F090FD53
:1007B000696B40180FF604118128D1E90023CDE9B7
:1007C000012328BF4FF0FF303ED20024002F2FDD41
:1007D000D8F8001001AA684600F0ECFC0646002E8E
:1007E00035D4D8F8000008B9761E30D4B7421FDBE4
:1007F0006869301881280AD30020686303AA294653
:100800004846FFF74DFF040012D40020686103A89A
:10081000D5F814A032466946504400F05FFDB2445A
:10082000C5F814A058F8040B002818BFBF1BCDD181
:100830002CB903AA29464846FFF732FF044614B9EB
:10084000002068616863204624B0BDE8F0874FF05F
:10085000FF34F8E72DE9FC4704468A462569BAF1DA
:100860006F0F08BF082605D04AF02001782914BF71
:100870000A2610263C27D4E90023BAF1640F18BFDA
:10088000BAF1690F9046994606D100218B4203DAEE
:10089000D8F1000869EB49090020814508BF80456F
:1008A0001FD1206BE8B9082E4CD194F8380001070D
:1008B00048D530203B2785F83B0043E000280ED583
:1008C00094F8380000F01400102808D1626B6069B9
:1008D000121A206A121A511A0029C8BF2162BDE8F3
:1008E000F3878DF800A0404649463246F31700F0E2
:1008F0006BFD3032D2B27F1E3A2A019704DB9DF89D
:100900000000A0F151018A18EA5540464946324696
:10091000F31700F059FD804689460020814508BF45
:10092000804503D0E068E9198842DCD3082E09D15C
:1009300094F83800010705D5E95D302902D07F1E03
:100940003020E855C7F13C01A161E819E060206B57
:100950008142B3DA411A21624FF6EF70218F0140D4
:100960002187BDE8F3872DE9D04306460F4614469C
:100970004FF00008DFF8389412E0E00707D5424650
:100980004B463046394600F037FE06460F46404695
:10099000494642464B4600F02FFE64108046894689
:1009A000002CEAD130463946BDE8D0832DE9F34F1B
:1009B000054641F020048DB0D5E90089612C02AED6
:1009C00009D0286B002848BF062003D408BF672C35
:1009D00001D101202863D5E9002358004015401CAF
:1009E0000ED119030CD00320A8619DF8380061389E
:1009F0001A2802D20FF2CC6111E00FF2CC610EE0A6
:100A000058004015401C0FD119030DD10320A861D7
:100A10009DF8380061381A2814D30FF2B461E868E1
:100A2000032200F05BFCD3E1194621F00043B3F54B
:100A3000801F10460DD20027BB4208BFBA42019763
:100A400003D111E00FF28461E9E701AA00F0A6FEEC
:100A50000AE0DFF8607307EB1352DFF85C330192B2
:100A60001940DFF858331943C5E90001612C0ED154
:100A7000E86830210170811CE9609DF83810612917
:100A80000CBF7821582141706869801C6861D5E9E4
:100A900000AB2BF0004300202AF00002834204BF89
:100AA0008242002300F05A81612C40F0A980286B1B
:100AB00000284CBF2120401C00904046009F7F1C16
:100AC00049460022002300F0A1FED94601988DF886
:100AD000082038BF89F00049001F0190002FD04640
:100AE0000DF1090040F3498140F2FF71DFF8D0B207
:100AF0000C910646404649460022002300F09EFE27
:100B000080F03A814800400D00F11C0210D0002A0C
:100B10000EDD0C98824205DB09F0004040EA0B0133
:100B2000002013E0A448084040EA025140460DE08E
:100B300029F00043002028F00002834208BF8242CF
:100B40000FBF40461C22404600F090FE804689467A
:100B500000F02AFFFF1F002F044609DD00F042FFCE
:100B600002460B464046494600F04EFF8046894605
:100B7000F01D072104E004F00F0200F8012D2411FC
:100B8000002C01DD491EF6D5491E5CBF002200F88D
:100B9000012DF9D5ECE00020194602AA0A4400E034
:100BA0005B1E12F80149491E8442F9D00F2804D176
:100BB0000DF10900425C521C4254002904D50198F1
:100BC000001D02AE5B1C0190591E12D49DF8380026
:100BD0007218A0F13A04177830375FFA87F8B8F145
:100BE000390FC8BFA044491E02F80189F3D58DF81A
:100BF0003800286B002840F1B080591E2963ACE012
:100C0000404649460022002300F000FE019938BF0B
:100C100089F0004947F2975041436A4A91FBF2F24A
:100C20000192D2F1070204DD40464946FFF79BFEE0
:100C30000AE0524200206449FFF795FE02460B4647
:100C40004046494600F052FF8046662C286BDFF88C
:100C50007CB106BF019F0A3706273F18142FC8BF73
:100C6000142730208DF8080089460DF1090000E0B6
:100C70003046002F34DD06464046494601F05AF81A
:100C800001460A4606F1080304200A26B2FBF6F6DE
:100C900006EB860EA2EB4E02303203F8012C0A223C
:100CA000B6FBF2F202EB820EA6EB4E063036401E89
:100CB00003F8026DE9D1083F002F03F10806D7DDE4
:100CC000084601F04BF802460B464046494600F004
:100CD0009BFE00225B4600F08FFC80468946CBE7F6
:100CE0000DF10901401A0DF1090604E00199491EB0
:100CF000401E0191761C31783029F7D0662C02D144
:100D00000199491C03E0652C0CBF012100212B6BCC
:100D1000CB189842B8BF431E002B1ED4834204DA7E
:100D2000F05C3528A8BF392000DA30201946721E41
:100D300002EB010800E05B1E18F80199491E81458D
:100D4000F9D0392802D1705C401C7054002904D5B8
:100D50000198401C16465B1C0190019800B200905F
:100D60001BB29DF838103246284600F034F82FE0C8
:100D7000C61D002F3FF7BEAE30460DF10901401AE7
:100D8000009903468842C8BF0B46002B0DF10906A7
:100D90003FF52FAF8342BFF6FEAE0DF10900C05CF8
:100DA00007287FF7F8AE0F20F6E60000CBCCCC0C7E
:100DB0000000244002FCFFFFFFFF0F800000E03F27
:100DC0000000F07FA08601000000F03F84D797412B
:100DD0000FB0BDE8F08F2DE9F84E83B006468B4684
:100DE00092461C4600F0E8F9002C406A376B90F8F8
:100DF000009002DC01240FF2DC2ABDF930504BF0E8
:100E00002000662808BF6D1C12D0672877D115F125
:100E1000040F7ADBBD4278DA96F838006D1C0107C2
:100E200002D4BC42B8BF27462DB27F1B48BF002763
:100E30002DB2F068B169002D22DC4A1C30234354E6
:100E4000002F03DC96F83800010703D5F06800F89E
:100E50000290521CEF42B8BF7D422DB2EF1968429A
:100E6000A742B8BF3C46B261706224B2F461F06838
:100E7000B36922465146184400F030FA3F1B18E08F
:100E80002A469442084416DA2246514600F026FAD1
:100E9000B0692018B0612C1B002F746203DC96F837
:100EA00038100A0705D5F16801F80090F069401C78
:100EB000F061B762A0E0514600F010FAB06928185E
:100EC000641B002F03DC96F838100A0703D5F1687D
:100ED00001F80090401CB06124B2A742B8BF3C4664
:100EE000F068B36924B222460AEB0501184400F009
:100EF000F5F9B0692018B0613C1B74627CE0BBF16D
:100F0000610F14D14FF0700B16E0BC4204DA96F872
:100F100038100A0758BF27467F1E48BF0027BBF17D
:100F2000670F14BF4FF0450B4FF0650B04E0BBF1AA
:100F3000410F08BF4FF0500BB169F368481CB06116
:100F4000002F1AF8012B5A5403DC96F838100A07C0
:100F500017D5F168431CB36101F80090002F10DD34
:100F6000641E24B2A742B8BF3C46F06824B22246B1
:100F70005146184400F0B2F9B0692018B0613F1B27
:100F80007762F068B1690844002D80F800B003D49E
:100F90002B214170811C03E02D2141706D42811C89
:100FA00000206A460AE02B460A2493FBF4F505EB81
:100FB0008504A3EB440302F8013B401C2DB2002D35
:100FC000F1DC012806DC4BF02002652A04BF302248
:100FD00001F8012B48B9302001F8010B07E0401E51
:100FE0001DF80020303201F8012B0028F7DCF068F2
:100FF000B2691044091AF16196F8380000F0140043
:1010000010280DD17169B0694118706A4118F069F2
:101010004118B06A4118706B8142BCBF411A3162FD
:1010200004B0BDE8F08EF8B505460E4617461C46DE
:10103000002074B117F8011BB068A847B06030B148
:10104000F06A401CF0620020641EF3D1F2BD4FF044
:10105000FF30F2BD7072696E74665F733A20256E60
:1010600020646973616C6C6F776564007072696E7F
:1010700074663A2062616420256E20617267756D26
:10108000656E74007072696E74665F733A20626197
:101090006420257320617267756D656E74000000B1
:1010A0007072696E74665F733A2062616420256CA9
:1010B0007320617267756D656E740000000000003A
:1010C000000000006E616E004E414E00696E6600C9
:1010D000494E46003000F0B4024610689568131877
:1010E000506803EB5004C00721D54D441FE0F0BC0D
:1010F00002F10C00704713F8017B05F8017B491ED3
:10110000F9D1A0B1B60813F8011B06F00306032EAF
:1011100008BF13F8016B01EB06214942801C2944EA
:1011200005D011F8016B05F8016B401EF9D1A342FF
:10113000DDD013F8016B16F0030104BF13F8011B97
:10114000C91C30090F28DAD113F8010B0F30D6E78C
:101150001B48704730B45368D418042B09DA41B1E6
:10116000057804F8015B10F8015B15B15B1C491EA2
:10117000F3E7536030BC704738B514461D4661B183
:10118000FFF7E8FF61686A6B204690476FF0010245
:10119000811A02D0491E03D005E06FF0010032BD74
:1011A0004FF0FF3032BD0021616032BDDA6B104775
:1011B000034BE1E7024BF9E70248704700000000EB
:1011C00048000020100000200278C9B28A421AB1FB
:1011D0001CBF10F8012FF9E718BF00207047B1F5C8
:1011E000807F02D34FF0FF307047017001207047BD
:1011F0000078401E8041C043C00F704780B508B9D9
:101200000FF21C0005490B681BB1222200219847F0
:1012100001E000F0B0FD222002BD000048030020E4
:10122000636F6E73747261696E742068616E646C52
:1012300065723A20626164206D6573736167650051
:1012400000F10103810704D010F8011B89B1810767
:10125000FAD10268B2F10131914311F0803F04BF2D
:1012600050F8042FF6E710F8011B11B110F8011B1C
:10127000FBE7C01A70470000C9B2830706D0521EB0
:1012800022D310F8013B9942F7D11FE0083A13D35B
:1012900002F1040241EA012141EA014150F8043B14
:1012A000121F21BF4B40A3F1013C2CEA030C1CF0A0
:1012B000803FF3D0C9B2001F083210F8013B521E24
:1012C00028BF91EA030FF8D818BF0120401E7047CD
:1012D00080B5FFF73DFF006C02BD000062B38B07D5
:1012E00008D0521E11F8013B00F8013B00F02480A9
:1012F0008B07F6D1830740F0208000BF103A07D358
:1013000030B4B1E83810103AA0E83810F9D230BC47
:10131000530724BFB1E80810A0E8081044BF51F8F3
:10132000043B40F8043BD20724BF31F8022B20F8DD
:10133000022B44BF0B7803707047121F17D35B005A
:1013400009D151F8043B20F8023B1B0C121F20F876
:10135000023BF6D20BE051F8043B00F8013B1B0ABC
:1013600020F8023B1B0C121F00F8013BF3D238BFE0
:10137000121D521E24BF11F8013B00F8013BF8D8A2
:101380007047000013F0004C03D55B42524263F1FA
:1013900000039CEA210C00F0178010B5644603D3CB
:1013A0004942404261F1000100F00EF8640004D3AC
:1013B0004942404261F10001244203D55B4252425E
:1013C00063F1000310BD0000B3BBD9B1B2F5803F9B
:1013D0007DD2022A1ED98C46B1FBF2F102FB11C369
:1013E0001B0443EA1043B3FBF2FC02FB1C3380B244
:1013F00040EA0343B3FBF2F002FB103240EA0C4038
:1014000000237047022A05D98446B0FBF2F002FBA4
:1014100010C270474AB105D100F0010249085FEAE5
:101420003000704700220023704700F0A7BC0B007B
:101430000200002100207047904271EB030CF6D3AC
:10144000B3F5803F2FD2F0B5B3FA83F7B1FA81F448
:10145000A7F10F0E3D1B5340CEF1200602FA0EF20B
:10146000F3415340B5F10F0746D80F3C2C4441409F
:10147000C4F12006A040F1414140B1FBF3F603FB6B
:101480001611A2FB0645001BA94102D2761E801848
:10149000594180EA010221FA0EF362FA0EF20021AC
:1014A0005A403046F0BD30B4B1FBF3FC03FB1C11D5
:1014B000A2FB0C45001BA94103D2ACF1010C801822
:1014C000594130BC02460B46604600217047B2F1DC
:1014D000807F65D3F0B5B2FA82F7B1FA81F4C7F133
:1014E0000F063D1B22FA06F307F1110EF2412035DB
:1014F0005A40B5F10F07B8D94140C4F12006A040C9
:10150000F1414140B1FBF3FC03FB1C11A2FB0C4574
:10151000001BA94103D2BCF1010C801859410F2FC7
:1015200012D30F3FC90341EA5041B1FBF3F603FB6D
:101530001611A2FB0645D4EBC030A94102D2761E9B
:101540008018594146EACC3C07B34140C7F1200618
:10155000B840F1414140B1FBF3F603FB1611A2FB89
:101560000645001BA94102D2761E8018594180EA27
:10157000010221FA0EF3C7F1200462FA0EF20CFA0E
:1015800007F05A402CFA04F13043F0BD80EA010222
:1015900021FA0EF3002162FA0EF260465A40F0BDC5
:1015A0008C46B1FBF2F102FB11C31B0243EA10634C
:1015B000B3FBF2FC02FB1C331B024CEA002043EAA3
:1015C0001063B3FBF2FC02FB1C331B024CEA00204D
:1015D00043EA1063B3FBF2FC02FB1C331B024CEA30
:1015E000002043EA1063B3FBF2FC02FB1C324CEA1E
:1015F0000020002370470000B0B581EA030C0CF016
:10160000004C40F2FF7515EA11541DBF15EA13573F
:10161000AC42AF4239E0E41923EA455343F4801366
:10162000C90241F0004141EA505EC7021100A7FB28
:10163000020200284FF00000EEFB01204FF00001F5
:10164000E3FB072118BF42F0010240180021494185
:10165000E3FB0E01A4F580640F0302D25200404167
:10166000494154F101046CDD470872F1004250F128
:10167000000051EB0451A1F580115CBF41EA0C015F
:10168000B0BD4CEA05510020B0BD05EA1357AC428D
:1016900014BFAF4241E050EA410E1CBF52EA430E74
:1016A00002E061460020B0BD24423C441BD15FEA09
:1016B000070EF6D0090302BF01460020AEF1140E5A
:1016C000B1FA81F7AEEB070401FA07FE0C37C7F158
:1016D000200100FA07F7C8404EEA000E23EA4553FE
:1016E00043F48013A2E733F00043B3FA83F704BF57
:1016F000B2FA82FE77440B3FE41BB7F1200E2FBFF6
:1017000002FA0EF3BB40C7F1200E22FA0EFE38BFDC
:1017100043EA0E03BA40641C82E750EA410E14BF4C
:1017200052EA430E6FF000014FF4001717EB430F1E
:101730008ABF194617EB410FB5E74CEA0551002067
:10174000B0BDD4F10104B4F120070FDAC4F12007D1
:10175000520828BF42F0010210FA07F501FA07F714
:10176000E1BF2A43E0403843E1400FE0352C98DCEC
:10177000C7F1200452EA400220FA07F218BF42F0F3
:10178000010231FA07F0A1400A43002172F1004240
:1017900050F1000051EB0C01B0BD000010B5144633
:1017A00000F002F8226010BDC1F30A5343B14A00B1
:1017B00012F5001F28D2A3F2FE32A1EB02517047AE
:1017C00050EA410C20D001F0004C31EA0C01B1FA92
:1017D00081F204BFB0FA80F3D2180B3AB2F12003C1
:1017E0002CBF00FA03F1914041EA0C013EBFC2F167
:1017F000200C20FA0CF319439040524240F2FD3382
:10180000D21A01EB03517047002270474FF4001CBD
:101810001CEB410F94BF1CEB430F09E041EA030CA2
:1018200050EA4C0C52EA0C0C03D2994208BF904289
:10183000704714BF8B428242704700004FF4001C77
:101840001CEB410F94BF1CEB430F09E041EA030C72
:1018500050EA4C0C52EA0C0C03D28B4208BF824275
:10186000704714BF9942904270470000124254D40E
:1018700040F2FF7C1CEA11530FD0634531D09B1816
:1018800063453CBF01EB0251704701F0004141EA62
:101890000C510020AFF30080704750EA410320D084
:1018A00001F0004C91EA0C011CD0B1FA81F30B3B22
:1018B0009A420DD9D21A994051EA0C01C3F1200C79
:1018C00020FA0CFC61449840531C40F2FF7CD7E79F
:1018D000914041EA0C01C2F1200C20FA0CF31943AB
:1018E00090407047B0FA80F31533202BE0D3202AC4
:1018F000EED3203A203B9A4209D9D21A00FA03F1DA
:1019000041EA0C010020531C40F2FF7CB8E700FACA
:1019100002F141EA0C0100207047524240F2FF7C84
:101920001CEA11530DD06345DBD0B2EB030C3CBF76
:10193000A1EB025170470CF1010221EA035141F47D
:10194000801150EA410CCCD001F0004C352A27DC44
:1019500030B481EA0C01B2F1200309DAC2F12003AC
:10196000044601FA03F5D0402843D1409C400CE0E6
:10197000C3F12002450020FA03F418BF44F001042B
:1019800021FA03F091400C43002174F1004550F11D
:10199000000051EB0C01244230BC7FF47BAF704758
:1019A0006146002076E70000C1F30A5340F2FE32A0
:1019B0009B1A14DDD3F120034FEAE17208DDC9025E
:1019C00041EA505141F00040D840801850407047E3
:1019D00003F2E13010B1D24382F0004070470020A2
:1019E00070470000C11768B14840401AB0FA80F251
:1019F0009040D21CC907C2F5846241EA025202EB50
:101A0000D02140057047000070B44FF0004591EAC6
:101A1000030F40F1B5816B40841A71EB030603D2CA
:101A2000001BB141121973414FF4001C1CEB410F14
:101A300034BF7CEB430442E00C0DA4EB1356352E6F
:101A40004FDC45EAC323DB0A45EAC121C912B6F1DE
:101A500020050DDD63FA05F6EB4086EA0305124228
:101A600018BF45F00105C01851F100010CD213E078
:101A700062FA06F5F2405540F3415A40B340F34054
:101A80005A408018594107D349085FEA30005FEA9D
:101A9000350528BF45F0010501F58011420875F1B3
:101AA000004250F1000041EB04514E0016F5001FBA
:101AB00070BC38BF70470020090D090570471CEB4A
:101AC000410F10D252EA43060BD0BCEB410F05D8B0
:101AD0000C0DAB43661E342EB6DD02E0AB4380181E
:101AE000594170BC704770BC70470000F0B540F2BF
:101AF000FF7581EA030C0CF0004C15EA11541DBF70
:101B000015EA1357AC42AF42E5E0BC41C1F3130103
:101B1000C3F31303801A994143F4801304D2641E63
:101B20004000494180185941C90241EA5051B1FB76
:101B3000F3F603FB1611A2FB0675D7EBC020A941F3
:101B400002D2761E80185941C90241EA5051B1FBB8
:101B5000F3FE03FB1E11A2FB0E75D7EBC020A941BB
:101B600003D2AEF1010E80185941890241EA905129
:101B7000760546EA8E2EB1FBF3F603FB1611A2FBA7
:101B80000675D7EB8020A94102D2761E80185941F4
:101B9000C90241EA50514EEA060EB1FBF3F603FBCF
:101BA0001611A2FB0675D7EBC020A94102D2761E02
:101BB00080185941C90241EA5051B1FBF3F703FBC8
:101BC0001711A2FB0735D3EBC020A94167F100072D
:101BD0000CBF004247F0010766F3D5274FEA1E31DC
:101BE000B80814F5806412DDBD0775F1004250EBB2
:101BF0000E5051EB045111F5801F5CBF41EA0C01FE
:101C0000F0BD4CF07F6141F0E0410020F0BDBD0728
:101C10006D0840EA0E5041F48011D4F10104B4F192
:101C200020060ADAC4F120060200E04001FA06F3B9
:101C3000E1401843B24015430EE0342C13DCC6F1EA
:101C4000200445EA40056D0820FA06F2154321FA02
:101C500006F0A1400D43002175F1004250F1000053
:101C600051EB0C01F0BD00205FEA0C01F0BDCFB9D3
:101C700092185B41B3FA83F704BFB2FA82F6BF1938
:101C80000B3FB7F120062FBF02FA06F3BB40C7F1A6
:101C9000200622FA06F638BF3343BA401CB1E419D5
:101CA000641E33E77F4231F00041B1FA81F404BF92
:101CB000B0FA80F6A4190B3CB4F120062FBF00FA4D
:101CC00006F1A140C4F1200620FA06F638BF3143E0
:101CD000A0403C1B1AE7AC421ABF05EA1357AF42BB
:101CE00012E050EA41061CBF52EA4306BFE750EA41
:101CF0004107304661461CBF41EA0551F0BD52EA3A
:101D0000430C08BFC143F0BD00204FF4001616EB92
:101D1000410F98BF16EB430F08BF16EB410F24BFCE
:101D2000C14305E016EB430F0CBF61464CEA055179
:101D3000F0BD0000400D491840EA81200CD2490D49
:101D4000A1F58061491C40F0004005DBD1F11F0185
:101D500054BFC840C017704700207047014648B1C3
:101D6000B0FA80F18840C91CC1F58461090501EB16
:101D7000D02140057047012000F0B6B87047000040
:101D8000841A71EB030604D26E40001BB141121994
:101D900073414FF4001C1CEB410F34BF7CEB430636
:101DA00082E00C0DA4EB1356362E7BDC012E45EAA7
:101DB000C32341DC43EA525312BFD20292025B08B2
:101DC000240545EAC12141EA5051D2EBC020994196
:101DD00025D407D1B0FA80F610FA06F162D00020BF
:101DE000203608E0B1FA81F6B140C6F1200220FAAF
:101DF00002F21143B0404FEAF474B4EB465434F0AD
:101E000001064FEA74040AD8D6F50016760D04F0E0
:101E10000044F04061FA06F25040F1404840C00AE8
:101E200040EA415021F0004128BF5FEA500550F1DF
:101E3000000044EBD12135E0DB0A45EAC121C90AA3
:101E4000B6F120050EDD42EA0242120CC5F1200671
:101E500003FA06F6EB4042EA06056D42984161F14D
:101E600000010DE062FA06F5F240554063FA06FC07
:101E700082EA0C02F3405A406D42904161EB03014B
:101E800011F4801F05D1641E620502D06D0040412F
:101E9000494121F48011430875F1004350F10000DD
:101EA00041EB045170BC70471CEB410F15D223F07D
:101EB000004352EA43060BD04FEA4C0CBCEB410FF7
:101EC00004D80C0D661E342EB7DDEBE7801A99415D
:101ED00050EA410608BF0021E4E708BF1CEB430FAE
:101EE00028BF6FF00001DDE780B500F007F8024A77
:101EF00011001820ABBEFBE72600020010B500F071
:101F000052F802000023DB4300241068984203D0FB
:101F100011000220ABBE14605068984203D0111D1E
:101F20000220ABBE546010BDF0B583B0040000F0D9
:101F30003AF8A10047183D680026F643B54216D18D
:101F400000F01AF83D68B5420FD100BF09A000901B
:101F5000002C01D1002000E0042001900320029019
:101F600069460120ABBE05003D6000F014F8280072
:101F700003B0F0BD3A7474000C480121BFF35F8FC9
:101F8000D0E84F3FC0E8421F002AF9D1BFF35F8F6E
:101F9000002BF3D170470548BFF35F8F002101701C
:101FA000BFF35F8F70470248704700005003002066
:101FB000880100202DE9FC4704001AD0DFF8847660
:101FC000DFF89056B86800F00C08F86800F00309D4
:101FD0002078C1065BD5B8F1000F05D0B8F10C0F21
:101FE00008BFB9F1010F2ED13868810703D5A06968
:101FF000002800F04481396808074EBF39686968D5
:102000000909206A01F0F001814206D200F0DEFAEF
:10201000002808D100F0F9F907E000F0F6F9206A8D
:1020200000F0D4FA002840F02A8100F086FABA685D
:1020300000F079FADFF81406006800F01FFB0100D9
:1020400000F02181DFE1A069C0B1396841F00101F0
:10205000396000F035FB06463868810700F11181D0
:1020600000F02EFB801B0328F6D30320CBE100F009
:1020700027FB801B0328C0F04181F6E73868400841
:102080004000386000F01CFB06463968880740F1C4
:10209000FA8000F015FB801B0328F6D3E5E76068A3
:1020A000B0F5803F06D0B0F5A02F396807D141F4D4
:1020B00080213960386840F48030386006E021F4CF
:1020C000803139603A6822F480223A60606860B1F9
:1020D00000F0F6FA06463968880300F1E78000F060
:1020E000EFFA801B6528F6D3BFE700F0E9FA064651
:1020F0003868810340F1DA8000F0E2FA801B65283D
:10210000F6D3B2E7E06880B1396841F48071396094
:1021100000F0D6FA06463868410500F11E8100F04D
:10212000CFFA801B0328F6D39FE7386820F480702D
:10213000386000F0C5FA06463968480540F1D0809D
:1021400000F0BEFA801B0328F6D38EE768684008CB
:102150004000686000F0B4FA06466868810740F104
:10216000D18000F0ADFA801B0328F6D37DE7052867
:10217000286806D140F004002860296841F0010178
:1021800005E0400840002860296821F0040129602A
:10219000A06841F2893968B100F092FA8246296854
:1021A000880700F1EB8000F08BFAA0EB0A004845AD
:1021B000F5D35AE700F084FA82462868810740F197
:1021C000DD8000F07DFAA0EB0A004845F5D34CE72E
:1021D00000F076FA801B0328C0F0E58045E700F0A8
:1021E0006FFA801B0328C0F009813EE7396811F0BF
:1021F000205F03D1F86880088000F860F968DFF894
:1022000058040140F96000F05BFA06463868810125
:1022100040F1F88000F054FA801B0328F6D324E73D
:1022200001282CD0F868E26A00F00301914201BF56
:1022300000F07001226B521EB1EB021F1FD1626BC6
:1022400000F4FE41B1EB022F19D1A16B07290CBF9D
:102250000021012100F400328A4210D1E26B5208C1
:1022600000F4C001521EB1EB425F08D1216C490855
:1022700000F0C060491EB0EB416F00F0C380012048
:10228000C1E000F0C2F82078C1070FD5B8F1080FFF
:1022900006D0B8F10C0F08BFB9F1030F7FF4FFAE01
:1022A0003868810302D560680028E8D02178880763
:1022B00016D5B8F1040F06D0B8F10C0F08BFB9F16C
:1022C000020F7FF41FAF3868410502D5E06800288F
:1022D000D5D07968206921F0F85141EA0061796030
:1022E000217808070ED5606900283FF42FAF696890
:1022F00041F00101696000F0E3F906466868810772
:102300007FF5B5AE217848073DD5B86D0026C100F0
:1023100009D4B86D40F08050B8650126B86D00F062
:10232000805000900098DFF83493D9F80010C80569
:102330001BD4D9F8000040F48070C9F8000000F008
:10234000BFF98246D9F80010C8050ED400F0B8F9DC
:10235000A0EB0A000328F5D387E67868216920F00E
:10236000F85040EA01607860BAE7A06801287FF47D
:10237000FEAE286840F00100286009E71EB1B86D84
:1023800020F08050B865A06AE0B3B8F10C0F3FF4BC
:1023900047AF0228386820F0807038607FF426AF9D
:1023A00000F08EF90646396888013FF511AFF968EB
:1023B000DFF8AC02E26B0140E06A0143206B401E93
:1023C00041EA0011606B520841EA0021206C521E64
:1023D000400841EA4251401E41EA4061A06B0009B9
:1023E00041EA4041F960386840F080703860F9682F
:1023F00041F08071F96000F063F9064638688101A8
:102400007FF5EDAE0020BDE8F687386840F00800A3
:1024100038603968206A21F0F0010143396078683A
:10242000E16920F47F4040EA0120786070472DE99F
:10243000F843040088466AD0DFF82862306800F06C
:102440000700404502D200F064F860D12178DFF83F
:10245000F451C8074AD56068032802D129688A0167
:1024600007E0022802D129688A0302E018B9296826
:102470008A0703D44BE02A68510548D5A968890822
:1024800040EA8100A86041F2893900F019F9074655
:10249000A868616800F00C00B0EB810F26D000F056
:1024A0000FF9C01B4845F3D303201DE020784107F6
:1024B00005D5A968E06821F4E0610143A9602078AE
:1024C000010706D5A868216920F4605040EAC100E0
:1024D000A86000F032F8AA6800F025F8BDE8F243E1
:1024E0005A48006800F0CAB8BDE8F283217888072E
:1024F00005D5A968A06821F0F0010143A960306802
:1025000000F007008045D1D200F003F8CED00120C2
:10251000EAE73168C90848EAC1013160306800F073
:102520000700404570475049C2F30312895C464A90
:1025300001F01F01C8401060704770B5414A4B4B15
:102540009068D6680025002110F00C0006F0030604
:10255000474C03D00C2812D1012E1AD115682E0732
:1025600004D43B4D2E68C6F3032502E01568C5F37D
:102570000315404E56F8255048B9294624E0042852
:1025800008BF214620D008281ED119461CE00C287F
:102590001AD1D06800F00300022803D0032808BF36
:1025A0001D4600E02546D168D068D268C0F30620F9
:1025B0004543C1F30210C2F34161401C491CB5FB05
:1025C000F0F04900B0FBF1F1084670BD7CB52A4E31
:1025D000054630680024C10002D500F077F80EE00F
:1025E000306840F080503060316801F080510091D7
:1025F000009800F06BF8316821F080513160B0F53F
:10260000007F04D1802D0CD9A12D09D304E0802DA9
:1026100088BF032405D801D1022402E0702D00D127
:10262000012410480168C90844EAC101016000683A
:1026300000F00700A04201D0012076BD002076BD49
:1026400000000000001002400C00002004000020E8
:102650009410024090100240FFFFEEFE0070004018
:102660008C809DF9002002405C3E000800366E011F
:102670000024F4006C3E00085810024070B50E4E65
:102680000446B0680025A0B14FF47A71B1FBF0F0B8
:102690000A490A68B2FBF0F000F059F848B9102C6A
:1026A00007D2002221464FF0FF3000F033F874606B
:1026B00000E00125284670BD000000200C0000202D
:1026C00001480068704700BF00000020DFF80800E4
:1026D000006800F4C060704700700040090102000B
:1026E00081B002D42448815405E0244802F00F024E
:1026F000104400F8041C01B07047214A13684FF6DB
:10270000FF0100020B4000F4E06018431D4908433C
:102710001060704738B51A4B1C68C4F30223C3F12C
:102720000704052C28BF04241D1D072D34BF0023DA
:10273000DB1E012505FA04F4641E2140994005FAC8
:1027400003F35B1E1A401143BDE83440C6E710B5E1
:10275000401EB0F1807F01D3012010BD0A4C6060A3
:102760000F214FF0FF30FFF7B9FF0022A2600720D2
:102770002060002010BD000000E400E018ED00E043
:102780000CED00E00000FA0510E000E038B50400B0
:1027900001D1012032BD04F14005687820B9002143
:1027A0002970204600F0B4FA00F041F86068216812
:1027B00020F0706008612068816821F40041816028
:1027C000E068A168012820680CBF41F4004141F491
:1027D00004418160E168022903D122684FF400605E
:1027E00050602068416841F0007141F4004141604F
:1027F0002068C16821F40041C160606921692268D4
:102800000143A06941EA0021D160206AE1690143E6
:10281000206801602068016841F00101016000202A
:1028200068602020687000202063A87032BD2420DA
:102830006870206801684908490001607047CDF858
:1028400000903B4600228021304600F097B94A684C
:1028500002404A60202060700020A0702070704705
:1028600000904FF08073FF22704700904FF000738C
:10287000D2B270472DE9FE4F00F0EDF84FD10C9D1C
:10288000002D1CBF0D9F002F02D100F04BF83FE040
:102890002078012843D001212170FFF711FF00F0BB
:1028A00059F8002834D1212000F0ECF800F006F9A6
:1028B00010B1002020702BE0708DFF25B0F5807FD7
:1028C00019D300F0F0F800F0C2F80E9F4A463946DE
:1028D000304600F074F900281AD100F02BF811D01E
:1028E00089B279B9FFF7ABFF90B900F01FF805D3B3
:1028F00000F0D9F804E000F0BDF8E4E700F0BAF821
:1029000000F0A5F8708D0028E0D100F08CF808B137
:10291000012005E000F0A8F8FFF799FF00E0022091
:10292000BDE8FE8F4FF4007060607047708DB0F5A9
:10293000807F7047706A326801789162706A411CCA
:102940007162708D411E7185308D411E3185708D93
:10295000002870478146CDF80090192301224FF4DA
:102960000041304600F00AB92DE9FE4F00F073F83F
:1029700056D10C9D002D1CBF0D9F002F02D1FFF7DB
:10298000D1FF46E0207801284AD001212170FFF7CD
:1029900097FEFFF7DFFF00283BD1222000F072F8FE
:1029A00000F0A7F810B10020207032E0718DDFF840
:1029B0000801FF25B1F5807F1CD33585FFF750FF57
:1029C00000F045F80E9FCDF800903B460022042110
:1029D000FFF73AFF00281CD100F02AF898B189B21D
:1029E00089B9FFF72CFFA0B9FFF7A0FF07D300F0CC
:1029F0005AF806E0728D3285FFF737FFE0E700F006
:102A000039F800F024F8708D0028DCD100F00BF8C4
:102A100008B1012005E000F027F8FFF718FF00E0FB
:102A20000220BDE8FE8F4A463946304600F0EEB837
:102A30003068416A706A0170706A411C7162308D41
:102A4000411E3185708D421E7285708D70474146E2
:102A5000304600F030B9064606F1400488466078FA
:102A6000202892469B46704731682020C861316813
:102A700010487047728D3285002000904FF000732F
:102A8000D2B2704760705B464020A0705246002072
:102A90006060756277857063CDF8049041460E984A
:102AA0000090304670473585002100914FF08073CB
:102AB000FF22704700E800FE002400802DE9FC4161
:102AC00000F031F84FF08073EAB200F045F800F002
:102AD0003EF858B9012D02D000F036F830B900F0B8
:102AE0002CF88021204600F049F800B10120BDE813
:102AF000F6812DE9FC4100F016F80023EAB200F05F
:102B00002BF800F024F858B9012D02D000F01CF881
:102B100030B900F012F84021204600F02FF800B143
:102B20000120BDE8F6810446DFF8AC01DDF8208025
:102B3000099E009017461D4670472068FFB28762C5
:102B400000964346002270472168380A8862324660
:102B50004146204633E031462046ACE081B0006873
:102B600081698A0744BF002282628169CA0703D44F
:102B7000816941F00101816101B070472DE9F041A7
:102B8000069F05460E4690461C46286881693140DE
:102B9000B1420CBF0120002040450DD114F1010FBE
:102BA000F3D0FFF78DFDC01B844201D3002CECD184
:102BB00000F020F8012000E00020BDE8F08170B5B1
:102BC00005460C46164628688169880710D400F02F
:102BD00035F858B914F1010FF5D0FFF771FD801BDE
:102BE000844201D3002CEED100F004F8012070BD26
:102BF000002070BD05F140002022416841F0200115
:102C000041604270002181700170704770B50546C7
:102C10000C4616462868816988060DD400F00EF827
:102C200040B9FFF74DFD801B844201D3002CF1D148
:102C3000FFF7E0FF012070BD002070BD3246214645
:102C40002846FFE770B505460C4628688169C80626
:102C5000164618D5286881698A0616D414F1010F22
:102C6000F8D0FFF72DFD801B844201D3002CF1D159
:102C700005F14000416841F0200141602022FFF74A
:102C8000C0FF012070BD002070BD1021C161202057
:102C90002968C8612846FFF761FF00F007F805F1D1
:102CA00040004A60416841F00401E6E729680B48AA
:102CB0004A680240704770B50068049C4568084E39
:102CC00046EA5456B543C1F30901294341EA02419A
:102CD00019432143416070BD0020008000E800FEE0
:102CE000FF63FF03214881B0816841F001018160E9
:102CF000816801F0010100910099016841F0805163
:102D00000160006800F080500090009801B07047AA
:102D100010B586B0044601A8142100F02FF82168F0
:102D2000134A914220D1134C206840F002002060E9
:102D30001222216801F002010091C0210098019146
:102D4000012003900321042004910590029201A91F
:102D5000094800F017F8E06840F40010E060E0680F
:102D600000F400100090009806B010BD581002400A
:102D7000005400404C10024000040048002200F0C3
:102D8000F1B800002DE9F84F4FF000086C4BDFF868
:102D9000B491DFF8B4A14FF00F0B07468E462BE03D
:102DA0006A4CA74214BF072406248C402C4349F8E0
:102DB0002240C1431A68DEF804400A40E40348BFD9
:102DC00002431A605A68DEF804400A40A40348BF70
:102DD00002435A609A68DEF804400A40E40248BFA1
:102DE00002439A60DA680A40DEF80410890248BF9C
:102DF0000243DA6008F10108DEF8001031FA08F049
:102E000000F09C80012202FA08F212EA0100F1D0DF
:102E1000DEF80440022C18BF122C4FEA880111D1B1
:102E20004FEAD80407EB840C01F01C04DCF82050B6
:102E30000BFA04F6B543DEF8106006FA04F42C43EE
:102E4000CCF820404FEA480C03243D689EF804600B
:102E500004FA0CF4E44306F00306254006FA0CF6E7
:102E600035433D60D243DEF80450012D18BF022DDA
:102E700003D0112D18BF122D11D1BD68DEF80C60E2
:102E8000254006FA0CF63543BD607D68DEF8046027
:102E9000C6F30016154006FA08F635437D60DEF8E5
:102EA000045005F00306032E07D1FE6AC5F3C005E2
:102EB000324005FA08F52A43FA62FA681440DEF84F
:102EC000082002FA0CF22243FA60DEF80420D20055
:102ED00090D5DAF8002042F00102CAF8002001F093
:102EE0000C01DAF8002002F0010200920BFA01F561
:102EF000009A4FEA980259F8224024EA0505B7F1F2
:102F0000904F08BF002418D0114CA74208BF0124DD
:102F100013D0104CA74208BF02240ED00E4CA7427B
:102F200008BF032409D00D4CA74208BF042404D0D5
:102F30000B4CA7427FF434AF052436E7BDE8F18F90
:102F400000040140080001406010024000180048E1
:102F50000004004800080048000C00480010004829
:102F60000014004800B500BF13009646944610397F
:102F700028BFA0E80C50FAD85FEA417C28BF0CC0FB
:102F800048BF40F8042BC90728BF20F8022B48BFD0
:102F900000F8012B00BD00000321017000214170E9
:102FA00003218170C1700171417170477FB5144672
:102FB00041F288320292022503AE019500960A463C
:102FC000818C806A49040123090CFFF7CDFC40B9CC
:102FD0009DF80D009DF80C1041EA00212180012090
:102FE00000E0002004B070BD1FB5009241F28834AB
:102FF00002940A4601930123818C806A4904090CDA
:10300000FFF7B2FC5FE010B5044622468821FFF7C7
:10301000CDFF002843D0A21C8A2100F042F80028EE
:103020003DD0221D8C2100F03CF8002837D0A21D95
:103030008E2100F036F8002831D004F108029021EA
:1030400000F02FF858B304F10A02922100F029F899
:1030500028B304F10C02942100F023F8F8B104F134
:103060000E02962100F01DF8C8B104F1100298215B
:1030700000F017F898B104F112029A2100F011F84B
:1030800068B104F114029C2100F00BF838B104F18E
:1030900016029E2100F005F808B1012010BD0020A5
:1030A00010BD204682E714B583B00A4642F2107183
:1030B0000291012303AC01930094818C806A49043E
:1030C000090CFFF7D7FB00B1012004B010BD7CB59F
:1030D00005460C46A88C762818BF772802D00FF238
:1030E000E8300FE0012305F13202D02100F092F820
:1030F000002871D195F83200582818BF602804D0F4
:103100000FF2D83000F0F0F966E0B622E02100F0CE
:103110007FF800286AD05FE095F8320060283CD143
:10312000012305F11802A12100F074F8002853D101
:1031300005F11A02E1212846FFF738FF00284BD09D
:10314000012305F11C02E32100F064F8002843D1BB
:103150006A46E4212846FFF729FF00283CD00DF1FC
:103160000202E5212846FFF721FF002834D0012381
:1031700005F12202E72100F04DF868BBBDF900100F
:10318000BDF80000090101F47F61C0F30320014391
:10319000E983BDF8020000092884F521627860798E
:1031A000920042EA4012D2B200F032F8A0B9207880
:1031B000012804BF00212170A678E078B60046EA15
:1031C00040162078064395F83200602806D122790F
:1031D000F22100F01DF808B1002076BDF2B2F42112
:1031E00000F016F8401E8041C00F76BD01236A46EC
:1031F000F3212846FFF7F8FE0028F7D19DF80000DC
:10320000C107F3D42846FFF7FEFE002884D176BD1F
:10321000284648E72846E7E62DE9F8470CB48046FB
:1032200085B00E4698F8321060290DD00BB1002100
:10323000196000200690062303AAF7214046FFF7F5
:10324000D3FE28B100200CE1002BF4D00823F3E7D3
:1032500003AD69789DF80C00EA78090141EA003174
:10326000A87841EA101A29796879090141EA0231FE
:1032700041EA1011B8F80000C0EB2112C908A1EB17
:103280004001B8F9020041435243B8F90400121357
:103290004243921302EBE12202EB82008030029261
:1032A000001230600298B8F91020C117B0F5FA305A
:1032B00061F10001A0FB004900FB019901FB0099AD
:1032C000A2FB0467D31702FB097703FB0477CDE960
:1032D0000067B8F90E60A6FB0023F71716FB013351
:1032E00007FB0033DDE900675B0443EAD23316EBEA
:1032F00042427B41CDE9002326464F46B8F90A20D9
:10330000A2FB0649D31702FB0799B8F9082003FB73
:103310000699A2FB0067D31712FB0177240A03FB6F
:10332000007744EA09643F0347EA165714EB063472
:1033300047EB2929B8F80660201C49F50041A6FB97
:10334000002306FB01335A10DB170020834204BF21
:10335000824200224BD0CAF5801A4FEAEA70C007B9
:1033600040EA5A04DDE900014FEACA76301AB8F99A
:103370000C6064EB0101F7000026841B61EB070978
:1033800040F6354AAAFB04010AFB0911FDF7FAFFD2
:10339000460BB8F9162046EAC146D317A6FB0249E8
:1033A0004F1306FB039907FB0299A6FB042306FBB8
:1033B000093307FB0433520E42EAC3128618B8F9E8
:1033C000142041EB6367D317A0FB024900FB03996C
:1033D00001FB0299E40C44EA4934321947EBE94312
:1033E000120AB8F9120042EA036202EB00120598D1
:1033F00002600698A0B3A879EA790299B8F920305A
:1034000042EA0022B8F91E009203A1F59631A2EB20
:10341000005298F81C0001FB132298F922304B430C
:103420004143C9129B1201F5004159438912B8F971
:103430001A0001F50011414302F5804201F50051E7
:10344000D21389135143CA13524398F81800D2116A
:103450004243B1EB221107D5002109130698016000
:10346000012008B0BDE8F08716488142F5DB4FF433
:10347000C831F3E77FB50D4616461C0014BF6B46F6
:10348000002301AA02A9FFF7C7FEB8B19DED020A09
:10349000B8EEC00ADFED0A0AC0EE200AC5ED000A48
:1034A000DDED010AFBEECC0AC6ED000A2CB19DED64
:1034B000000ABBEECB0A84ED000A012004B070BD07
:1034C0000000C84201000019556E6B6E6F776E20C8
:1034D000414444524553530A00000000556E6B6E40
:1034E0006F776E2049440A000EB4C0B5024603A8A7
:1034F00000210190009101AB0121044878440C3077
:10350000FCF742FE06BC5DF810FB00BF2F0C00006C
:103510002DE9FC4700F03CF900F0AAF85048514C66
:10352000016841F08001016004F13805026802F091
:10353000800200920099016841F002010160006878
:10354000494900F0020000900098484868602960EE
:103550000020A8600120E860002028616861A8615F
:10356000E86128622846FFF711F908B100F0B3F8C6
:103570000021284600F022F908B100F0ACF8002143
:10358000284600F033F908B100F0A5F804F12C004A
:10359000FFF702FD7720A084A5620FF2A81606E0CF
:1035A0003046FFF7A1FF4FF4FA6000F04BF904F149
:1035B0002C012046FFF78BFD0028F1D004F13207E3
:1035C00026A638780FF268180FF23C190FF2101A7D
:1035D00058280CBF01200020B870B878002814BF0C
:1035E0000FF294110FF298110FF27810FFF77CFF91
:1035F00031E03046FFF778FF29E05046FFF774FFCF
:103600004FF4FA6000F01EF904F18C0304F1840217
:1036100004F188012046FFF72DFF0028EDD0286D2A
:1036200000F024F9CDE90001E86C00F01FF9024632
:103630000B464846FFF758FFB8780128D9D1686D86
:1036400000F014F902460B464046FFF74DFF4FF4D9
:10365000FA6000F0F7F86420D4E700000A000000E8
:103660004C1002409001002000540040EC9C90104F
:1036700080B596B068461421FFF780FB05A8442169
:10368000FFF77CFB01210B911020059000210C918C
:1036900060200D9001211091119102200F9028219E
:1036A00015901291042007211490139105A8FEF79C
:1036B00081FC00B1FEE70F20009003210020019162
:1036C00002900390049004216846FEF7B0FE00B11A
:1036D000FEE717B000BD0FF2B000FFF705BF000016
:1036E00054656D70657261747572652F7072657363
:1036F000737572652072656164696E6720666169C1
:103700006C65640A00000000507265737375726521
:103710003A20252E32662050612C2054656D70654C
:103720007261747572653A20252E3266204300005E
:103730002C2048756D69646974793A20252E3266AB
:103740000A000000424D5032383020696E697469B9
:10375000616C697A6174696F6E206661696C656419
:103760000A000000424D503238303A20666F756EC4
:10377000642025730A000000424D453238300000B5
:10378000424D5032383000004572726F720A0000AC
:10379000094810B5016841F4807101600320FEF70B
:1037A000ACFF0020FEF76AFF0024002814BF0124AC
:1037B000FFF798FA204610BD0020024030B500F116
:1037C00040025378202B0FD11478012C0CD000F03C
:1037D0002DF81D6825F480551D6003681C68214381
:1037E000196000F019F830BD022030BD10B500F1AD
:1037F00040025378202B0DD11478012C0AD000F010
:1038000015F81C6824F4706444EA01241C6000F07C
:1038100003F810BD022010BD0068016841F00101ED
:103820000160202050700020107070470123137039
:103830002423537003681C68640864001C600368D8
:103840007047000038B50446FEF73AFF14F1010F47
:10385000054602D0044988680419FEF731FF401B71
:10386000A042FAD331BD00BF00000020C0F3C75111
:1038700081B1FF2906D0C110400721F0E04101F1DC
:103880006051704741020CBF40F4E0016FF000410D
:103890000020704700F0004100020AD0B0FA80FC1E
:1038A00000FA0CF001F16051A1EB0C5101EBD021B9
:1038B0004005704710B50446AFF30080204600F085
:1038C00005F80446AFF30080204610BD7CB500F13A
:1038D0000F06F608F600B04240D2082E04D20826A1
:1038E00002E0083000F047F8DFF804512C682100AE
:1038F00005D1002007E00268B24221D2011D08680C
:103900000028F8D12068291D0A68824222D0136855
:10391000B34238BF111DF7D312E093190B60801B1F
:1039200054685C600B6818601660096800291DBF48
:1039300048680028081D0020286002F1080076BDB4
:1039400061B10A681068A0F10803B342E5D250687B
:103950000860EAE700F04EF80028C2D1002076BDEA
:1039600010B5040006D0AFF30080204600F003F845
:10397000AFF3008010BD002800D1704750B4A0F113
:1039800008021368072B2BD913F0070F28D1184C06
:10399000616809B18A4202D25160626013E04868EE
:1039A00000B3904238BF0146F9D31BE0964203D1E1
:1039B0001B180B600A4606E0486810B11344984291
:1039C0000ED350604A60506850B11368D1188142DC
:1039D00006D1002121600168CB1813604068506057
:1039E00050BC704708680E18B242DFD250BC704716
:1039F000400300200749086808B1002070470648C6
:103A0000C008C00008600549C908C900091A01605A
:103A1000704700BF4C0300205F07002058090020BA
:103A20002DE9F04107468846387810F0030F164616
:103A30001D4633D0384600F099F878BBB8F1000F36
:103A40001CBFD8E900018619012D2ED13888C10488
:103A500015D5396A07F14402384600F0A3F83A6BED
:103A6000044602B93A69F968384600F09BF8361BFB
:103A7000341A7A69F968384600F094F8261A1EB9A3
:103A80004DB916F1010F09D097F903002A463146C6
:103A900000F08EF8064616F1010F09D12320AFF38E
:103AA00000804FF0FF30BDE8F081022DE8D1EBE758
:103AB000388810F4405F0ED07868F860386178611B
:103AC000B8617868F86107F14400386207F13000A6
:103AD000786200203863B8F1000F05D0D8E9020100
:103AE00007F13402C2E9000139884CF6FF60014059
:103AF00039800020BDE8F08170B50546AFF3008045
:103B00002888810415D56E680024EA6895F90300B9
:103B10003146914212D2521A00F06FF810F1010FA3
:103B20001CBF00283618F0D10FE04DF6FF700140A1
:103B300029802846AFF30080002070BD00220021BC
:103B400000F05BF810F1010F00D101246868E86013
:103B5000A861E861002C2988E7D041F40071298030
:103B60002846AFF300804FF0FF3070BDF8B5A0B924
:103B7000AFF3008000250A4E08244FF0FF3730686D
:103B800020B1FFF7B9FF002848BF3D46361D641E2F
:103B9000F5D1AFF300802846F2BDBDE8F240ABE7B7
:103BA00068010020914234BF511A00210846704735
:103BB0003EB504000D00012A02D100F06BF807E0C9
:103BC000022A07D100940020019069460C20ABBE68
:103BD0002D1801E0002A0CD10094019569460A20B5
:103BE000ABBE002805D100222100280000F02FF8EC
:103BF00001E00020C04303B030BD80B5002802D4EE
:103C000000F06AF802BD002002BD000010B4314A85
:103C1000002113461C6884421EBF491C9C688442D4
:103C20001EBF491C1C69844209D09C69491C8442FE
:103C300005D0491C20331029ECD310BC7047002359
:103C400042F8313002EBC1014B6010BC704778B4D0
:103C5000204C002325462E688E421EBF5B1CAE689A
:103C60008E421EBF5B1C2E698E4209D0AE695B1C62
:103C70008E4205D05B1C2035102BECD372BC7047F4
:103C8000054604EBC303012A04BF59684D195D6062
:103C900072BC704710B40F4A002113461C6884425E
:103CA0001EBF491C9C6884421EBF491C1C6984427B
:103CB0000AD09C69491C844206D0491C2033102933
:103CC000ECD310BC0020704702EBC100406810BC70
:103CD000704700002002002080B5002901D100209B
:103CE00002BD012801D0022802D100F004F802BD73
:103CF00000F011F802BD30B583B00C0015000120B2
:103D0000FEF712F900900194029569460520ABBEBA
:103D1000281A03B030BD18B583B003001400009317
:103D20000191029469460520ABBE01221900201AB8
:103D3000FFF78DFF04B010BD10B50446E068A1691F
:103D4000884251D3218849F202020A40022A08D04F
:103D500008044CBF4FF400704FF4844001432180AD
:103D60003BE001F4C041B1F5C04F06D1A1688842E3
:103D700003D32046FFF7FAFE78BB208810F4406F8B
:103D800002BF606804F14401884217D14FF400700B
:103D9000FFF790FD606030B904F144006060E060BE
:103DA000401CA0600AE0218841F040012180E060D1
:103DB000606100F500726068A260E0616068206187
:103DC000A068A061207841070AD502220021204680
:103DD00000F00CF810F1010F02D14FF0FF3010BDD0
:103DE000208840F4C0402080002010BD70B50446FB
:103DF0000D461646AFF3008033462A460021204682
:103E0000FFF70EFE05462046AFF30080284670BD42
:103E10000E48016841F47001016000220C490868F5
:103E200040F0010008608A600A480A6802400A609F
:103E30004FF48050C8600022086820F48020086099
:103E40008A614FF0006004490860704788ED00E027
:103E500000100240FFFFF6EA08ED00E0000000005D
:103E6000000000000102030406070809A086010003
:103E7000400D0300801A060000350C0040420F0080
:103E800080841E0000093D0000127A000024F40026
:103E900000366E010048E801006CDC0238B5040011
:103EA0000ED0207810F0030F03D094F903000028FF
:103EB00009D5AFF30080204600F030F8AFF3008062
:103EC0004FF0FF3032BD2046FFF750FE0546AFF3FE
:103ED00000802078410644BF606800F05DF8002053
:103EE000606094F90300022804D900F057F808B183
:103EF0004FF0FF35E06B48B100F05CF808B14FF0CF
:103F0000FF35E06B00F048F80020E063204600F049
:103F100005F8AFF30080284632BD000001780A069C
:103F200026D51C4A13680021834203D1002342F89E
:103F300021301BE05368012183421EBF0221936898
:103F40008342F3D0D368032183421EBF0421136947
:103F50008342EBD05369052183421EBF062193693A
:103F600083421EBF0721D3698342DFD000F014B81B
:103F7000002101804FF0FF31C17000F14401416028
:103F8000C160016141618161C161016200F1300183
:103F90004162704768010020FFF7E2BC1CB50200D7
:103FA000009269460220ABBE04001000FFF72EFE0F
:103FB000200016BDE0B50090FDF742F9019069467A
:103FC0000E20ABBE03B000BD38B50C46C5B22046CE
:103FD000AFF30080E068A169884204D32046FFF770
:103FE000ABFE00280FD4E068401CE06000F8015DE3
:103FF0002088010503D440050BD50A2D09D12046A0
:10400000FFF7B4FD28B12046AFF300804FF0FF303A
:1040100032BD2046AFF30080284632BD19E050F88B
:10402000042BD30744BFA9F101039A18091F0023E9
:10403000042942F8043BF9D25FEA817C134604D597
:104040004FF0000CA2F800C09B1CC90744BF002120
:10405000197050F8041B0029E1D1704738B50D4D97
:104060000824286800281CBF017811F0030F05D030
:1040700090F90310002958BFFFF710FF2D1D641E93
:10408000EFD1BDE83840002200214FF0FF30FFF7AC
:10409000B4BD00BF6801002010B50749794418314C
:1040A000064C7C44163404E00A68081D1144884715
:1040B0000146A142F8D110BD2C00000048000000CC
:1040C0004EF68851CEF20001086840F47000086096
:1040D000BFF34F8FBFF36F8F4FF00070E1EE100A08
:1040E0007047000039FFFFFFC4010000900100206D
:1040F00000000000E3CFFFFFF00100001A01000004
:104100000000002000F00DF8002801D0FFF7C4FFE8
:10411000AFF300800020AFF30080FFF7F9F900F063
:1041200002F80120704700F001B800000746FFF7D1
:1041300095FF3846FDF7D8FEFBE738B504460D4637
:10414000284600F005F8A84218BF0024204632BDDA
:104150000149FFF739BF00BFD80000207047FEE7D4
:10416000FEE7FEE7FEE770477047704700F000B8D3
:1041700002490A68886882180A60704700000020B7
:104180000148804701480047113E0008914100085E
:10419000AFF30080FFF794FFFFF7B4FF00002E009D
:1041A0004300FFF7FEBFFFF7FEBFFFF7FEBFFFF7BD
:1041B000FEBFFFF7FEBFFFF7FEBFFFF7FEBFFFF733
:1041C000FEBFFFF7FEBFFFF7FEBFFFF7FEBFFFF723
:1041D000FEBFFFF7FEBFFFF7FEBFFFF7FEBFFFF713
:1041E000FEBFFFF7FEBFFFF7FEBFFFF7FEBFFFF703
:1041F000FEBFFFF7FEBFFFF7FEBFFFF7FEBFFFF7F3
:10420000FEBFFFF7FEBFFFF7FEBFFFF7FEBFFFF7E2
:10421000FEBFFFF7FEBFFFF7FEBFFFF7FEBFFFF7D2
:10422000FEBFFFF7FEBFFFF7FEBFFFF7FEBFFFF7C2
:10423000FEBFFFF7FEBFFFF7FEBFFFF7FEBFFFF7B2
:10424000FEBFFFF7FEBFFFF7FEBFFFF7FEBFFFF7A2
:10425000FEBFFFF7FEBFFFF7FEBFFFF7FEBFFFF792
:10426000FEBFFFF7FEBFFFF7FEBFFFF7FEBFFFF782
:10427000FEBFFFF7FEBFFFF7FEBFFFF7FEBFFFF772
:10428000FEBFFFF7FEBFFFF7FEBFFFF7FEBFFFF762
:10429000FEBFFFF7FEBFFFF7FEBFFFF7FEBFFFF752
:1042A000FEBFFFF7FEBFFFF7FEBFFFF7FEBFFFF742
:1042B000FEBFFFF7FEBFFFF7FEBFFFF7FEBFFFF732
:1042C000FEBFFFF7FEBFFFF7FEBFFFF7FEBFFFF722
:1042D000FEBFFFF7FEBFFFF7FEBFFFF7FEBFFFF712
:1042E000FEBFFFF7FEBF0000120001121005220101
:1042F00009F00507093D009C4100080452FF01F246
:10430000009E1410010000A00C2144114CF3162053
:1043100000012002F11100082C43DF113C210110A3
:104320000301040000D44412D50452D404211BA17B
:1043300008F212C064200A02040101F002002040C9
:1043400003002008210421346108F004121C01003C
:10435000200801485002080202A04052A004213463
:104360006108126444F21250481290B412D804F258
:0543700006202C655C35
:04000005080041911D
:00000001FF
